{
  "_format": "hh-sol-artifact-1",
  "contractName": "Clans",
  "sourceName": "contracts/Clans.sol",
  "abi": [
    {
      "inputs": [
        {
          "internalType": "string",
          "name": "_baseURI",
          "type": "string"
        },
        {
          "internalType": "address",
          "name": "_oxgnToken",
          "type": "address"
        },
        {
          "internalType": "address",
          "name": "_y2123Nft",
          "type": "address"
        }
      ],
      "stateMutability": "nonpayable",
      "type": "constructor"
    },
    {
      "anonymous": false,
      "inputs": [
        {
          "indexed": true,
          "internalType": "address",
          "name": "account",
          "type": "address"
        },
        {
          "indexed": true,
          "internalType": "address",
          "name": "operator",
          "type": "address"
        },
        {
          "indexed": false,
          "internalType": "bool",
          "name": "approved",
          "type": "bool"
        }
      ],
      "name": "ApprovalForAll",
      "type": "event"
    },
    {
      "anonymous": false,
      "inputs": [
        {
          "indexed": true,
          "internalType": "address",
          "name": "addr",
          "type": "address"
        },
        {
          "indexed": true,
          "internalType": "uint256",
          "name": "id",
          "type": "uint256"
        },
        {
          "indexed": false,
          "internalType": "uint256",
          "name": "amount",
          "type": "uint256"
        }
      ],
      "name": "Burned",
      "type": "event"
    },
    {
      "anonymous": false,
      "inputs": [
        {
          "indexed": true,
          "internalType": "address",
          "name": "oldLeader",
          "type": "address"
        },
        {
          "indexed": true,
          "internalType": "address",
          "name": "newLeader",
          "type": "address"
        },
        {
          "indexed": true,
          "internalType": "uint256",
          "name": "clanId",
          "type": "uint256"
        },
        {
          "indexed": false,
          "internalType": "uint256",
          "name": "clanTokens",
          "type": "uint256"
        }
      ],
      "name": "ChangeLeader",
      "type": "event"
    },
    {
      "anonymous": false,
      "inputs": [
        {
          "indexed": true,
          "internalType": "address",
          "name": "addr",
          "type": "address"
        },
        {
          "indexed": false,
          "internalType": "uint256",
          "name": "oxgnTokenClaim",
          "type": "uint256"
        },
        {
          "indexed": false,
          "internalType": "uint256",
          "name": "oxgnTokenDonate",
          "type": "uint256"
        },
        {
          "indexed": true,
          "internalType": "uint256",
          "name": "clanId",
          "type": "uint256"
        },
        {
          "indexed": false,
          "internalType": "uint256",
          "name": "clanTokenClaim",
          "type": "uint256"
        },
        {
          "indexed": true,
          "internalType": "address",
          "name": "benificiaryOfTax",
          "type": "address"
        },
        {
          "indexed": false,
          "internalType": "uint256",
          "name": "oxgnTokenTax",
          "type": "uint256"
        },
        {
          "indexed": false,
          "internalType": "uint256",
          "name": "servertime",
          "type": "uint256"
        }
      ],
      "name": "Claim",
      "type": "event"
    },
    {
      "anonymous": false,
      "inputs": [
        {
          "indexed": true,
          "internalType": "address",
          "name": "leader",
          "type": "address"
        },
        {
          "indexed": true,
          "internalType": "uint256",
          "name": "clanId",
          "type": "uint256"
        },
        {
          "indexed": true,
          "internalType": "uint256",
          "name": "colonyId",
          "type": "uint256"
        }
      ],
      "name": "ClanCreated",
      "type": "event"
    },
    {
      "anonymous": false,
      "inputs": [
        {
          "indexed": true,
          "internalType": "address",
          "name": "addr",
          "type": "address"
        },
        {
          "indexed": true,
          "internalType": "uint256",
          "name": "id",
          "type": "uint256"
        },
        {
          "indexed": false,
          "internalType": "uint256",
          "name": "amount",
          "type": "uint256"
        },
        {
          "indexed": false,
          "internalType": "bool",
          "name": "recipientOrigin",
          "type": "bool"
        }
      ],
      "name": "Minted",
      "type": "event"
    },
    {
      "anonymous": false,
      "inputs": [
        {
          "indexed": true,
          "internalType": "address",
          "name": "previousOwner",
          "type": "address"
        },
        {
          "indexed": true,
          "internalType": "address",
          "name": "newOwner",
          "type": "address"
        }
      ],
      "name": "OwnershipTransferred",
      "type": "event"
    },
    {
      "anonymous": false,
      "inputs": [
        {
          "indexed": false,
          "internalType": "uint256",
          "name": "tokenId",
          "type": "uint256"
        },
        {
          "indexed": false,
          "internalType": "address",
          "name": "contractAddress",
          "type": "address"
        },
        {
          "indexed": false,
          "internalType": "address",
          "name": "owner",
          "type": "address"
        },
        {
          "indexed": true,
          "internalType": "uint256",
          "name": "clanId",
          "type": "uint256"
        }
      ],
      "name": "Stake",
      "type": "event"
    },
    {
      "anonymous": false,
      "inputs": [
        {
          "indexed": true,
          "internalType": "address",
          "name": "addr",
          "type": "address"
        },
        {
          "indexed": true,
          "internalType": "uint256",
          "name": "oldClanId",
          "type": "uint256"
        },
        {
          "indexed": true,
          "internalType": "uint256",
          "name": "newClanId",
          "type": "uint256"
        },
        {
          "indexed": false,
          "internalType": "uint256",
          "name": "switchClanCost",
          "type": "uint256"
        }
      ],
      "name": "SwitchClan",
      "type": "event"
    },
    {
      "anonymous": false,
      "inputs": [
        {
          "indexed": true,
          "internalType": "address",
          "name": "leader",
          "type": "address"
        },
        {
          "indexed": true,
          "internalType": "uint256",
          "name": "clanId",
          "type": "uint256"
        },
        {
          "indexed": true,
          "internalType": "uint256",
          "name": "colonyId",
          "type": "uint256"
        }
      ],
      "name": "SwitchColony",
      "type": "event"
    },
    {
      "anonymous": false,
      "inputs": [
        {
          "indexed": true,
          "internalType": "address",
          "name": "operator",
          "type": "address"
        },
        {
          "indexed": true,
          "internalType": "address",
          "name": "from",
          "type": "address"
        },
        {
          "indexed": true,
          "internalType": "address",
          "name": "to",
          "type": "address"
        },
        {
          "indexed": false,
          "internalType": "uint256[]",
          "name": "ids",
          "type": "uint256[]"
        },
        {
          "indexed": false,
          "internalType": "uint256[]",
          "name": "values",
          "type": "uint256[]"
        }
      ],
      "name": "TransferBatch",
      "type": "event"
    },
    {
      "anonymous": false,
      "inputs": [
        {
          "indexed": true,
          "internalType": "address",
          "name": "operator",
          "type": "address"
        },
        {
          "indexed": true,
          "internalType": "address",
          "name": "from",
          "type": "address"
        },
        {
          "indexed": true,
          "internalType": "address",
          "name": "to",
          "type": "address"
        },
        {
          "indexed": false,
          "internalType": "uint256",
          "name": "id",
          "type": "uint256"
        },
        {
          "indexed": false,
          "internalType": "uint256",
          "name": "value",
          "type": "uint256"
        }
      ],
      "name": "TransferSingle",
      "type": "event"
    },
    {
      "anonymous": false,
      "inputs": [
        {
          "indexed": false,
          "internalType": "string",
          "name": "value",
          "type": "string"
        },
        {
          "indexed": true,
          "internalType": "uint256",
          "name": "id",
          "type": "uint256"
        }
      ],
      "name": "URI",
      "type": "event"
    },
    {
      "anonymous": false,
      "inputs": [
        {
          "indexed": false,
          "internalType": "uint256",
          "name": "tokenId",
          "type": "uint256"
        },
        {
          "indexed": false,
          "internalType": "address",
          "name": "contractAddress",
          "type": "address"
        },
        {
          "indexed": false,
          "internalType": "address",
          "name": "owner",
          "type": "address"
        }
      ],
      "name": "Unstake",
      "type": "event"
    },
    {
      "inputs": [
        {
          "internalType": "address",
          "name": "accountAddress",
          "type": "address"
        }
      ],
      "name": "accountNonce",
      "outputs": [
        {
          "internalType": "uint256",
          "name": "",
          "type": "uint256"
        }
      ],
      "stateMutability": "view",
      "type": "function"
    },
    {
      "inputs": [
        {
          "internalType": "address",
          "name": "",
          "type": "address"
        }
      ],
      "name": "accountToLastClaim",
      "outputs": [
        {
          "internalType": "uint256",
          "name": "oxgnTokenClaim",
          "type": "uint256"
        },
        {
          "internalType": "uint256",
          "name": "oxgnTokenDonate",
          "type": "uint256"
        },
        {
          "internalType": "uint256",
          "name": "clanId",
          "type": "uint256"
        },
        {
          "internalType": "uint256",
          "name": "clanTokenClaim",
          "type": "uint256"
        },
        {
          "internalType": "address",
          "name": "benificiaryOfTax",
          "type": "address"
        },
        {
          "internalType": "uint256",
          "name": "oxgnTokenTax",
          "type": "uint256"
        },
        {
          "internalType": "uint256",
          "name": "nonce",
          "type": "uint256"
        },
        {
          "internalType": "uint256",
          "name": "servertime",
          "type": "uint256"
        },
        {
          "internalType": "uint256",
          "name": "blocktime",
          "type": "uint256"
        }
      ],
      "stateMutability": "view",
      "type": "function"
    },
    {
      "inputs": [
        {
          "internalType": "address",
          "name": "",
          "type": "address"
        }
      ],
      "name": "accountTotalClaim",
      "outputs": [
        {
          "internalType": "uint256",
          "name": "",
          "type": "uint256"
        }
      ],
      "stateMutability": "view",
      "type": "function"
    },
    {
      "inputs": [
        {
          "internalType": "address",
          "name": "",
          "type": "address"
        }
      ],
      "name": "accountTotalClanClaim",
      "outputs": [
        {
          "internalType": "uint256",
          "name": "",
          "type": "uint256"
        }
      ],
      "stateMutability": "view",
      "type": "function"
    },
    {
      "inputs": [
        {
          "internalType": "address",
          "name": "",
          "type": "address"
        }
      ],
      "name": "accountTotalDonate",
      "outputs": [
        {
          "internalType": "uint256",
          "name": "",
          "type": "uint256"
        }
      ],
      "stateMutability": "view",
      "type": "function"
    },
    {
      "inputs": [
        {
          "internalType": "address",
          "name": "addr",
          "type": "address"
        }
      ],
      "name": "addAdmin",
      "outputs": [],
      "stateMutability": "nonpayable",
      "type": "function"
    },
    {
      "inputs": [
        {
          "internalType": "address",
          "name": "contractAddress",
          "type": "address"
        }
      ],
      "name": "addContract",
      "outputs": [],
      "stateMutability": "nonpayable",
      "type": "function"
    },
    {
      "inputs": [
        {
          "internalType": "address",
          "name": "account",
          "type": "address"
        },
        {
          "internalType": "uint256",
          "name": "id",
          "type": "uint256"
        }
      ],
      "name": "balanceOf",
      "outputs": [
        {
          "internalType": "uint256",
          "name": "",
          "type": "uint256"
        }
      ],
      "stateMutability": "view",
      "type": "function"
    },
    {
      "inputs": [
        {
          "internalType": "address",
          "name": "owner",
          "type": "address"
        }
      ],
      "name": "balanceOf",
      "outputs": [
        {
          "internalType": "uint256",
          "name": "",
          "type": "uint256"
        }
      ],
      "stateMutability": "view",
      "type": "function"
    },
    {
      "inputs": [
        {
          "internalType": "address[]",
          "name": "accounts",
          "type": "address[]"
        },
        {
          "internalType": "uint256[]",
          "name": "ids",
          "type": "uint256[]"
        }
      ],
      "name": "balanceOfBatch",
      "outputs": [
        {
          "internalType": "uint256[]",
          "name": "",
          "type": "uint256[]"
        }
      ],
      "stateMutability": "view",
      "type": "function"
    },
    {
      "inputs": [
        {
          "internalType": "uint256",
          "name": "id",
          "type": "uint256"
        },
        {
          "internalType": "uint256",
          "name": "amount",
          "type": "uint256"
        }
      ],
      "name": "burn",
      "outputs": [],
      "stateMutability": "nonpayable",
      "type": "function"
    },
    {
      "inputs": [],
      "name": "changeLeaderPercentage",
      "outputs": [
        {
          "internalType": "uint256",
          "name": "",
          "type": "uint256"
        }
      ],
      "stateMutability": "view",
      "type": "function"
    },
    {
      "inputs": [
        {
          "internalType": "uint256",
          "name": "oxgnTokenClaim",
          "type": "uint256"
        },
        {
          "internalType": "uint256",
          "name": "oxgnTokenDonate",
          "type": "uint256"
        },
        {
          "internalType": "uint256",
          "name": "clanTokenClaim",
          "type": "uint256"
        },
        {
          "internalType": "address",
          "name": "benificiaryOfTax",
          "type": "address"
        },
        {
          "internalType": "uint256",
          "name": "oxgnTokenTax",
          "type": "uint256"
        },
        {
          "internalType": "uint256",
          "name": "timestamp",
          "type": "uint256"
        },
        {
          "internalType": "bytes",
          "name": "signature",
          "type": "bytes"
        }
      ],
      "name": "claim",
      "outputs": [],
      "stateMutability": "nonpayable",
      "type": "function"
    },
    {
      "inputs": [
        {
          "internalType": "address",
          "name": "contractAddress",
          "type": "address"
        },
        {
          "internalType": "address",
          "name": "owner",
          "type": "address"
        }
      ],
      "name": "claimableOfOwner",
      "outputs": [
        {
          "internalType": "uint256[]",
          "name": "stakedTimestamps",
          "type": "uint256[]"
        },
        {
          "internalType": "uint256[]",
          "name": "claimableTimestamps",
          "type": "uint256[]"
        }
      ],
      "stateMutability": "view",
      "type": "function"
    },
    {
      "inputs": [],
      "name": "clanIdTracker",
      "outputs": [
        {
          "internalType": "uint256",
          "name": "_value",
          "type": "uint256"
        }
      ],
      "stateMutability": "view",
      "type": "function"
    },
    {
      "inputs": [
        {
          "internalType": "address",
          "name": "",
          "type": "address"
        }
      ],
      "name": "clanStructs",
      "outputs": [
        {
          "internalType": "uint256",
          "name": "clanId",
          "type": "uint256"
        },
        {
          "internalType": "uint256",
          "name": "updateClanTimestamp",
          "type": "uint256"
        },
        {
          "internalType": "bool",
          "name": "isEntity",
          "type": "bool"
        }
      ],
      "stateMutability": "view",
      "type": "function"
    },
    {
      "inputs": [
        {
          "internalType": "uint256",
          "name": "",
          "type": "uint256"
        }
      ],
      "name": "clanToColony",
      "outputs": [
        {
          "internalType": "uint256",
          "name": "",
          "type": "uint256"
        }
      ],
      "stateMutability": "view",
      "type": "function"
    },
    {
      "inputs": [
        {
          "internalType": "uint256",
          "name": "",
          "type": "uint256"
        }
      ],
      "name": "clanToHighestOwnedAccount",
      "outputs": [
        {
          "internalType": "address",
          "name": "",
          "type": "address"
        }
      ],
      "stateMutability": "view",
      "type": "function"
    },
    {
      "inputs": [
        {
          "internalType": "uint256",
          "name": "",
          "type": "uint256"
        }
      ],
      "name": "clanToHighestOwnedCount",
      "outputs": [
        {
          "internalType": "uint256",
          "name": "",
          "type": "uint256"
        }
      ],
      "stateMutability": "view",
      "type": "function"
    },
    {
      "inputs": [
        {
          "internalType": "address",
          "name": "",
          "type": "address"
        }
      ],
      "name": "contracts",
      "outputs": [
        {
          "internalType": "bool",
          "name": "active",
          "type": "bool"
        },
        {
          "internalType": "contract IERC721",
          "name": "instance",
          "type": "address"
        }
      ],
      "stateMutability": "view",
      "type": "function"
    },
    {
      "inputs": [
        {
          "internalType": "uint256",
          "name": "colonyId",
          "type": "uint256"
        }
      ],
      "name": "createClan",
      "outputs": [],
      "stateMutability": "nonpayable",
      "type": "function"
    },
    {
      "inputs": [],
      "name": "createClanCostMultiplier",
      "outputs": [
        {
          "internalType": "uint256",
          "name": "",
          "type": "uint256"
        }
      ],
      "stateMutability": "view",
      "type": "function"
    },
    {
      "inputs": [],
      "name": "creatorInitialClanTokens",
      "outputs": [
        {
          "internalType": "uint256",
          "name": "",
          "type": "uint256"
        }
      ],
      "stateMutability": "view",
      "type": "function"
    },
    {
      "inputs": [],
      "name": "donationAccount",
      "outputs": [
        {
          "internalType": "address",
          "name": "",
          "type": "address"
        }
      ],
      "stateMutability": "view",
      "type": "function"
    },
    {
      "inputs": [
        {
          "internalType": "uint256",
          "name": "",
          "type": "uint256"
        }
      ],
      "name": "entityList",
      "outputs": [
        {
          "internalType": "address",
          "name": "",
          "type": "address"
        }
      ],
      "stateMutability": "view",
      "type": "function"
    },
    {
      "inputs": [],
      "name": "featureFlagCreateClan",
      "outputs": [
        {
          "internalType": "bool",
          "name": "",
          "type": "bool"
        }
      ],
      "stateMutability": "view",
      "type": "function"
    },
    {
      "inputs": [],
      "name": "featureFlagSwitchColony",
      "outputs": [
        {
          "internalType": "bool",
          "name": "",
          "type": "bool"
        }
      ],
      "stateMutability": "view",
      "type": "function"
    },
    {
      "inputs": [
        {
          "internalType": "uint256",
          "name": "clanId",
          "type": "uint256"
        }
      ],
      "name": "getAccountsInClan",
      "outputs": [
        {
          "internalType": "address[]",
          "name": "",
          "type": "address[]"
        }
      ],
      "stateMutability": "view",
      "type": "function"
    },
    {
      "inputs": [
        {
          "internalType": "uint256",
          "name": "clanId",
          "type": "uint256"
        }
      ],
      "name": "getChangeClanLeaderThreshold",
      "outputs": [
        {
          "internalType": "uint256",
          "name": "amount",
          "type": "uint256"
        }
      ],
      "stateMutability": "view",
      "type": "function"
    },
    {
      "inputs": [
        {
          "internalType": "uint256",
          "name": "colonyId",
          "type": "uint256"
        }
      ],
      "name": "getClanCountInColony",
      "outputs": [
        {
          "internalType": "uint256",
          "name": "clans",
          "type": "uint256"
        }
      ],
      "stateMutability": "view",
      "type": "function"
    },
    {
      "inputs": [
        {
          "internalType": "uint256",
          "name": "clanId",
          "type": "uint256"
        }
      ],
      "name": "getClanRecords",
      "outputs": [
        {
          "internalType": "address[]",
          "name": "entity",
          "type": "address[]"
        },
        {
          "internalType": "uint256[]",
          "name": "updateClanTimestamp",
          "type": "uint256[]"
        }
      ],
      "stateMutability": "view",
      "type": "function"
    },
    {
      "inputs": [
        {
          "internalType": "uint256",
          "name": "colonyId",
          "type": "uint256"
        }
      ],
      "name": "getClansInColony",
      "outputs": [
        {
          "internalType": "uint256[]",
          "name": "",
          "type": "uint256[]"
        }
      ],
      "stateMutability": "view",
      "type": "function"
    },
    {
      "inputs": [],
      "name": "getCreateClanCost",
      "outputs": [
        {
          "internalType": "uint256",
          "name": "amount",
          "type": "uint256"
        }
      ],
      "stateMutability": "view",
      "type": "function"
    },
    {
      "inputs": [
        {
          "internalType": "uint256",
          "name": "clanId",
          "type": "uint256"
        }
      ],
      "name": "getEntityClanCount",
      "outputs": [
        {
          "internalType": "uint256",
          "name": "entityCount",
          "type": "uint256"
        }
      ],
      "stateMutability": "view",
      "type": "function"
    },
    {
      "inputs": [],
      "name": "getEntityCount",
      "outputs": [
        {
          "internalType": "uint256",
          "name": "entityCount",
          "type": "uint256"
        }
      ],
      "stateMutability": "view",
      "type": "function"
    },
    {
      "inputs": [
        {
          "internalType": "uint256",
          "name": "clanId",
          "type": "uint256"
        }
      ],
      "name": "getSwitchClanCost",
      "outputs": [
        {
          "internalType": "uint256",
          "name": "amount",
          "type": "uint256"
        }
      ],
      "stateMutability": "view",
      "type": "function"
    },
    {
      "inputs": [
        {
          "internalType": "address",
          "name": "account",
          "type": "address"
        },
        {
          "internalType": "address",
          "name": "operator",
          "type": "address"
        }
      ],
      "name": "isApprovedForAll",
      "outputs": [
        {
          "internalType": "bool",
          "name": "",
          "type": "bool"
        }
      ],
      "stateMutability": "view",
      "type": "function"
    },
    {
      "inputs": [
        {
          "internalType": "address",
          "name": "entityAddress",
          "type": "address"
        }
      ],
      "name": "isClanLeader",
      "outputs": [
        {
          "internalType": "bool",
          "name": "",
          "type": "bool"
        }
      ],
      "stateMutability": "view",
      "type": "function"
    },
    {
      "inputs": [
        {
          "internalType": "address",
          "name": "entityAddress",
          "type": "address"
        }
      ],
      "name": "isEntity",
      "outputs": [
        {
          "internalType": "bool",
          "name": "isIndeed",
          "type": "bool"
        }
      ],
      "stateMutability": "view",
      "type": "function"
    },
    {
      "inputs": [],
      "name": "minClanInColony",
      "outputs": [
        {
          "internalType": "uint256",
          "name": "",
          "type": "uint256"
        }
      ],
      "stateMutability": "view",
      "type": "function"
    },
    {
      "inputs": [
        {
          "internalType": "address",
          "name": "recipient",
          "type": "address"
        },
        {
          "internalType": "uint256",
          "name": "id",
          "type": "uint256"
        },
        {
          "internalType": "uint256",
          "name": "amount",
          "type": "uint256"
        }
      ],
      "name": "mint",
      "outputs": [],
      "stateMutability": "nonpayable",
      "type": "function"
    },
    {
      "inputs": [],
      "name": "owner",
      "outputs": [
        {
          "internalType": "address",
          "name": "",
          "type": "address"
        }
      ],
      "stateMutability": "view",
      "type": "function"
    },
    {
      "inputs": [
        {
          "internalType": "uint256",
          "name": "tokenId",
          "type": "uint256"
        }
      ],
      "name": "ownerOf",
      "outputs": [
        {
          "internalType": "address",
          "name": "",
          "type": "address"
        }
      ],
      "stateMutability": "view",
      "type": "function"
    },
    {
      "inputs": [],
      "name": "oxgnToken",
      "outputs": [
        {
          "internalType": "contract IOxygen",
          "name": "",
          "type": "address"
        }
      ],
      "stateMutability": "view",
      "type": "function"
    },
    {
      "inputs": [
        {
          "internalType": "address",
          "name": "account",
          "type": "address"
        },
        {
          "internalType": "uint256",
          "name": "oxgnTokenClaim",
          "type": "uint256"
        },
        {
          "internalType": "uint256",
          "name": "oxgnTokenDonate",
          "type": "uint256"
        },
        {
          "internalType": "uint256",
          "name": "clanTokenClaim",
          "type": "uint256"
        },
        {
          "internalType": "address",
          "name": "benificiaryOfTax",
          "type": "address"
        },
        {
          "internalType": "uint256",
          "name": "oxgnTokenTax",
          "type": "uint256"
        },
        {
          "internalType": "uint256",
          "name": "nonce",
          "type": "uint256"
        },
        {
          "internalType": "uint256",
          "name": "timestamp",
          "type": "uint256"
        },
        {
          "internalType": "bytes",
          "name": "signature",
          "type": "bytes"
        }
      ],
      "name": "recoverAddress",
      "outputs": [
        {
          "internalType": "address",
          "name": "",
          "type": "address"
        }
      ],
      "stateMutability": "view",
      "type": "function"
    },
    {
      "inputs": [
        {
          "internalType": "address",
          "name": "addr",
          "type": "address"
        }
      ],
      "name": "removeAdmin",
      "outputs": [],
      "stateMutability": "nonpayable",
      "type": "function"
    },
    {
      "inputs": [],
      "name": "renounceOwnership",
      "outputs": [],
      "stateMutability": "nonpayable",
      "type": "function"
    },
    {
      "inputs": [
        {
          "internalType": "address",
          "name": "from",
          "type": "address"
        },
        {
          "internalType": "address",
          "name": "to",
          "type": "address"
        },
        {
          "internalType": "uint256[]",
          "name": "ids",
          "type": "uint256[]"
        },
        {
          "internalType": "uint256[]",
          "name": "amounts",
          "type": "uint256[]"
        },
        {
          "internalType": "bytes",
          "name": "data",
          "type": "bytes"
        }
      ],
      "name": "safeBatchTransferFrom",
      "outputs": [],
      "stateMutability": "nonpayable",
      "type": "function"
    },
    {
      "inputs": [
        {
          "internalType": "address",
          "name": "from",
          "type": "address"
        },
        {
          "internalType": "address",
          "name": "to",
          "type": "address"
        },
        {
          "internalType": "uint256",
          "name": "id",
          "type": "uint256"
        },
        {
          "internalType": "uint256",
          "name": "amount",
          "type": "uint256"
        },
        {
          "internalType": "bytes",
          "name": "data",
          "type": "bytes"
        }
      ],
      "name": "safeTransferFrom",
      "outputs": [],
      "stateMutability": "nonpayable",
      "type": "function"
    },
    {
      "inputs": [],
      "name": "serverToBlockTimeDelta",
      "outputs": [
        {
          "internalType": "uint256",
          "name": "",
          "type": "uint256"
        }
      ],
      "stateMutability": "view",
      "type": "function"
    },
    {
      "inputs": [
        {
          "internalType": "address",
          "name": "operator",
          "type": "address"
        },
        {
          "internalType": "bool",
          "name": "approved",
          "type": "bool"
        }
      ],
      "name": "setApprovalForAll",
      "outputs": [],
      "stateMutability": "nonpayable",
      "type": "function"
    },
    {
      "inputs": [
        {
          "internalType": "string",
          "name": "newBaseURI",
          "type": "string"
        }
      ],
      "name": "setBaseURI",
      "outputs": [],
      "stateMutability": "nonpayable",
      "type": "function"
    },
    {
      "inputs": [
        {
          "internalType": "uint256",
          "name": "newVal",
          "type": "uint256"
        }
      ],
      "name": "setChangeLeaderPercentage",
      "outputs": [],
      "stateMutability": "nonpayable",
      "type": "function"
    },
    {
      "inputs": [
        {
          "internalType": "uint256",
          "name": "newVal",
          "type": "uint256"
        }
      ],
      "name": "setCreateClanCostMultiplier",
      "outputs": [],
      "stateMutability": "nonpayable",
      "type": "function"
    },
    {
      "inputs": [
        {
          "internalType": "uint256",
          "name": "newVal",
          "type": "uint256"
        }
      ],
      "name": "setCreatorInitialClanTokens",
      "outputs": [],
      "stateMutability": "nonpayable",
      "type": "function"
    },
    {
      "inputs": [
        {
          "internalType": "address",
          "name": "addr",
          "type": "address"
        }
      ],
      "name": "setDonationAccount",
      "outputs": [],
      "stateMutability": "nonpayable",
      "type": "function"
    },
    {
      "inputs": [
        {
          "internalType": "uint256",
          "name": "newVal",
          "type": "uint256"
        }
      ],
      "name": "setMinClanInColony",
      "outputs": [],
      "stateMutability": "nonpayable",
      "type": "function"
    },
    {
      "inputs": [
        {
          "internalType": "uint256",
          "name": "newVal",
          "type": "uint256"
        }
      ],
      "name": "setServerToBlockTimeDelta",
      "outputs": [],
      "stateMutability": "nonpayable",
      "type": "function"
    },
    {
      "inputs": [
        {
          "internalType": "address",
          "name": "signerAddress",
          "type": "address"
        }
      ],
      "name": "setSignerAddress",
      "outputs": [],
      "stateMutability": "nonpayable",
      "type": "function"
    },
    {
      "inputs": [
        {
          "internalType": "uint256",
          "name": "newVal",
          "type": "uint256"
        }
      ],
      "name": "setSwitchClanCostBase",
      "outputs": [],
      "stateMutability": "nonpayable",
      "type": "function"
    },
    {
      "inputs": [
        {
          "internalType": "uint256",
          "name": "newVal",
          "type": "uint256"
        }
      ],
      "name": "setSwitchClanCostMultiplier",
      "outputs": [],
      "stateMutability": "nonpayable",
      "type": "function"
    },
    {
      "inputs": [
        {
          "internalType": "uint256",
          "name": "newVal",
          "type": "uint256"
        }
      ],
      "name": "setSwitchColonyCost",
      "outputs": [],
      "stateMutability": "nonpayable",
      "type": "function"
    },
    {
      "inputs": [
        {
          "internalType": "address",
          "name": "_oxgnToken",
          "type": "address"
        }
      ],
      "name": "setTokenContract",
      "outputs": [],
      "stateMutability": "nonpayable",
      "type": "function"
    },
    {
      "inputs": [
        {
          "internalType": "address",
          "name": "_y2123Nft",
          "type": "address"
        }
      ],
      "name": "setY2123Nft",
      "outputs": [],
      "stateMutability": "nonpayable",
      "type": "function"
    },
    {
      "inputs": [
        {
          "internalType": "address",
          "name": "member",
          "type": "address"
        },
        {
          "internalType": "uint256",
          "name": "clanId",
          "type": "uint256"
        },
        {
          "internalType": "uint256",
          "name": "amount",
          "type": "uint256"
        }
      ],
      "name": "shouldChangeLeader",
      "outputs": [
        {
          "internalType": "bool",
          "name": "",
          "type": "bool"
        }
      ],
      "stateMutability": "view",
      "type": "function"
    },
    {
      "inputs": [
        {
          "internalType": "address",
          "name": "contractAddress",
          "type": "address"
        },
        {
          "internalType": "uint256[]",
          "name": "tokenIds",
          "type": "uint256[]"
        },
        {
          "internalType": "uint256",
          "name": "clanId",
          "type": "uint256"
        }
      ],
      "name": "stake",
      "outputs": [],
      "stateMutability": "nonpayable",
      "type": "function"
    },
    {
      "inputs": [
        {
          "internalType": "address",
          "name": "contractAddress",
          "type": "address"
        },
        {
          "internalType": "uint256",
          "name": "tokenId",
          "type": "uint256"
        }
      ],
      "name": "stakedTokenTimestamp",
      "outputs": [
        {
          "internalType": "uint256",
          "name": "",
          "type": "uint256"
        }
      ],
      "stateMutability": "view",
      "type": "function"
    },
    {
      "inputs": [
        {
          "internalType": "address",
          "name": "contractAddress",
          "type": "address"
        },
        {
          "internalType": "address",
          "name": "owner",
          "type": "address"
        }
      ],
      "name": "stakedTokensOfOwner",
      "outputs": [
        {
          "internalType": "uint256[]",
          "name": "",
          "type": "uint256[]"
        }
      ],
      "stateMutability": "view",
      "type": "function"
    },
    {
      "inputs": [
        {
          "internalType": "bytes4",
          "name": "interfaceId",
          "type": "bytes4"
        }
      ],
      "name": "supportsInterface",
      "outputs": [
        {
          "internalType": "bool",
          "name": "",
          "type": "bool"
        }
      ],
      "stateMutability": "view",
      "type": "function"
    },
    {
      "inputs": [],
      "name": "switchClanCostBase",
      "outputs": [
        {
          "internalType": "uint256",
          "name": "",
          "type": "uint256"
        }
      ],
      "stateMutability": "view",
      "type": "function"
    },
    {
      "inputs": [],
      "name": "switchClanCostMultiplier",
      "outputs": [
        {
          "internalType": "uint256",
          "name": "",
          "type": "uint256"
        }
      ],
      "stateMutability": "view",
      "type": "function"
    },
    {
      "inputs": [
        {
          "internalType": "uint256",
          "name": "clanId",
          "type": "uint256"
        },
        {
          "internalType": "uint256",
          "name": "colonyId",
          "type": "uint256"
        }
      ],
      "name": "switchColony",
      "outputs": [],
      "stateMutability": "nonpayable",
      "type": "function"
    },
    {
      "inputs": [],
      "name": "switchColonyCost",
      "outputs": [
        {
          "internalType": "uint256",
          "name": "",
          "type": "uint256"
        }
      ],
      "stateMutability": "view",
      "type": "function"
    },
    {
      "inputs": [],
      "name": "toggleFeatureFlagCreateClan",
      "outputs": [],
      "stateMutability": "nonpayable",
      "type": "function"
    },
    {
      "inputs": [],
      "name": "toggleFeatureFlagSwitchColony",
      "outputs": [],
      "stateMutability": "nonpayable",
      "type": "function"
    },
    {
      "inputs": [
        {
          "internalType": "address",
          "name": "newOwner",
          "type": "address"
        }
      ],
      "name": "transferOwnership",
      "outputs": [],
      "stateMutability": "nonpayable",
      "type": "function"
    },
    {
      "inputs": [
        {
          "internalType": "address",
          "name": "contractAddress",
          "type": "address"
        },
        {
          "internalType": "uint256[]",
          "name": "tokenIds",
          "type": "uint256[]"
        }
      ],
      "name": "unstake",
      "outputs": [],
      "stateMutability": "nonpayable",
      "type": "function"
    },
    {
      "inputs": [
        {
          "internalType": "address",
          "name": "contractAddress",
          "type": "address"
        },
        {
          "internalType": "bool",
          "name": "active",
          "type": "bool"
        }
      ],
      "name": "updateContract",
      "outputs": [],
      "stateMutability": "nonpayable",
      "type": "function"
    },
    {
      "inputs": [
        {
          "internalType": "uint256",
          "name": "clanId",
          "type": "uint256"
        }
      ],
      "name": "uri",
      "outputs": [
        {
          "internalType": "string",
          "name": "",
          "type": "string"
        }
      ],
      "stateMutability": "view",
      "type": "function"
    },
    {
      "inputs": [
        {
          "internalType": "uint256",
          "name": "amount",
          "type": "uint256"
        }
      ],
      "name": "withdrawForDonation",
      "outputs": [],
      "stateMutability": "nonpayable",
      "type": "function"
    },
    {
      "inputs": [],
      "name": "y2123Nft",
      "outputs": [
        {
          "internalType": "address",
          "name": "",
          "type": "address"
        }
      ],
      "stateMutability": "view",
      "type": "function"
    }
  ],
  "bytecode": "0x6101406040526007805461ffff191660019081179091556064600855600a600981905568056bc75e2d63100000905569021e19e0c9bab2400000600b556000600c819055600d55600e55603c600f553480156200005b57600080fd5b5060405162006b3538038062006b358339810160408190526200007e9162001018565b60405180604001604052806005815260200164793231323360d81b815250604051806040016040528060038152602001620312e360ec1b81525084620000ca81620001f060201b60201c565b50815160208084019190912082519183019190912060e08290526101008190524660a0527f8b73c3c69bb8fe3d512ecc4cf759cc79239f7b179b0ffacaa9a75d522b39400f6200011c81848462000209565b6080523060c05261012052506200013f9250620001399150503390565b62000253565b600160045582516200015990600590602086019062000edd565b506200016533620002a5565b620001708262000360565b6200017b81620003cd565b601180546001600160a01b0319166001600160a01b038316179055620001ae60066200046a602090811b6200349517901c565b620001ba600162000473565b620001c6600262000473565b620001d2600362000473565b6007805460ff19169055620001e7306200079a565b50505062001329565b80516200020590600290602084019062000edd565b5050565b6040805160208101859052908101839052606081018290524660808201523060a082015260009060c0016040516020818303038152906040528051906020012090505b9392505050565b600380546001600160a01b038381166001600160a01b0319831681179093556040519116919082907f8be0079c531659141344cd1fd0a4f28419497f9722a3daafe3b4186f6b6457e090600090a35050565b6003546001600160a01b03163314620002f45760405162461bcd60e51b8152602060048201819052602482015260008051602062006b1583398151915260448201526064015b60405180910390fd5b6001600160a01b0381166200033c5760405162461bcd60e51b815260206004820152600d60248201526c656d707479206164647265737360981b6044820152606401620002eb565b6001600160a01b03166000908152601360205260409020805460ff19166001179055565b6003546001600160a01b03163314620003ab5760405162461bcd60e51b8152602060048201819052602482015260008051602062006b158339815191526044820152606401620002eb565b601280546001600160a01b0319166001600160a01b0392909216919091179055565b6003546001600160a01b03163314620004185760405162461bcd60e51b8152602060048201819052602482015260008051602062006b158339815191526044820152606401620002eb565b6001600160a01b038116600081815260216020908152604090912080546101009093026001600160a81b031990931692909217600117909155620002059060239083906200349e62000807821b17901c565b80546001019055565b60026004541415620004c85760405162461bcd60e51b815260206004820152601f60248201527f5265656e7472616e637947756172643a207265656e7472616e742063616c6c006044820152606401620002eb565b600260045560075460ff16620005215760405162461bcd60e51b815260206004820152601360248201527f66656174757265206e6f7420656e61626c6564000000000000000000000000006044820152606401620002eb565b600081118015620005325750600481105b620005805760405162461bcd60e51b815260206004820152601460248201527f6f6e6c79203320636f6c6f6e69657320657665720000000000000000000000006044820152606401620002eb565b6200058b3362000827565b15620005e45760405162461bcd60e51b815260206004820152602160248201527f636c616e206c65616465722063616e277420637265617465206e657720636c616044820152603760f91b6064820152608401620002eb565b3360009081526013602052604090205460ff16620006e057336000908152601c602052604090206002015460ff16620006545760405162461bcd60e51b815260206004820152601160248201527036bab9ba1031329034b710309031b630b760791b6044820152606401620002eb565b60006200066062000883565b90508015620006de576012546001600160a01b0316639dc29fac336040516001600160e01b031960e084901b1681526001600160a01b03909116600482015260248101849052604401600060405180830381600087803b158015620006c457600080fd5b505af1158015620006d9573d6000803e3d6000fd5b505050505b505b6000620006f96006620008b060201b620034b31760201c565b90508160166000838152602001908152602001600020819055506200072a60066200046a60201b620034951760201c565b6040518290829033907f098df9d435f5abb718c2804ce7d7b6550ff16ebbabc96ba0da01d4860e2c4b6590600090a4336000818152601c602090815260408083208581554260019091015560085481519283019091529181526200079192918491620008b4565b50506001600455565b6003546001600160a01b03163314620007e55760405162461bcd60e51b8152602060048201819052602482015260008051602062006b158339815191526044820152606401620002eb565b601080546001600160a01b0319166001600160a01b0392909216919091179055565b60006200081e836001600160a01b038416620009d7565b90505b92915050565b6001600160a01b0381166000908152601c602052604081206002015460ff16156200087b57506001600160a01b039081166000818152601c6020908152604080832054835260159091529020549091161490565b506000919050565b6000600a546200089f6006620008b060201b620034b31760201c565b620008ab9190620010f6565b905090565b5490565b6001600160a01b038416620009165760405162461bcd60e51b815260206004820152602160248201527f455243313135353a206d696e7420746f20746865207a65726f206164647265736044820152607360f81b6064820152608401620002eb565b336200093c816000876200092a8862000a29565b620009358862000a29565b8762000a77565b6000848152602081815260408083206001600160a01b0389168452909152812080548592906200096e90849062001118565b909155505060408051858152602081018590526001600160a01b0380881692600092918516917fc3d58168c5ae7397731d063d5bbf3d657854427343f4c083240f7aacaa2d0f62910160405180910390a4620009d08160008787878762000bbe565b5050505050565b600081815260018301602052604081205462000a205750815460018181018455600084815260208082209093018490558454848252828601909352604090209190915562000821565b50600062000821565b6040805160018082528183019092526060916000919060208083019080368337019050509050828160008151811062000a665762000a6662001133565b602090810291909101015292915050565b60005b835181101562000b9a57600084828151811062000a9b5762000a9b62001133565b60200260200101519050600084838151811062000abc5762000abc62001133565b602002602001015162000ad6888462000d9460201b60201c565b62000ae2919062001118565b905062000af187838362000e28565b1562000b84576000828152601560209081526040918290205491518381526001600160a01b03928316928592908b169184917fe5de49455cbc88f3dd9d0d5cb562cc7e6513716e573a5be2023a8b3a42a733ee910160405180910390a45060008281526014602090815260408083208490556015909152902080546001600160a01b0319166001600160a01b0389161790555b50508062000b929062001149565b905062000a7a565b5062000bb686868686868662000bb660201b620034b71760201c565b505050505050565b62000bdd846001600160a01b031662000e9260201b620034bf1760201c565b1562000bb65760405163f23a6e6160e01b81526001600160a01b0385169063f23a6e619062000c19908990899088908890889060040162001195565b6020604051808303816000875af192505050801562000c57575060408051601f3d908101601f1916820190925262000c5491810190620011dc565b60015b62000d185762000c6662001208565b806308c379a0141562000ca7575062000c7e62001225565b8062000c8b575062000ca9565b8060405162461bcd60e51b8152600401620002eb9190620012b4565b505b60405162461bcd60e51b815260206004820152603460248201527f455243313135353a207472616e7366657220746f206e6f6e204552433131353560448201527f526563656976657220696d706c656d656e7465720000000000000000000000006064820152608401620002eb565b6001600160e01b0319811663f23a6e6160e01b1462000d8b5760405162461bcd60e51b815260206004820152602860248201527f455243313135353a204552433131353552656365697665722072656a656374656044820152676420746f6b656e7360c01b6064820152608401620002eb565b50505050505050565b60006001600160a01b03831662000e025760405162461bcd60e51b815260206004820152602b60248201527f455243313135353a2062616c616e636520717565727920666f7220746865207a60448201526a65726f206164647265737360a81b6064820152608401620002eb565b506000908152602081815260408083206001600160a01b03949094168352929052205490565b6000828152601560205260408120546001600160a01b038581169116141562000e54575060006200024c565b6001600160a01b0384166000908152601c6020526040902054831462000e7d575060006200024c565b62000e888362000ea1565b9091119392505050565b6001600160a01b03163b151590565b60006064600954606462000eb6919062001118565b60008481526014602052604090205462000ed19190620010f6565b620008219190620012c9565b82805462000eeb90620012ec565b90600052602060002090601f01602090048101928262000f0f576000855562000f5a565b82601f1062000f2a57805160ff191683800117855562000f5a565b8280016001018555821562000f5a579182015b8281111562000f5a57825182559160200191906001019062000f3d565b5062000f6892915062000f6c565b5090565b5b8082111562000f68576000815560010162000f6d565b634e487b7160e01b600052604160045260246000fd5b601f8201601f191681016001600160401b038111828210171562000fc15762000fc162000f83565b6040525050565b60005b8381101562000fe557818101518382015260200162000fcb565b8381111562000ff5576000848401525b50505050565b80516001600160a01b03811681146200101357600080fd5b919050565b6000806000606084860312156200102e57600080fd5b83516001600160401b03808211156200104657600080fd5b818601915086601f8301126200105b57600080fd5b81518181111562001070576200107062000f83565b60405191506200108b601f8201601f19166020018362000f99565b808252876020828501011115620010a157600080fd5b620010b481602084016020860162000fc8565b509350620010c790506020850162000ffb565b9150620010d76040850162000ffb565b90509250925092565b634e487b7160e01b600052601160045260246000fd5b6000816000190483118215151615620011135762001113620010e0565b500290565b600082198211156200112e576200112e620010e0565b500190565b634e487b7160e01b600052603260045260246000fd5b6000600019821415620011605762001160620010e0565b5060010190565b600081518084526200118181602086016020860162000fc8565b601f01601f19169290920160200192915050565b6001600160a01b03868116825285166020820152604081018490526060810183905260a060808201819052600090620011d19083018462001167565b979650505050505050565b600060208284031215620011ef57600080fd5b81516001600160e01b0319811681146200024c57600080fd5b600060033d1115620012225760046000803e5060005160e01c5b90565b600060443d1015620012345790565b6040516003193d81016004833e81513d6001600160401b0380831160248401831017156200126457505050505090565b82850191508151818111156200127d5750505050505090565b843d8701016020828501011115620012985750505050505090565b620012a96020828601018762000f99565b509095945050505050565b6020815260006200081e602083018462001167565b600082620012e757634e487b7160e01b600052601260045260246000fd5b500490565b600181811c908216806200130157607f821691505b602082108114156200132357634e487b7160e01b600052602260045260246000fd5b50919050565b60805160a05160c05160e051610100516101205161579c62001379600039600061479c015260006147eb015260006147c60152600061471f0152600061474901526000614773015261579c6000f3fe608060405234801561001057600080fd5b506004361061048a5760003560e01c8063715018a611610262578063b390c0ab11610151578063db4b9b6c116100ce578063f212d51011610092578063f212d51014610bee578063f242432a14610c01578063f2fde38b14610c14578063f327a62c14610c27578063fbbbec0a14610c2f578063fbe5df7414610c4257600080fd5b8063db4b9b6c14610b6c578063df79823514610b75578063e407724414610b88578063e985e9c514610b91578063eace48cb14610bcd57600080fd5b8063c36ace5a11610115578063c36ace5a14610af3578063cb1ca66314610b13578063d05df8d714610b26578063d824559014610b39578063d828d51614610b4c57600080fd5b8063b390c0ab14610aa8578063b948843014610abb578063bbcd5bbe14610ac4578063bef704ff14610ad7578063c004d49814610aea57600080fd5b8063a2e3d9e3116101df578063a971ea06116101a3578063a971ea0614610a2f578063abaf764814610a42578063ad0d052414610a55578063ae910f5f14610a75578063af1d5f0914610a9557600080fd5b8063a2e3d9e314610930578063a47f3b701461093a578063a491445b1461094d578063a686eb5f1461096d578063a7757c9c1461098057600080fd5b80638933fb85116102265780638933fb85146108bd5780638da5cb5b146108d05780639dd1e9d0146108e1578063a0becea01461090a578063a22cb4651461091d57600080fd5b8063715018a61461082d57806371c10cae14610835578063754b069f14610884578063772638741461089757806380ee4460146108aa57600080fd5b80634b56a7071161037e578063620dee42116102fb5780636a85a2fb116102bf5780636a85a2fb146107d95780636cbc168c146107ec57806370480275146107ff57806370a082311461081257806370fde7e01461082557600080fd5b8063620dee421461070f5780636352211e14610718578063640906151461075457806367a46f731461076757806369dc9ff31461078757600080fd5b806355f804b31161034257806355f804b3146106bb5780635d1b45b5146106ce5780635dbe4756146106d65780635f539d69146106e95780636154ec1d146106fc57600080fd5b80634b56a7071461065f5780634e1273f41461067257806354fa7b6e14610692578063552c5b3c146106a557806355c0beaa146106b257600080fd5b806324d16a1c1161040c57806336d814ff116103d057806336d814ff146105f35780633b091756146106145780633b6e8919146106265780633ddb9e8514610639578063404cbffb1461064c57600080fd5b806324d16a1c1461058657806329d36a5b1461058f5780632bc61549146105a25780632eb2c2d6146105cd578063369e0e09146105e057600080fd5b80631324b10f116104535780631324b10f1461052057806314887c58146105295780631506a40c14610558578063156e29f6146105605780631785f53c1461057357600080fd5b8062fdd58e1461048f57806301ffc9a7146104b5578063046dc166146104d85780630e89341c146104ed578063106cffe21461050d575b600080fd5b6104a261049d366004614a17565b610c55565b6040519081526020015b60405180910390f35b6104c86104c3366004614a57565b610cef565b60405190151581526020016104ac565b6104eb6104e6366004614a74565b610d3f565b005b6105006104fb366004614a8f565b610d8b565b6040516104ac9190614b04565b6104a261051b366004614a74565b610e64565b6104a260085481565b6104c8610537366004614a74565b6001600160a01b03166000908152601c602052604090206002015460ff1690565b6104eb610e82565b6104eb61056e366004614b17565b610ec0565b6104eb610581366004614a74565b610f76565b6104a2600b5481565b6104eb61059d366004614a8f565b611007565b6105b56105b0366004614b8b565b611036565b6040516001600160a01b0390911681526020016104ac565b6104eb6105db366004614d80565b611096565b6104a26105ee366004614a8f565b61112d565b610606610601366004614a8f565b6111a5565b6040516104ac929190614e9d565b6007546104c890610100900460ff1681565b6104eb610634366004614ecb565b611380565b6011546105b5906001600160a01b031681565b6105b561065a366004614a8f565b61167f565b6104eb61066d366004614a8f565b6116a9565b610685610680366004614eed565b6116d8565b6040516104ac9190614fb7565b6104eb6106a0366004614fca565b611801565b6007546104c89060ff1681565b6104a2600a5481565b6104eb6106c9366004615020565b611ae1565b601d546104a2565b6104eb6106e4366004615068565b611b22565b6104eb6106f7366004614a74565b611db4565b6104a261070a366004614a8f565b611e1e565b6104a2600c5481565b6105b5610726366004614a8f565b6011546001600160a01b039081166000908152601f6020908152604080832094835293905291909120541690565b6104eb610762366004614a8f565b611e90565b6104a2610775366004614a8f565b60146020526000908152604090205481565b6107ba610795366004614a74565b60216020526000908152604090205460ff81169061010090046001600160a01b031682565b6040805192151583526001600160a01b039091166020830152016104ac565b6010546105b5906001600160a01b031681565b6104eb6107fa366004614a8f565b611ebf565b6104eb61080d366004614a74565b611eee565b6104a2610820366004614a74565b611f82565b6104a2611fbc565b6104eb611fd9565b610867610843366004614a74565b601c6020526000908152604090208054600182015460029092015490919060ff1683565b6040805193845260208401929092521515908201526060016104ac565b6106856108923660046150ab565b61200f565b6104c86108a5366004614a74565b612103565b6012546105b5906001600160a01b031681565b6104eb6108cb366004614a74565b61215e565b6003546001600160a01b03166105b5565b6105b56108ef366004614a8f565b6015602052600090815260409020546001600160a01b031681565b6104c8610918366004614b17565b6121aa565b6104eb61092b3660046150ec565b61220e565b6006546104a29081565b6104a2610948366004614a8f565b612219565b61096061095b366004614a8f565b61223e565b6040516104ac9190615123565b6104a261097b366004614a17565b612369565b6109e361098e366004614a74565b60186020526000908152604090208054600182015460028301546003840154600485015460058601546006870154600788015460089098015496979596949593946001600160a01b0390931693919290919089565b60408051998a5260208a01989098529688019590955260608701939093526001600160a01b03909116608086015260a085015260c084015260e0830152610100820152610120016104ac565b6104eb610a3d3660046150ec565b6123bb565b6104eb610a50366004614a8f565b612485565b6104a2610a63366004614a74565b60196020526000908152604090205481565b6104a2610a83366004614a8f565b60166020526000908152604090205481565b6104eb610aa3366004614a8f565b612702565b6104eb610ab6366004614ecb565b612863565b6104a2600e5481565b6104eb610ad2366004614a74565b612949565b6104eb610ae5366004614a8f565b612995565b6104a2600d5481565b6104a2610b01366004614a74565b601a6020526000908152604090205481565b6104eb610b21366004614a8f565b6129c4565b6104eb610b34366004615136565b612a3a565b6104eb610b47366004614a8f565b612f5c565b6104a2610b5a366004614a74565b601b6020526000908152604090205481565b6104a2600f5481565b6104eb610b83366004614a8f565b612f8b565b6104a260095481565b6104c8610b9f3660046150ab565b6001600160a01b03918216600090815260016020908152604080832093909416825291909152205460ff1690565b610be0610bdb3660046150ab565b612fba565b6040516104ac9291906151b9565b6104eb610bfc366004614a74565b6131c7565b6104eb610c0f3660046151cc565b613213565b6104eb610c22366004614a74565b61329a565b6104eb613335565b610685610c3d366004614a8f565b61337c565b6104a2610c50366004614a8f565b61345f565b60006001600160a01b038316610cc65760405162461bcd60e51b815260206004820152602b60248201527f455243313135353a2062616c616e636520717565727920666f7220746865207a60448201526a65726f206164647265737360a81b60648201526084015b60405180910390fd5b506000818152602081815260408083206001600160a01b03861684529091529020545b92915050565b60006001600160e01b03198216636cdb3d1360e11b1480610d2057506001600160e01b031982166303a24d0760e21b145b80610ce957506301ffc9a760e01b6001600160e01b0319831614610ce9565b6003546001600160a01b03163314610d695760405162461bcd60e51b8152600401610cbd90615230565b601780546001600160a01b0319166001600160a01b0392909216919091179055565b6060600060058054610d9c90615265565b905011610e335760058054610db090615265565b80601f0160208091040260200160405190810160405280929190818152602001828054610ddc90615265565b8015610e295780601f10610dfe57610100808354040283529160200191610e29565b820191906000526020600020905b815481529060010190602001808311610e0c57829003601f168201915b5050505050610ce9565b6005610e3e836134ce565b604051602001610e4f9291906152bc565b60405160208183030381529060405292915050565b6001600160a01b038116600090815260226020526040812054610ce9565b6003546001600160a01b03163314610eac5760405162461bcd60e51b8152600401610cbd90615230565b6007805460ff19811660ff90911615179055565b3360009081526013602052604090205460ff16610f0e5760405162461bcd60e51b815260206004820152600c60248201526b41646d696e73206f6e6c792160a01b6044820152606401610cbd565b604080518281526001600160a01b0385163281146020830152849290917f69dff97591dfad68d690a0deccd16ef2aaf0b65205732bf647a9e5b129b77099910160405180910390a3610f71838383604051806020016040528060008152506135d3565b505050565b6003546001600160a01b03163314610fa05760405162461bcd60e51b8152600401610cbd90615230565b6001600160a01b038116610fe65760405162461bcd60e51b815260206004820152600d60248201526c656d707479206164647265737360981b6044820152606401610cbd565b6001600160a01b03166000908152601360205260409020805460ff19169055565b6003546001600160a01b031633146110315760405162461bcd60e51b8152600401610cbd90615230565b600855565b600061108761104b8c8c8c8c8c8c8c8c6136e3565b84848080601f01602080910402602001604051908101604052809392919081815260200183838082843760009201919091525061378692505050565b9b9a5050505050505050505050565b6001600160a01b0385163314806110b257506110b28533610b9f565b6111195760405162461bcd60e51b815260206004820152603260248201527f455243313135353a207472616e736665722063616c6c6572206973206e6f74206044820152711bdddb995c881b9bdc88185c1c1c9bdd995960721b6064820152608401610cbd565b61112685858585856137a2565b5050505050565b6000808211801561113e5750600482105b61115a5760405162461bcd60e51b8152600401610cbd9061535a565b6000805b60065481101561119e5760008181526016602052604090205484141561118c57816111888161539e565b9250505b806111968161539e565b91505061115e565b5092915050565b60608060006111b384611e1e565b90506000816001600160401b038111156111cf576111cf614c2d565b6040519080825280602002602001820160405280156111f8578160200160208202803683370190505b5090506000826001600160401b0381111561121557611215614c2d565b60405190808252806020026020018201604052801561123e578160200160208202803683370190505b5090506000805b601d548110156113735787601c6000601d8481548110611267576112676153b9565b60009182526020808320909101546001600160a01b03168352820192909252604001902054141561136157601d81815481106112a5576112a56153b9565b9060005260206000200160009054906101000a90046001600160a01b03168483815181106112d5576112d56153b9565b60200260200101906001600160a01b031690816001600160a01b031681525050601c6000601d838154811061130c5761130c6153b9565b60009182526020808320909101546001600160a01b031683528201929092526040019020600101548351849084908110611348576113486153b9565b60209081029190910101528161135d8161539e565b9250505b8061136b8161539e565b915050611245565b5091969095509350505050565b600260045414156113a35760405162461bcd60e51b8152600401610cbd906153cf565b6002600455600754610100900460ff166113f55760405162461bcd60e51b81526020600482015260136024820152721999585d1d5c99481b9bdd08195b98589b1959606a1b6044820152606401610cbd565b6000811180156114055750600481105b6114215760405162461bcd60e51b8152600401610cbd9061535a565b600082118015611432575060065482105b61146d5760405162461bcd60e51b815260206004820152600c60248201526b34b73b30b634b21031b630b760a11b6044820152606401610cbd565b6000828152601660205260409020548114156114d75760405162461bcd60e51b815260206004820152602360248201527f636c616e20616c72656164792062656c6f6e677320746f207468697320636f6c6044820152626f6e7960e81b6064820152608401610cbd565b600082815260166020526040812054906114f08261112d565b9050600e5481116115535760405162461bcd60e51b815260206004820152602760248201527f636f6c6f6e79206e6565647320746f2068617665206174206c6561737420736f60448201526636b29031b630b760c91b6064820152608401610cbd565b3360009081526013602052604090205460ff16611637576000848152601560205260409020546001600160a01b031633146115c35760405162461bcd60e51b815260206004820152601060248201526f636c616e206c6561646572206f6e6c7960801b6044820152606401610cbd565b6012546001600160a01b0316639dc29fac33600b546040516001600160e01b031960e085901b1681526001600160a01b0390921660048301526024820152604401600060405180830381600087803b15801561161e57600080fd5b505af1158015611632573d6000803e3d6000fd5b505050505b6040518390859033907f11e18d222af18722d0ce2b9363cf0777a37b4de62d4bac0494bf9a9e9137138890600090a45050600091825260166020526040909120556001600455565b601d818154811061168f57600080fd5b6000918252602090912001546001600160a01b0316905081565b6003546001600160a01b031633146116d35760405162461bcd60e51b8152600401610cbd90615230565b600e55565b6060815183511461173d5760405162461bcd60e51b815260206004820152602960248201527f455243313135353a206163636f756e747320616e6420696473206c656e677468604482015268040dad2e6dac2e8c6d60bb1b6064820152608401610cbd565b600083516001600160401b0381111561175857611758614c2d565b604051908082528060200260200182016040528015611781578160200160208202803683370190505b50905060005b84518110156117f9576117cc8582815181106117a5576117a56153b9565b60200260200101518583815181106117bf576117bf6153b9565b6020026020010151610c55565b8282815181106117de576117de6153b9565b60209081029190910101526117f28161539e565b9050611787565b509392505050565b61183360226000335b6001600160a01b03166001600160a01b0316815260200190815260200160002080546001019055565b600260045414156118565760405162461bcd60e51b8152600401610cbd906153cf565b60026004556001600160a01b0383166000908152602160205260409020805460ff166118c45760405162461bcd60e51b815260206004820152601c60248201527f746f6b656e20636f6e7472616374206973206e6f7420616374697665000000006044820152606401610cbd565b6118cd33612103565b1561193057336000908152601c602052604090205482146119305760405162461bcd60e51b815260206004820152601f60248201527f636c616e206c65616465722063616e27742073776974636820636c616e7321006044820152606401610cbd565b61193a3383613985565b60005b8351811015611ad557600084828151811061195a5761195a6153b9565b6020026020010151905061196b3390565b6001600160a01b038781166000908152601f60209081526040808320868452909152902080546001600160a01b0319169282169290921790915583546101009004166323b872dd336040516001600160e01b031960e084901b1681526001600160a01b03909116600482015230602482015260448101849052606401600060405180830381600087803b158015611a0157600080fd5b505af1158015611a15573d6000803e3d6000fd5b5050506001600160a01b0387166000908152601e60205260408120611a5d92508391611a3e3390565b6001600160a01b03168152602081019190915260400160002090613b88565b506001600160a01b03861660008181526020808052604080832085845282529182902042905581518481529081019290925233828201525185917ff7373f56c201647feae85a62d3cf56286ed3a43d20c5eb7f9883d6ea690ef7c0919081900360600190a25080611acd8161539e565b91505061193d565b50506001600455505050565b6003546001600160a01b03163314611b0b5760405162461bcd60e51b8152600401610cbd90615230565b8051611b1e906005906020840190614962565b5050565b611b2f602260003361180a565b81611b3b602382613b94565b611b575760405162461bcd60e51b8152600401610cbd90615406565b60026004541415611b7a5760405162461bcd60e51b8152600401610cbd906153cf565b60026004556001600160a01b0383166000908152602160205260408120905b8351811015611ad5576000848281518110611bb657611bb66153b9565b60200260200101519050611c1181601e6000896001600160a01b03166001600160a01b031681526020019081526020016000206000611bf23390565b6001600160a01b03168152602081019190915260400160002090613bb6565b611c535760405162461bcd60e51b81526020600482015260136024820152721d1bdad95b881a5cc81b9bdd081cdd185ad959606a1b6044820152606401610cbd565b6001600160a01b038681166000908152601f60209081526040808320858452909152902080546001600160a01b031916905583546101009004166323b872dd30336040516001600160e01b031960e085901b1681526001600160a01b0392831660048201529116602482015260448101849052606401600060405180830381600087803b158015611ce357600080fd5b505af1158015611cf7573d6000803e3d6000fd5b5050506001600160a01b0387166000908152601e60205260408120611d3f92508391611d203390565b6001600160a01b03168152602081019190915260400160002090613bce565b506001600160a01b0386166000818152602080805260408083208584528252808320929092558151848152908101929092523382820152517fda7b3993b5962cc80555cf305cbd92948048874e1a76a22272bdaaff09baeb659181900360600190a15080611dac8161539e565b915050611b99565b6003546001600160a01b03163314611dde5760405162461bcd60e51b8152600401610cbd90615230565b6001600160a01b038116600081815260216020526040902080546101009092026001600160a81b0319909216919091176001179055611b1e60238261349e565b600080805b601d5481101561119e5783601c6000601d8481548110611e4557611e456153b9565b60009182526020808320909101546001600160a01b031683528201929092526040019020541415611e7e5781611e7a8161539e565b9250505b80611e888161539e565b915050611e23565b6003546001600160a01b03163314611eba5760405162461bcd60e51b8152600401610cbd90615230565b600d55565b6003546001600160a01b03163314611ee95760405162461bcd60e51b8152600401610cbd90615230565b600b55565b6003546001600160a01b03163314611f185760405162461bcd60e51b8152600401610cbd90615230565b6001600160a01b038116611f5e5760405162461bcd60e51b815260206004820152600d60248201526c656d707479206164647265737360981b6044820152606401610cbd565b6001600160a01b03166000908152601360205260409020805460ff19166001179055565b6011546001600160a01b039081166000908152601e602090815260408083209385168352929052908120611fb581613bda565b9392505050565b6000600a54611fca60065490565b611fd4919061543d565b905090565b6003546001600160a01b031633146120035760405162461bcd60e51b8152600401610cbd90615230565b61200d6000613be4565b565b60608261201d602382613b94565b6120395760405162461bcd60e51b8152600401610cbd90615406565b6001600160a01b038085166000908152601e6020908152604080832093871683529290529081209061206a82613bda565b6001600160401b0381111561208157612081614c2d565b6040519080825280602002602001820160405280156120aa578160200160208202803683370190505b50905060005b6120b983613bda565b8110156120f9576120ca8382613c36565b8282815181106120dc576120dc6153b9565b6020908102919091010152806120f18161539e565b9150506120b0565b5095945050505050565b6001600160a01b0381166000908152601c602052604081206002015460ff161561215657506001600160a01b039081166000818152601c6020908152604080832054835260159091529020549091161490565b506000919050565b6003546001600160a01b031633146121885760405162461bcd60e51b8152600401610cbd90615230565b601180546001600160a01b0319166001600160a01b0392909216919091179055565b6000828152601560205260408120546001600160a01b03858116911614156121d457506000611fb5565b6001600160a01b0384166000908152601c602052604090205483146121fb57506000611fb5565b6122048361345f565b9091119392505050565b611b1e338383613c42565b6000600d5461222783611e1e565b612231919061543d565b600c54610ce9919061545c565b6060600061224b83611e1e565b90506000816001600160401b0381111561226757612267614c2d565b604051908082528060200260200182016040528015612290578160200160208202803683370190505b5090506000805b601d5481101561235f5785601c6000601d84815481106122b9576122b96153b9565b60009182526020808320909101546001600160a01b03168352820192909252604001902054141561234d57601d81815481106122f7576122f76153b9565b9060005260206000200160009054906101000a90046001600160a01b0316838381518110612327576123276153b9565b6001600160a01b0390921660209283029190910190910152816123498161539e565b9250505b806123578161539e565b915050612297565b5090949350505050565b600082612377602382613b94565b6123935760405162461bcd60e51b8152600401610cbd90615406565b50506001600160a01b0391909116600090815260208080526040808320938352929052205490565b6003546001600160a01b031633146123e55760405162461bcd60e51b8152600401610cbd90615230565b816123f1602382613b94565b61240d5760405162461bcd60e51b8152600401610cbd90615406565b612418602384613b94565b6124595760405162461bcd60e51b815260206004820152601260248201527118dbdb9d1c9858dd081b9bdd08185919195960721b6044820152606401610cbd565b506001600160a01b03919091166000908152602160205260409020805460ff1916911515919091179055565b600260045414156124a85760405162461bcd60e51b8152600401610cbd906153cf565b600260045560075460ff166124f55760405162461bcd60e51b81526020600482015260136024820152721999585d1d5c99481b9bdd08195b98589b1959606a1b6044820152606401610cbd565b6000811180156125055750600481105b6125215760405162461bcd60e51b8152600401610cbd9061535a565b61252a33612103565b156125815760405162461bcd60e51b815260206004820152602160248201527f636c616e206c65616465722063616e277420637265617465206e657720636c616044820152603760f91b6064820152608401610cbd565b3360009081526013602052604090205460ff16612668576125a133610537565b6125e15760405162461bcd60e51b815260206004820152601160248201527036bab9ba1031329034b710309031b630b760791b6044820152606401610cbd565b60006125eb611fbc565b90508015612666576012546001600160a01b0316639dc29fac336040516001600160e01b031960e084901b1681526001600160a01b03909116600482015260248101849052604401600060405180830381600087803b15801561264d57600080fd5b505af1158015612661573d6000803e3d6000fd5b505050505b505b600061267360065490565b60008181526016602052604090208390559050612694600680546001019055565b6040518290829033907f098df9d435f5abb718c2804ce7d7b6550ff16ebbabc96ba0da01d4860e2c4b6590600090a4336000818152601c602090815260408083208581554260019091015560085481519283019091529181526126f9929184916135d3565b50506001600455565b6003546001600160a01b0316331461272c5760405162461bcd60e51b8152600401610cbd90615230565b6012546040516370a0823160e01b81523060048201526001600160a01b03909116906370a0823190602401602060405180830381865afa158015612774573d6000803e3d6000fd5b505050506040513d601f19601f820116820180604052508101906127989190615474565b8111156127e05760405162461bcd60e51b8152602060048201526016602482015275616d6f756e7420657863656564732062616c616e636560501b6044820152606401610cbd565b6012546001600160a01b031663a9059cbb336040516001600160e01b031960e084901b1681526001600160a01b039091166004820152602481018490526044016020604051808303816000875af115801561283f573d6000803e3d6000fd5b505050506040513d601f19601f82011682018060405250810190611b1e919061548d565b3360009081526013602052604090205460ff166128b15760405162461bcd60e51b815260206004820152600c60248201526b41646d696e73206f6e6c792160a01b6044820152606401610cbd565b6128bb3283610c55565b6129075760405162461bcd60e51b815260206004820152601760248201527f4f6f707320796f7520646f6e2774206f776e20746861740000000000000000006044820152606401610cbd565b604051818152829032907f23ff0e75edf108e3d0392d92e13e8c8a868ef19001bd49f9e94876dc46dff87f9060200160405180910390a3611b1e328383613d23565b6003546001600160a01b031633146129735760405162461bcd60e51b8152600401610cbd90615230565b601280546001600160a01b0319166001600160a01b0392909216919091179055565b6003546001600160a01b031633146129bf5760405162461bcd60e51b8152600401610cbd90615230565b600c55565b6003546001600160a01b031633146129ee5760405162461bcd60e51b8152600401610cbd90615230565b600060095411612a355760405162461bcd60e51b815260206004820152601260248201527156616c7565206c6f776572207468656e203160701b6044820152606401610cbd565b600955565b60026004541415612a5d5760405162461bcd60e51b8152600401610cbd906153cf565b600260045587612a9d5760405162461bcd60e51b815260206004820152600b60248201526a656d70747920636c61696d60a81b6044820152606401610cbd565b612ab7338989898989612aaf33610e64565b8a8a8a611036565b6017546001600160a01b03908116911614612b085760405162461bcd60e51b8152602060048201526011602482015270696e76616c6964207369676e617475726560781b6044820152606401610cbd565b600f5415612b5d57600f54612b1d90426154aa565b8311612b5d5760405162461bcd60e51b815260206004820152600f60248201526e1cd95cdcda5bdb88195e1c1a5c9959608a1b6044820152606401610cbd565b6012546001600160a01b03166321670f2233612b818b670de0b6b3a764000061543d565b6040516001600160e01b031960e085901b1681526001600160a01b0390921660048301526024820152604401600060405180830381600087803b158015612bc757600080fd5b505af1158015612bdb573d6000803e3d6000fd5b50505050612bed6022600061180a3390565b336000818152601c6020908152604091829020548251610120810184528c81529182018b9052918101829052606081018990526001600160a01b038816608082015260a08101879052909160c0820190612c4690610e64565b81526020018581526020014281525060186000612c603390565b6001600160a01b03908116825260208083019390935260409182016000908120855181558585015160018201558584015160028201556060860151600382015560808601516004820180546001600160a01b031916919094161790925560a0850151600583015560c0850151600683015560e08501516007830155610100909401516008909101553383526019909152902054612cfe908a9061545c565b336000908152601960205260409020558715612de5576012546010546001600160a01b039182169163e69d849d9116612d3f8b670de0b6b3a764000061543d565b6040516001600160e01b031960e085901b1681526001600160a01b0390921660048301526024820152604401600060405180830381600087803b158015612d8557600080fd5b505af1158015612d99573d6000803e3d6000fd5b5050505087601a6000612da93390565b6001600160a01b03166001600160a01b0316815260200190815260200160002054612dd4919061545c565b336000908152601a60205260409020555b6001600160a01b03861615801590612dfd5750600085115b15612e85576012546001600160a01b031663d9b5778987612e2688670de0b6b3a764000061543d565b6040516001600160e01b031960e085901b1681526001600160a01b0390921660048301526024820152604401600060405180830381600087803b158015612e6c57600080fd5b505af1158015612e80573d6000803e3d6000fd5b505050505b600081118015612e96575060065481105b8015612ea25750600087115b15612eee57612ec2338289604051806020016040528060008152506135d3565b336000908152601b6020526040902054612edd90889061545c565b336000908152601b60205260409020555b604080518a8152602081018a9052808201899052606081018790526080810186905290516001600160a01b03881691839133917ffdeb11e92ba41fbc0a90341ff28c438012e6a3e840c45400a9ada007a4f2d33c919081900360a00190a45050600160045550505050505050565b6003546001600160a01b03163314612f865760405162461bcd60e51b8152600401610cbd90615230565b600f55565b6003546001600160a01b03163314612fb55760405162461bcd60e51b8152600401610cbd90615230565b600a55565b60608083612fc9602382613b94565b612fe55760405162461bcd60e51b8152600401610cbd90615406565b6001600160a01b038086166000908152601e6020908152604080832093881683529290529081209061301682613bda565b6001600160401b0381111561302d5761302d614c2d565b604051908082528060200260200182016040528015613056578160200160208202803683370190505b509050600061306483613bda565b6001600160401b0381111561307b5761307b614c2d565b6040519080825280602002602001820160405280156130a4578160200160208202803683370190505b506001600160a01b0388166000908152601860205260408120600701549192505b6130ce85613bda565b8110156131b85760006130e18683613c36565b6001600160a01b038c1660009081526020808052604080832084845290915290205486519192509086908490811061311b5761311b6153b9565b602002602001018181525050848281518110613139576131396153b9565b602002602001015183111561316c578284838151811061315b5761315b6153b9565b6020026020010181815250506131a5565b84828151811061317e5761317e6153b9565b6020026020010151848381518110613198576131986153b9565b6020026020010181815250505b50806131b08161539e565b9150506130c5565b50919890975095505050505050565b6003546001600160a01b031633146131f15760405162461bcd60e51b8152600401610cbd90615230565b601080546001600160a01b0319166001600160a01b0392909216919091179055565b6001600160a01b03851633148061322f575061322f8533610b9f565b61328d5760405162461bcd60e51b815260206004820152602960248201527f455243313135353a2063616c6c6572206973206e6f74206f776e6572206e6f7260448201526808185c1c1c9bdd995960ba1b6064820152608401610cbd565b6111268585858585613e9c565b6003546001600160a01b031633146132c45760405162461bcd60e51b8152600401610cbd90615230565b6001600160a01b0381166133295760405162461bcd60e51b815260206004820152602660248201527f4f776e61626c653a206e6577206f776e657220697320746865207a65726f206160448201526564647265737360d01b6064820152608401610cbd565b61333281613be4565b50565b6003546001600160a01b0316331461335f5760405162461bcd60e51b8152600401610cbd90615230565b6007805461ff001981166101009182900460ff1615909102179055565b606060008211801561338e5750600482105b6133aa5760405162461bcd60e51b8152600401610cbd9061535a565b60006133b58361112d565b90506000816001600160401b038111156133d1576133d1614c2d565b6040519080825280602002602001820160405280156133fa578160200160208202803683370190505b5090506000805b60065481101561235f5760008181526016602052604090205486141561344d5780838381518110613434576134346153b9565b6020908102919091010152816134498161539e565b9250505b806134578161539e565b915050613401565b600060646009546064613472919061545c565b60008481526014602052604090205461348b919061543d565b610ce991906154d7565b80546001019055565b6000611fb5836001600160a01b038416613fb9565b5490565b505050505050565b6001600160a01b03163b151590565b6060816134f25750506040805180820190915260018152600360fc1b602082015290565b8160005b811561351c57806135068161539e565b91506135159050600a836154d7565b91506134f6565b6000816001600160401b0381111561353657613536614c2d565b6040519080825280601f01601f191660200182016040528015613560576020820181803683370190505b5090505b84156135cb576135756001836154aa565b9150613582600a866154eb565b61358d90603061545c565b60f81b8183815181106135a2576135a26153b9565b60200101906001600160f81b031916908160001a9053506135c4600a866154d7565b9450613564565b949350505050565b6001600160a01b0384166136335760405162461bcd60e51b815260206004820152602160248201527f455243313135353a206d696e7420746f20746865207a65726f206164647265736044820152607360f81b6064820152608401610cbd565b336136538160008761364488614008565b61364d88614008565b87614053565b6000848152602081815260408083206001600160a01b03891684529091528120805485929061368390849061545c565b909155505060408051858152602081018590526001600160a01b0380881692600092918516917fc3d58168c5ae7397731d063d5bbf3d657854427343f4c083240f7aacaa2d0f62910160405180910390a461112681600087878787614165565b604080517f90b2ccba250cd548893316a97144625f4b7fdd7df41e4de2cf98a6ef077987b960208201526001600160a01b03808b1692820192909252606081018990526080810188905260a0810187905290851660c082015260e08101849052610100810183905261012081018290526000906137799061014001604051602081830303815290604052805190602001206142c1565b9998505050505050505050565b6000806000613795858561430f565b915091506117f98161437f565b81518351146138045760405162461bcd60e51b815260206004820152602860248201527f455243313135353a2069647320616e6420616d6f756e7473206c656e677468206044820152670dad2e6dac2e8c6d60c31b6064820152608401610cbd565b6001600160a01b03841661382a5760405162461bcd60e51b8152600401610cbd906154ff565b33613839818787878787614053565b60005b845181101561391f576000858281518110613859576138596153b9565b602002602001015190506000858381518110613877576138776153b9565b602090810291909101810151600084815280835260408082206001600160a01b038e1683529093529190912054909150818110156138c75760405162461bcd60e51b8152600401610cbd90615544565b6000838152602081815260408083206001600160a01b038e8116855292528083208585039055908b1682528120805484929061390490849061545c565b92505081905550505050806139189061539e565b905061383c565b50846001600160a01b0316866001600160a01b0316826001600160a01b03167f4a39dc06d4c0dbc64b70af90fd698a233a518aa5d07e595d983b8c0526c8f7fb878760405161396f9291906151b9565b60405180910390a46134b781878787878761453a565b600081118015613996575060065481105b6139d15760405162461bcd60e51b815260206004820152600c60248201526b34b73b30b634b21031b630b760a11b6044820152606401610cbd565b6001600160a01b0382166000908152601c602052604090206002015460ff1615613b11576001600160a01b0382166000908152601c60205260409020548114611b1e576000613a1f82612219565b90508015613a9a576012546001600160a01b0316639dc29fac336040516001600160e01b031960e084901b1681526001600160a01b03909116600482015260248101849052604401600060405180830381600087803b158015613a8157600080fd5b505af1158015613a95573d6000803e3d6000fd5b505050505b6001600160a01b0383166000818152601c60209081526040918290205491518481528593917f128f8187fdb209b274c54d01b145ffae6942993c055272a988ec0c86d9432dab910160405180910390a4506001600160a01b0382166000908152601c60205260409020818155426001909101555050565b6001600160a01b0382166000818152601c60205260408120838155426001808301919091556002909101805460ff191682179055601d805491820181559091527f6d4407e7be21f808e6509aa9fa9143369579dd7d760fe20a2c09680fc146134f0180546001600160a01b03191690911790555050565b6000611fb58383613fb9565b6001600160a01b03811660009081526001830160205260408120541515611fb5565b60008181526001830160205260408120541515611fb5565b6000611fb583836145f5565b6000610ce9825490565b600380546001600160a01b038381166001600160a01b0319831681179093556040519116919082907f8be0079c531659141344cd1fd0a4f28419497f9722a3daafe3b4186f6b6457e090600090a35050565b6000611fb583836146e8565b816001600160a01b0316836001600160a01b03161415613cb65760405162461bcd60e51b815260206004820152602960248201527f455243313135353a2073657474696e6720617070726f76616c20737461747573604482015268103337b91039b2b63360b91b6064820152608401610cbd565b6001600160a01b03838116600081815260016020908152604080832094871680845294825291829020805460ff191686151590811790915591519182527f17307eab39ab6107e8899845ad3d59bd9653f200f220920489ca2b5937696c31910160405180910390a3505050565b6001600160a01b038316613d855760405162461bcd60e51b815260206004820152602360248201527f455243313135353a206275726e2066726f6d20746865207a65726f206164647260448201526265737360e81b6064820152608401610cbd565b33613db481856000613d9687614008565b613d9f87614008565b60405180602001604052806000815250614053565b6000838152602081815260408083206001600160a01b038816845290915290205482811015613e315760405162461bcd60e51b8152602060048201526024808201527f455243313135353a206275726e20616d6f756e7420657863656564732062616c604482015263616e636560e01b6064820152608401610cbd565b6000848152602081815260408083206001600160a01b03898116808652918452828520888703905582518981529384018890529092908616917fc3d58168c5ae7397731d063d5bbf3d657854427343f4c083240f7aacaa2d0f62910160405180910390a45050505050565b6001600160a01b038416613ec25760405162461bcd60e51b8152600401610cbd906154ff565b33613ed281878761364488614008565b6000848152602081815260408083206001600160a01b038a16845290915290205483811015613f135760405162461bcd60e51b8152600401610cbd90615544565b6000858152602081815260408083206001600160a01b038b8116855292528083208785039055908816825281208054869290613f5090849061545c565b909155505060408051868152602081018690526001600160a01b03808916928a821692918616917fc3d58168c5ae7397731d063d5bbf3d657854427343f4c083240f7aacaa2d0f62910160405180910390a4613fb0828888888888614165565b50505050505050565b600081815260018301602052604081205461400057508154600181810184556000848152602080822090930184905584548482528286019093526040902091909155610ce9565b506000610ce9565b60408051600180825281830190925260609160009190602080830190803683370190505090508281600081518110614042576140426153b9565b602090810291909101015292915050565b60005b835181101561415f576000848281518110614073576140736153b9565b602002602001015190506000848381518110614091576140916153b9565b60200260200101516140a38884610c55565b6140ad919061545c565b90506140ba8783836121aa565b1561414c576000828152601560209081526040918290205491518381526001600160a01b03928316928592908b169184917fe5de49455cbc88f3dd9d0d5cb562cc7e6513716e573a5be2023a8b3a42a733ee910160405180910390a45060008281526014602090815260408083208490556015909152902080546001600160a01b0319166001600160a01b0389161790555b5050806141589061539e565b9050614056565b506134b7565b6001600160a01b0384163b156134b75760405163f23a6e6160e01b81526001600160a01b0385169063f23a6e61906141a9908990899088908890889060040161558e565b6020604051808303816000875af19250505080156141e4575060408051601f3d908101601f191682019092526141e1918101906155d3565b60015b614291576141f06155f0565b806308c379a0141561422a575061420561560b565b80614210575061422c565b8060405162461bcd60e51b8152600401610cbd9190614b04565b505b60405162461bcd60e51b815260206004820152603460248201527f455243313135353a207472616e7366657220746f206e6f6e20455243313135356044820152732932b1b2b4bb32b91034b6b83632b6b2b73a32b960611b6064820152608401610cbd565b6001600160e01b0319811663f23a6e6160e01b14613fb05760405162461bcd60e51b8152600401610cbd90615694565b6000610ce96142ce614712565b8360405161190160f01b6020820152602281018390526042810182905260009060620160405160208183030381529060405280519060200120905092915050565b6000808251604114156143465760208301516040840151606085015160001a61433a8782858561483c565b94509450505050614378565b8251604014156143705760208301516040840151614365868383614929565b935093505050614378565b506000905060025b9250929050565b6000816004811115614393576143936156dc565b141561439c5750565b60018160048111156143b0576143b06156dc565b14156143fe5760405162461bcd60e51b815260206004820152601860248201527f45434453413a20696e76616c6964207369676e617475726500000000000000006044820152606401610cbd565b6002816004811115614412576144126156dc565b14156144605760405162461bcd60e51b815260206004820152601f60248201527f45434453413a20696e76616c6964207369676e6174757265206c656e677468006044820152606401610cbd565b6003816004811115614474576144746156dc565b14156144cd5760405162461bcd60e51b815260206004820152602260248201527f45434453413a20696e76616c6964207369676e6174757265202773272076616c604482015261756560f01b6064820152608401610cbd565b60048160048111156144e1576144e16156dc565b14156133325760405162461bcd60e51b815260206004820152602260248201527f45434453413a20696e76616c6964207369676e6174757265202776272076616c604482015261756560f01b6064820152608401610cbd565b6001600160a01b0384163b156134b75760405163bc197c8160e01b81526001600160a01b0385169063bc197c819061457e90899089908890889088906004016156f2565b6020604051808303816000875af19250505080156145b9575060408051601f3d908101601f191682019092526145b6918101906155d3565b60015b6145c5576141f06155f0565b6001600160e01b0319811663bc197c8160e01b14613fb05760405162461bcd60e51b8152600401610cbd90615694565b600081815260018301602052604081205480156146de5760006146196001836154aa565b855490915060009061462d906001906154aa565b905081811461469257600086600001828154811061464d5761464d6153b9565b9060005260206000200154905080876000018481548110614670576146706153b9565b6000918252602080832090910192909255918252600188019052604090208390555b85548690806146a3576146a3615750565b600190038181906000526020600020016000905590558560010160008681526020019081526020016000206000905560019350505050610ce9565b6000915050610ce9565b60008260000182815481106146ff576146ff6153b9565b9060005260206000200154905092915050565b6000306001600160a01b037f00000000000000000000000000000000000000000000000000000000000000001614801561476b57507f000000000000000000000000000000000000000000000000000000000000000046145b1561479557507f000000000000000000000000000000000000000000000000000000000000000090565b50604080517f00000000000000000000000000000000000000000000000000000000000000006020808301919091527f0000000000000000000000000000000000000000000000000000000000000000828401527f000000000000000000000000000000000000000000000000000000000000000060608301524660808301523060a0808401919091528351808403909101815260c0909201909252805191012090565b90565b6000807f7fffffffffffffffffffffffffffffff5d576e7357a4501ddfe92f46681b20a08311156148735750600090506003614920565b8460ff16601b1415801561488b57508460ff16601c14155b1561489c5750600090506004614920565b6040805160008082526020820180845289905260ff881692820192909252606081018690526080810185905260019060a0016020604051602081039080840390855afa1580156148f0573d6000803e3d6000fd5b5050604051601f1901519150506001600160a01b03811661491957600060019250925050614920565b9150600090505b94509492505050565b6000806001600160ff1b0383168161494660ff86901c601b61545c565b90506149548782888561483c565b935093505050935093915050565b82805461496e90615265565b90600052602060002090601f01602090048101928261499057600085556149d6565b82601f106149a957805160ff19168380011785556149d6565b828001600101855582156149d6579182015b828111156149d65782518255916020019190600101906149bb565b506149e29291506149e6565b5090565b5b808211156149e257600081556001016149e7565b80356001600160a01b0381168114614a1257600080fd5b919050565b60008060408385031215614a2a57600080fd5b614a33836149fb565b946020939093013593505050565b6001600160e01b03198116811461333257600080fd5b600060208284031215614a6957600080fd5b8135611fb581614a41565b600060208284031215614a8657600080fd5b611fb5826149fb565b600060208284031215614aa157600080fd5b5035919050565b60005b83811015614ac3578181015183820152602001614aab565b83811115614ad2576000848401525b50505050565b60008151808452614af0816020860160208601614aa8565b601f01601f19169290920160200192915050565b602081526000611fb56020830184614ad8565b600080600060608486031215614b2c57600080fd5b614b35846149fb565b95602085013595506040909401359392505050565b60008083601f840112614b5c57600080fd5b5081356001600160401b03811115614b7357600080fd5b60208301915083602082850101111561437857600080fd5b6000806000806000806000806000806101208b8d031215614bab57600080fd5b614bb48b6149fb565b995060208b0135985060408b0135975060608b01359650614bd760808c016149fb565b955060a08b0135945060c08b0135935060e08b013592506101008b01356001600160401b03811115614c0857600080fd5b614c148d828e01614b4a565b915080935050809150509295989b9194979a5092959850565b634e487b7160e01b600052604160045260246000fd5b601f8201601f191681016001600160401b0381118282101715614c6857614c68614c2d565b6040525050565b60006001600160401b03821115614c8857614c88614c2d565b5060051b60200190565b600082601f830112614ca357600080fd5b81356020614cb082614c6f565b604051614cbd8282614c43565b83815260059390931b8501820192828101915086841115614cdd57600080fd5b8286015b84811015614cf85780358352918301918301614ce1565b509695505050505050565b60006001600160401b03831115614d1c57614d1c614c2d565b604051614d33601f8501601f191660200182614c43565b809150838152848484011115614d4857600080fd5b83836020830137600060208583010152509392505050565b600082601f830112614d7157600080fd5b611fb583833560208501614d03565b600080600080600060a08688031215614d9857600080fd5b614da1866149fb565b9450614daf602087016149fb565b935060408601356001600160401b0380821115614dcb57600080fd5b614dd789838a01614c92565b94506060880135915080821115614ded57600080fd5b614df989838a01614c92565b93506080880135915080821115614e0f57600080fd5b50614e1c88828901614d60565b9150509295509295909350565b600081518084526020808501945080840160005b83811015614e625781516001600160a01b031687529582019590820190600101614e3d565b509495945050505050565b600081518084526020808501945080840160005b83811015614e6257815187529582019590820190600101614e81565b604081526000614eb06040830185614e29565b8281036020840152614ec28185614e6d565b95945050505050565b60008060408385031215614ede57600080fd5b50508035926020909101359150565b60008060408385031215614f0057600080fd5b82356001600160401b0380821115614f1757600080fd5b818501915085601f830112614f2b57600080fd5b81356020614f3882614c6f565b604051614f458282614c43565b83815260059390931b8501820192828101915089841115614f6557600080fd5b948201945b83861015614f8a57614f7b866149fb565b82529482019490820190614f6a565b96505086013592505080821115614fa057600080fd5b50614fad85828601614c92565b9150509250929050565b602081526000611fb56020830184614e6d565b600080600060608486031215614fdf57600080fd5b614fe8846149fb565b925060208401356001600160401b0381111561500357600080fd5b61500f86828701614c92565b925050604084013590509250925092565b60006020828403121561503257600080fd5b81356001600160401b0381111561504857600080fd5b8201601f8101841361505957600080fd5b6135cb84823560208401614d03565b6000806040838503121561507b57600080fd5b615084836149fb565b915060208301356001600160401b0381111561509f57600080fd5b614fad85828601614c92565b600080604083850312156150be57600080fd5b6150c7836149fb565b91506150d5602084016149fb565b90509250929050565b801515811461333257600080fd5b600080604083850312156150ff57600080fd5b615108836149fb565b91506020830135615118816150de565b809150509250929050565b602081526000611fb56020830184614e29565b60008060008060008060008060e0898b03121561515257600080fd5b88359750602089013596506040890135955061517060608a016149fb565b94506080890135935060a0890135925060c08901356001600160401b0381111561519957600080fd5b6151a58b828c01614b4a565b999c989b5096995094979396929594505050565b604081526000614eb06040830185614e6d565b600080600080600060a086880312156151e457600080fd5b6151ed866149fb565b94506151fb602087016149fb565b9350604086013592506060860135915060808601356001600160401b0381111561522457600080fd5b614e1c88828901614d60565b6020808252818101527f4f776e61626c653a2063616c6c6572206973206e6f7420746865206f776e6572604082015260600190565b600181811c9082168061527957607f821691505b6020821081141561529a57634e487b7160e01b600052602260045260246000fd5b50919050565b600081516152b2818560208601614aa8565b9290920192915050565b600080845481600182811c9150808316806152d857607f831692505b60208084108214156152f857634e487b7160e01b86526022600452602486fd5b81801561530c576001811461531d5761534a565b60ff1986168952848901965061534a565b60008b81526020902060005b868110156153425781548b820152908501908301615329565b505084890196505b505050505050614ec281856152a0565b60208082526014908201527337b7363c90199031b7b637b734b2b99032bb32b960611b604082015260600190565b634e487b7160e01b600052601160045260246000fd5b60006000198214156153b2576153b2615388565b5060010190565b634e487b7160e01b600052603260045260246000fd5b6020808252601f908201527f5265656e7472616e637947756172643a207265656e7472616e742063616c6c00604082015260600190565b60208082526018908201527f636f6e747261637420646f6573206e6f74206578697374730000000000000000604082015260600190565b600081600019048311821515161561545757615457615388565b500290565b6000821982111561546f5761546f615388565b500190565b60006020828403121561548657600080fd5b5051919050565b60006020828403121561549f57600080fd5b8151611fb5816150de565b6000828210156154bc576154bc615388565b500390565b634e487b7160e01b600052601260045260246000fd5b6000826154e6576154e66154c1565b500490565b6000826154fa576154fa6154c1565b500690565b60208082526025908201527f455243313135353a207472616e7366657220746f20746865207a65726f206164604082015264647265737360d81b606082015260800190565b6020808252602a908201527f455243313135353a20696e73756666696369656e742062616c616e636520666f60408201526939103a3930b739b332b960b11b606082015260800190565b6001600160a01b03868116825285166020820152604081018490526060810183905260a0608082018190526000906155c890830184614ad8565b979650505050505050565b6000602082840312156155e557600080fd5b8151611fb581614a41565b600060033d11156148395760046000803e5060005160e01c90565b600060443d10156156195790565b6040516003193d81016004833e81513d6001600160401b03816024840111818411171561564857505050505090565b82850191508151818111156156605750505050505090565b843d870101602082850101111561567a5750505050505090565b61568960208286010187614c43565b509095945050505050565b60208082526028908201527f455243313135353a204552433131353552656365697665722072656a656374656040820152676420746f6b656e7360c01b606082015260800190565b634e487b7160e01b600052602160045260246000fd5b6001600160a01b0386811682528516602082015260a06040820181905260009061571e90830186614e6d565b82810360608401526157308186614e6d565b905082810360808401526157448185614ad8565b98975050505050505050565b634e487b7160e01b600052603160045260246000fdfea2646970667358221220a474c5a4736dcdaa1f7b6f9609c2f08f7cfdd389c4457d9f135ee3d2e083783c64736f6c634300080b00334f776e61626c653a2063616c6c6572206973206e6f7420746865206f776e6572",
  "linkReferences": {},
  "deployedLinkReferences": {}
}