{
  "_format": "hh-sol-artifact-1",
  "contractName": "Clans",
  "sourceName": "contracts/Clans.sol",
  "abi": [
    {
      "inputs": [
        {
          "internalType": "string",
          "name": "_baseURI",
          "type": "string"
        },
        {
          "internalType": "address",
          "name": "_oxgnToken",
          "type": "address"
        },
        {
          "internalType": "address",
          "name": "_y2123Nft",
          "type": "address"
        }
      ],
      "stateMutability": "nonpayable",
      "type": "constructor"
    },
    {
      "anonymous": false,
      "inputs": [
        {
          "indexed": true,
          "internalType": "address",
          "name": "account",
          "type": "address"
        },
        {
          "indexed": true,
          "internalType": "address",
          "name": "operator",
          "type": "address"
        },
        {
          "indexed": false,
          "internalType": "bool",
          "name": "approved",
          "type": "bool"
        }
      ],
      "name": "ApprovalForAll",
      "type": "event"
    },
    {
      "anonymous": false,
      "inputs": [
        {
          "indexed": true,
          "internalType": "address",
          "name": "addr",
          "type": "address"
        },
        {
          "indexed": true,
          "internalType": "uint256",
          "name": "id",
          "type": "uint256"
        },
        {
          "indexed": false,
          "internalType": "uint256",
          "name": "amount",
          "type": "uint256"
        }
      ],
      "name": "Burned",
      "type": "event"
    },
    {
      "anonymous": false,
      "inputs": [
        {
          "indexed": true,
          "internalType": "address",
          "name": "oldLeader",
          "type": "address"
        },
        {
          "indexed": true,
          "internalType": "address",
          "name": "newLeader",
          "type": "address"
        },
        {
          "indexed": true,
          "internalType": "uint256",
          "name": "clanId",
          "type": "uint256"
        },
        {
          "indexed": false,
          "internalType": "uint256",
          "name": "clanTokens",
          "type": "uint256"
        }
      ],
      "name": "ChangeLeader",
      "type": "event"
    },
    {
      "anonymous": false,
      "inputs": [
        {
          "indexed": true,
          "internalType": "address",
          "name": "addr",
          "type": "address"
        },
        {
          "indexed": false,
          "internalType": "uint256",
          "name": "oxgnTokenClaim",
          "type": "uint256"
        },
        {
          "indexed": false,
          "internalType": "uint256",
          "name": "oxgnTokenDonate",
          "type": "uint256"
        },
        {
          "indexed": true,
          "internalType": "uint256",
          "name": "clanId",
          "type": "uint256"
        },
        {
          "indexed": false,
          "internalType": "uint256",
          "name": "clanTokenClaim",
          "type": "uint256"
        },
        {
          "indexed": true,
          "internalType": "address",
          "name": "benificiaryOfTax",
          "type": "address"
        },
        {
          "indexed": false,
          "internalType": "uint256",
          "name": "oxgnTokenTax",
          "type": "uint256"
        },
        {
          "indexed": false,
          "internalType": "uint256",
          "name": "servertime",
          "type": "uint256"
        }
      ],
      "name": "Claim",
      "type": "event"
    },
    {
      "anonymous": false,
      "inputs": [
        {
          "indexed": true,
          "internalType": "address",
          "name": "leader",
          "type": "address"
        },
        {
          "indexed": true,
          "internalType": "uint256",
          "name": "clanId",
          "type": "uint256"
        },
        {
          "indexed": true,
          "internalType": "uint256",
          "name": "colonyId",
          "type": "uint256"
        }
      ],
      "name": "ClanCreated",
      "type": "event"
    },
    {
      "anonymous": false,
      "inputs": [
        {
          "indexed": true,
          "internalType": "address",
          "name": "addr",
          "type": "address"
        },
        {
          "indexed": true,
          "internalType": "uint256",
          "name": "id",
          "type": "uint256"
        },
        {
          "indexed": false,
          "internalType": "uint256",
          "name": "amount",
          "type": "uint256"
        },
        {
          "indexed": false,
          "internalType": "bool",
          "name": "recipientOrigin",
          "type": "bool"
        }
      ],
      "name": "Minted",
      "type": "event"
    },
    {
      "anonymous": false,
      "inputs": [
        {
          "indexed": true,
          "internalType": "address",
          "name": "previousOwner",
          "type": "address"
        },
        {
          "indexed": true,
          "internalType": "address",
          "name": "newOwner",
          "type": "address"
        }
      ],
      "name": "OwnershipTransferred",
      "type": "event"
    },
    {
      "anonymous": false,
      "inputs": [
        {
          "indexed": false,
          "internalType": "uint256",
          "name": "tokenId",
          "type": "uint256"
        },
        {
          "indexed": false,
          "internalType": "address",
          "name": "contractAddress",
          "type": "address"
        },
        {
          "indexed": false,
          "internalType": "address",
          "name": "owner",
          "type": "address"
        },
        {
          "indexed": true,
          "internalType": "uint256",
          "name": "clanId",
          "type": "uint256"
        }
      ],
      "name": "Stake",
      "type": "event"
    },
    {
      "anonymous": false,
      "inputs": [
        {
          "indexed": true,
          "internalType": "address",
          "name": "addr",
          "type": "address"
        },
        {
          "indexed": true,
          "internalType": "uint256",
          "name": "oldClanId",
          "type": "uint256"
        },
        {
          "indexed": true,
          "internalType": "uint256",
          "name": "newClanId",
          "type": "uint256"
        },
        {
          "indexed": false,
          "internalType": "uint256",
          "name": "switchClanCost",
          "type": "uint256"
        }
      ],
      "name": "SwitchClan",
      "type": "event"
    },
    {
      "anonymous": false,
      "inputs": [
        {
          "indexed": true,
          "internalType": "address",
          "name": "leader",
          "type": "address"
        },
        {
          "indexed": true,
          "internalType": "uint256",
          "name": "clanId",
          "type": "uint256"
        },
        {
          "indexed": true,
          "internalType": "uint256",
          "name": "colonyId",
          "type": "uint256"
        }
      ],
      "name": "SwitchColony",
      "type": "event"
    },
    {
      "anonymous": false,
      "inputs": [
        {
          "indexed": true,
          "internalType": "address",
          "name": "operator",
          "type": "address"
        },
        {
          "indexed": true,
          "internalType": "address",
          "name": "from",
          "type": "address"
        },
        {
          "indexed": true,
          "internalType": "address",
          "name": "to",
          "type": "address"
        },
        {
          "indexed": false,
          "internalType": "uint256[]",
          "name": "ids",
          "type": "uint256[]"
        },
        {
          "indexed": false,
          "internalType": "uint256[]",
          "name": "values",
          "type": "uint256[]"
        }
      ],
      "name": "TransferBatch",
      "type": "event"
    },
    {
      "anonymous": false,
      "inputs": [
        {
          "indexed": true,
          "internalType": "address",
          "name": "operator",
          "type": "address"
        },
        {
          "indexed": true,
          "internalType": "address",
          "name": "from",
          "type": "address"
        },
        {
          "indexed": true,
          "internalType": "address",
          "name": "to",
          "type": "address"
        },
        {
          "indexed": false,
          "internalType": "uint256",
          "name": "id",
          "type": "uint256"
        },
        {
          "indexed": false,
          "internalType": "uint256",
          "name": "value",
          "type": "uint256"
        }
      ],
      "name": "TransferSingle",
      "type": "event"
    },
    {
      "anonymous": false,
      "inputs": [
        {
          "indexed": false,
          "internalType": "string",
          "name": "value",
          "type": "string"
        },
        {
          "indexed": true,
          "internalType": "uint256",
          "name": "id",
          "type": "uint256"
        }
      ],
      "name": "URI",
      "type": "event"
    },
    {
      "anonymous": false,
      "inputs": [
        {
          "indexed": false,
          "internalType": "uint256",
          "name": "tokenId",
          "type": "uint256"
        },
        {
          "indexed": false,
          "internalType": "address",
          "name": "contractAddress",
          "type": "address"
        },
        {
          "indexed": false,
          "internalType": "address",
          "name": "owner",
          "type": "address"
        }
      ],
      "name": "Unstake",
      "type": "event"
    },
    {
      "inputs": [
        {
          "internalType": "address",
          "name": "accountAddress",
          "type": "address"
        }
      ],
      "name": "accountNonce",
      "outputs": [
        {
          "internalType": "uint256",
          "name": "",
          "type": "uint256"
        }
      ],
      "stateMutability": "view",
      "type": "function"
    },
    {
      "inputs": [
        {
          "internalType": "address",
          "name": "",
          "type": "address"
        }
      ],
      "name": "accountToLastClaim",
      "outputs": [
        {
          "internalType": "uint256",
          "name": "oxgnTokenClaim",
          "type": "uint256"
        },
        {
          "internalType": "uint256",
          "name": "oxgnTokenDonate",
          "type": "uint256"
        },
        {
          "internalType": "uint256",
          "name": "clanId",
          "type": "uint256"
        },
        {
          "internalType": "uint256",
          "name": "clanTokenClaim",
          "type": "uint256"
        },
        {
          "internalType": "address",
          "name": "benificiaryOfTax",
          "type": "address"
        },
        {
          "internalType": "uint256",
          "name": "oxgnTokenTax",
          "type": "uint256"
        },
        {
          "internalType": "uint256",
          "name": "nonce",
          "type": "uint256"
        },
        {
          "internalType": "uint256",
          "name": "servertime",
          "type": "uint256"
        },
        {
          "internalType": "uint256",
          "name": "blocktime",
          "type": "uint256"
        }
      ],
      "stateMutability": "view",
      "type": "function"
    },
    {
      "inputs": [
        {
          "internalType": "address",
          "name": "",
          "type": "address"
        }
      ],
      "name": "accountTotalClaim",
      "outputs": [
        {
          "internalType": "uint256",
          "name": "",
          "type": "uint256"
        }
      ],
      "stateMutability": "view",
      "type": "function"
    },
    {
      "inputs": [
        {
          "internalType": "address",
          "name": "",
          "type": "address"
        }
      ],
      "name": "accountTotalClanClaim",
      "outputs": [
        {
          "internalType": "uint256",
          "name": "",
          "type": "uint256"
        }
      ],
      "stateMutability": "view",
      "type": "function"
    },
    {
      "inputs": [
        {
          "internalType": "address",
          "name": "",
          "type": "address"
        }
      ],
      "name": "accountTotalDonate",
      "outputs": [
        {
          "internalType": "uint256",
          "name": "",
          "type": "uint256"
        }
      ],
      "stateMutability": "view",
      "type": "function"
    },
    {
      "inputs": [
        {
          "internalType": "address",
          "name": "addr",
          "type": "address"
        }
      ],
      "name": "addAdmin",
      "outputs": [],
      "stateMutability": "nonpayable",
      "type": "function"
    },
    {
      "inputs": [
        {
          "internalType": "address",
          "name": "contractAddress",
          "type": "address"
        }
      ],
      "name": "addContract",
      "outputs": [],
      "stateMutability": "nonpayable",
      "type": "function"
    },
    {
      "inputs": [
        {
          "internalType": "address",
          "name": "account",
          "type": "address"
        },
        {
          "internalType": "uint256",
          "name": "id",
          "type": "uint256"
        }
      ],
      "name": "balanceOf",
      "outputs": [
        {
          "internalType": "uint256",
          "name": "",
          "type": "uint256"
        }
      ],
      "stateMutability": "view",
      "type": "function"
    },
    {
      "inputs": [
        {
          "internalType": "address",
          "name": "owner",
          "type": "address"
        }
      ],
      "name": "balanceOf",
      "outputs": [
        {
          "internalType": "uint256",
          "name": "",
          "type": "uint256"
        }
      ],
      "stateMutability": "view",
      "type": "function"
    },
    {
      "inputs": [
        {
          "internalType": "address[]",
          "name": "accounts",
          "type": "address[]"
        },
        {
          "internalType": "uint256[]",
          "name": "ids",
          "type": "uint256[]"
        }
      ],
      "name": "balanceOfBatch",
      "outputs": [
        {
          "internalType": "uint256[]",
          "name": "",
          "type": "uint256[]"
        }
      ],
      "stateMutability": "view",
      "type": "function"
    },
    {
      "inputs": [
        {
          "internalType": "uint256",
          "name": "id",
          "type": "uint256"
        },
        {
          "internalType": "uint256",
          "name": "amount",
          "type": "uint256"
        }
      ],
      "name": "burn",
      "outputs": [],
      "stateMutability": "nonpayable",
      "type": "function"
    },
    {
      "inputs": [],
      "name": "changeLeaderPercentage",
      "outputs": [
        {
          "internalType": "uint256",
          "name": "",
          "type": "uint256"
        }
      ],
      "stateMutability": "view",
      "type": "function"
    },
    {
      "inputs": [
        {
          "internalType": "uint256",
          "name": "oxgnTokenClaim",
          "type": "uint256"
        },
        {
          "internalType": "uint256",
          "name": "oxgnTokenDonate",
          "type": "uint256"
        },
        {
          "internalType": "uint256",
          "name": "clanTokenClaim",
          "type": "uint256"
        },
        {
          "internalType": "address",
          "name": "benificiaryOfTax",
          "type": "address"
        },
        {
          "internalType": "uint256",
          "name": "oxgnTokenTax",
          "type": "uint256"
        },
        {
          "internalType": "uint256",
          "name": "timestamp",
          "type": "uint256"
        },
        {
          "internalType": "bytes",
          "name": "signature",
          "type": "bytes"
        }
      ],
      "name": "claim",
      "outputs": [],
      "stateMutability": "nonpayable",
      "type": "function"
    },
    {
      "inputs": [
        {
          "internalType": "address",
          "name": "contractAddress",
          "type": "address"
        },
        {
          "internalType": "address",
          "name": "owner",
          "type": "address"
        }
      ],
      "name": "claimableOfOwner",
      "outputs": [
        {
          "internalType": "uint256[]",
          "name": "stakedTimestamps",
          "type": "uint256[]"
        },
        {
          "internalType": "uint256[]",
          "name": "claimableTimestamps",
          "type": "uint256[]"
        }
      ],
      "stateMutability": "view",
      "type": "function"
    },
    {
      "inputs": [],
      "name": "clanIdTracker",
      "outputs": [
        {
          "internalType": "uint256",
          "name": "_value",
          "type": "uint256"
        }
      ],
      "stateMutability": "view",
      "type": "function"
    },
    {
      "inputs": [
        {
          "internalType": "address",
          "name": "",
          "type": "address"
        }
      ],
      "name": "clanStructs",
      "outputs": [
        {
          "internalType": "uint256",
          "name": "clanId",
          "type": "uint256"
        },
        {
          "internalType": "uint256",
          "name": "updateClanTimestamp",
          "type": "uint256"
        },
        {
          "internalType": "bool",
          "name": "isEntity",
          "type": "bool"
        }
      ],
      "stateMutability": "view",
      "type": "function"
    },
    {
      "inputs": [
        {
          "internalType": "uint256",
          "name": "",
          "type": "uint256"
        }
      ],
      "name": "clanToColony",
      "outputs": [
        {
          "internalType": "uint256",
          "name": "",
          "type": "uint256"
        }
      ],
      "stateMutability": "view",
      "type": "function"
    },
    {
      "inputs": [
        {
          "internalType": "uint256",
          "name": "",
          "type": "uint256"
        }
      ],
      "name": "clanToHighestOwnedAccount",
      "outputs": [
        {
          "internalType": "address",
          "name": "",
          "type": "address"
        }
      ],
      "stateMutability": "view",
      "type": "function"
    },
    {
      "inputs": [
        {
          "internalType": "uint256",
          "name": "",
          "type": "uint256"
        }
      ],
      "name": "clanToHighestOwnedCount",
      "outputs": [
        {
          "internalType": "uint256",
          "name": "",
          "type": "uint256"
        }
      ],
      "stateMutability": "view",
      "type": "function"
    },
    {
      "inputs": [
        {
          "internalType": "address",
          "name": "",
          "type": "address"
        }
      ],
      "name": "contracts",
      "outputs": [
        {
          "internalType": "bool",
          "name": "active",
          "type": "bool"
        },
        {
          "internalType": "contract IERC721",
          "name": "instance",
          "type": "address"
        }
      ],
      "stateMutability": "view",
      "type": "function"
    },
    {
      "inputs": [
        {
          "internalType": "uint256",
          "name": "colonyId",
          "type": "uint256"
        }
      ],
      "name": "createClan",
      "outputs": [],
      "stateMutability": "nonpayable",
      "type": "function"
    },
    {
      "inputs": [],
      "name": "createClanCostMultiplier",
      "outputs": [
        {
          "internalType": "uint256",
          "name": "",
          "type": "uint256"
        }
      ],
      "stateMutability": "view",
      "type": "function"
    },
    {
      "inputs": [],
      "name": "creatorInitialClanTokens",
      "outputs": [
        {
          "internalType": "uint256",
          "name": "",
          "type": "uint256"
        }
      ],
      "stateMutability": "view",
      "type": "function"
    },
    {
      "inputs": [
        {
          "internalType": "uint256",
          "name": "",
          "type": "uint256"
        }
      ],
      "name": "entityList",
      "outputs": [
        {
          "internalType": "address",
          "name": "",
          "type": "address"
        }
      ],
      "stateMutability": "view",
      "type": "function"
    },
    {
      "inputs": [],
      "name": "featureFlagCreateClan",
      "outputs": [
        {
          "internalType": "bool",
          "name": "",
          "type": "bool"
        }
      ],
      "stateMutability": "view",
      "type": "function"
    },
    {
      "inputs": [],
      "name": "featureFlagSwitchColony",
      "outputs": [
        {
          "internalType": "bool",
          "name": "",
          "type": "bool"
        }
      ],
      "stateMutability": "view",
      "type": "function"
    },
    {
      "inputs": [
        {
          "internalType": "uint256",
          "name": "clanId",
          "type": "uint256"
        }
      ],
      "name": "getAccountsInClan",
      "outputs": [
        {
          "internalType": "address[]",
          "name": "",
          "type": "address[]"
        }
      ],
      "stateMutability": "view",
      "type": "function"
    },
    {
      "inputs": [
        {
          "internalType": "uint256",
          "name": "clanId",
          "type": "uint256"
        }
      ],
      "name": "getChangeClanLeaderThreshold",
      "outputs": [
        {
          "internalType": "uint256",
          "name": "amount",
          "type": "uint256"
        }
      ],
      "stateMutability": "view",
      "type": "function"
    },
    {
      "inputs": [
        {
          "internalType": "uint256",
          "name": "colonyId",
          "type": "uint256"
        }
      ],
      "name": "getClanCountInColony",
      "outputs": [
        {
          "internalType": "uint256",
          "name": "clans",
          "type": "uint256"
        }
      ],
      "stateMutability": "view",
      "type": "function"
    },
    {
      "inputs": [
        {
          "internalType": "uint256",
          "name": "clanId",
          "type": "uint256"
        }
      ],
      "name": "getClanRecords",
      "outputs": [
        {
          "internalType": "address[]",
          "name": "entity",
          "type": "address[]"
        },
        {
          "internalType": "uint256[]",
          "name": "updateClanTimestamp",
          "type": "uint256[]"
        }
      ],
      "stateMutability": "view",
      "type": "function"
    },
    {
      "inputs": [
        {
          "internalType": "uint256",
          "name": "colonyId",
          "type": "uint256"
        }
      ],
      "name": "getClansInColony",
      "outputs": [
        {
          "internalType": "uint256[]",
          "name": "",
          "type": "uint256[]"
        }
      ],
      "stateMutability": "view",
      "type": "function"
    },
    {
      "inputs": [],
      "name": "getCreateClanCost",
      "outputs": [
        {
          "internalType": "uint256",
          "name": "amount",
          "type": "uint256"
        }
      ],
      "stateMutability": "view",
      "type": "function"
    },
    {
      "inputs": [
        {
          "internalType": "uint256",
          "name": "clanId",
          "type": "uint256"
        }
      ],
      "name": "getEntityClanCount",
      "outputs": [
        {
          "internalType": "uint256",
          "name": "entityCount",
          "type": "uint256"
        }
      ],
      "stateMutability": "view",
      "type": "function"
    },
    {
      "inputs": [],
      "name": "getEntityCount",
      "outputs": [
        {
          "internalType": "uint256",
          "name": "entityCount",
          "type": "uint256"
        }
      ],
      "stateMutability": "view",
      "type": "function"
    },
    {
      "inputs": [
        {
          "internalType": "uint256",
          "name": "clanId",
          "type": "uint256"
        }
      ],
      "name": "getSwitchClanCost",
      "outputs": [
        {
          "internalType": "uint256",
          "name": "amount",
          "type": "uint256"
        }
      ],
      "stateMutability": "view",
      "type": "function"
    },
    {
      "inputs": [
        {
          "internalType": "address",
          "name": "account",
          "type": "address"
        },
        {
          "internalType": "address",
          "name": "operator",
          "type": "address"
        }
      ],
      "name": "isApprovedForAll",
      "outputs": [
        {
          "internalType": "bool",
          "name": "",
          "type": "bool"
        }
      ],
      "stateMutability": "view",
      "type": "function"
    },
    {
      "inputs": [
        {
          "internalType": "address",
          "name": "entityAddress",
          "type": "address"
        }
      ],
      "name": "isClanLeader",
      "outputs": [
        {
          "internalType": "bool",
          "name": "",
          "type": "bool"
        }
      ],
      "stateMutability": "view",
      "type": "function"
    },
    {
      "inputs": [
        {
          "internalType": "address",
          "name": "entityAddress",
          "type": "address"
        }
      ],
      "name": "isEntity",
      "outputs": [
        {
          "internalType": "bool",
          "name": "isIndeed",
          "type": "bool"
        }
      ],
      "stateMutability": "view",
      "type": "function"
    },
    {
      "inputs": [],
      "name": "minClanInColony",
      "outputs": [
        {
          "internalType": "uint256",
          "name": "",
          "type": "uint256"
        }
      ],
      "stateMutability": "view",
      "type": "function"
    },
    {
      "inputs": [
        {
          "internalType": "address",
          "name": "recipient",
          "type": "address"
        },
        {
          "internalType": "uint256",
          "name": "id",
          "type": "uint256"
        },
        {
          "internalType": "uint256",
          "name": "amount",
          "type": "uint256"
        }
      ],
      "name": "mint",
      "outputs": [],
      "stateMutability": "nonpayable",
      "type": "function"
    },
    {
      "inputs": [],
      "name": "owner",
      "outputs": [
        {
          "internalType": "address",
          "name": "",
          "type": "address"
        }
      ],
      "stateMutability": "view",
      "type": "function"
    },
    {
      "inputs": [
        {
          "internalType": "uint256",
          "name": "tokenId",
          "type": "uint256"
        }
      ],
      "name": "ownerOf",
      "outputs": [
        {
          "internalType": "address",
          "name": "",
          "type": "address"
        }
      ],
      "stateMutability": "view",
      "type": "function"
    },
    {
      "inputs": [],
      "name": "oxgnToken",
      "outputs": [
        {
          "internalType": "contract IOxygen",
          "name": "",
          "type": "address"
        }
      ],
      "stateMutability": "view",
      "type": "function"
    },
    {
      "inputs": [
        {
          "internalType": "address",
          "name": "account",
          "type": "address"
        },
        {
          "internalType": "uint256",
          "name": "oxgnTokenClaim",
          "type": "uint256"
        },
        {
          "internalType": "uint256",
          "name": "oxgnTokenDonate",
          "type": "uint256"
        },
        {
          "internalType": "uint256",
          "name": "clanTokenClaim",
          "type": "uint256"
        },
        {
          "internalType": "address",
          "name": "benificiaryOfTax",
          "type": "address"
        },
        {
          "internalType": "uint256",
          "name": "oxgnTokenTax",
          "type": "uint256"
        },
        {
          "internalType": "uint256",
          "name": "nonce",
          "type": "uint256"
        },
        {
          "internalType": "uint256",
          "name": "timestamp",
          "type": "uint256"
        },
        {
          "internalType": "bytes",
          "name": "signature",
          "type": "bytes"
        }
      ],
      "name": "recoverAddress",
      "outputs": [
        {
          "internalType": "address",
          "name": "",
          "type": "address"
        }
      ],
      "stateMutability": "view",
      "type": "function"
    },
    {
      "inputs": [
        {
          "internalType": "address",
          "name": "addr",
          "type": "address"
        }
      ],
      "name": "removeAdmin",
      "outputs": [],
      "stateMutability": "nonpayable",
      "type": "function"
    },
    {
      "inputs": [],
      "name": "renounceOwnership",
      "outputs": [],
      "stateMutability": "nonpayable",
      "type": "function"
    },
    {
      "inputs": [
        {
          "internalType": "address",
          "name": "from",
          "type": "address"
        },
        {
          "internalType": "address",
          "name": "to",
          "type": "address"
        },
        {
          "internalType": "uint256[]",
          "name": "ids",
          "type": "uint256[]"
        },
        {
          "internalType": "uint256[]",
          "name": "amounts",
          "type": "uint256[]"
        },
        {
          "internalType": "bytes",
          "name": "data",
          "type": "bytes"
        }
      ],
      "name": "safeBatchTransferFrom",
      "outputs": [],
      "stateMutability": "nonpayable",
      "type": "function"
    },
    {
      "inputs": [
        {
          "internalType": "address",
          "name": "from",
          "type": "address"
        },
        {
          "internalType": "address",
          "name": "to",
          "type": "address"
        },
        {
          "internalType": "uint256",
          "name": "id",
          "type": "uint256"
        },
        {
          "internalType": "uint256",
          "name": "amount",
          "type": "uint256"
        },
        {
          "internalType": "bytes",
          "name": "data",
          "type": "bytes"
        }
      ],
      "name": "safeTransferFrom",
      "outputs": [],
      "stateMutability": "nonpayable",
      "type": "function"
    },
    {
      "inputs": [],
      "name": "serverToBlockTimeDelta",
      "outputs": [
        {
          "internalType": "uint256",
          "name": "",
          "type": "uint256"
        }
      ],
      "stateMutability": "view",
      "type": "function"
    },
    {
      "inputs": [
        {
          "internalType": "address",
          "name": "operator",
          "type": "address"
        },
        {
          "internalType": "bool",
          "name": "approved",
          "type": "bool"
        }
      ],
      "name": "setApprovalForAll",
      "outputs": [],
      "stateMutability": "nonpayable",
      "type": "function"
    },
    {
      "inputs": [
        {
          "internalType": "string",
          "name": "newBaseURI",
          "type": "string"
        }
      ],
      "name": "setBaseURI",
      "outputs": [],
      "stateMutability": "nonpayable",
      "type": "function"
    },
    {
      "inputs": [
        {
          "internalType": "uint256",
          "name": "newVal",
          "type": "uint256"
        }
      ],
      "name": "setChangeLeaderPercentage",
      "outputs": [],
      "stateMutability": "nonpayable",
      "type": "function"
    },
    {
      "inputs": [
        {
          "internalType": "uint256",
          "name": "newVal",
          "type": "uint256"
        }
      ],
      "name": "setCreateClanCostMultiplier",
      "outputs": [],
      "stateMutability": "nonpayable",
      "type": "function"
    },
    {
      "inputs": [
        {
          "internalType": "uint256",
          "name": "newVal",
          "type": "uint256"
        }
      ],
      "name": "setCreatorInitialClanTokens",
      "outputs": [],
      "stateMutability": "nonpayable",
      "type": "function"
    },
    {
      "inputs": [
        {
          "internalType": "uint256",
          "name": "newVal",
          "type": "uint256"
        }
      ],
      "name": "setMinClanInColony",
      "outputs": [],
      "stateMutability": "nonpayable",
      "type": "function"
    },
    {
      "inputs": [
        {
          "internalType": "uint256",
          "name": "newVal",
          "type": "uint256"
        }
      ],
      "name": "setServerToBlockTimeDelta",
      "outputs": [],
      "stateMutability": "nonpayable",
      "type": "function"
    },
    {
      "inputs": [
        {
          "internalType": "address",
          "name": "signerAddress",
          "type": "address"
        }
      ],
      "name": "setSignerAddress",
      "outputs": [],
      "stateMutability": "nonpayable",
      "type": "function"
    },
    {
      "inputs": [
        {
          "internalType": "uint256",
          "name": "newVal",
          "type": "uint256"
        }
      ],
      "name": "setSwitchClanCostBase",
      "outputs": [],
      "stateMutability": "nonpayable",
      "type": "function"
    },
    {
      "inputs": [
        {
          "internalType": "uint256",
          "name": "newVal",
          "type": "uint256"
        }
      ],
      "name": "setSwitchClanCostMultiplier",
      "outputs": [],
      "stateMutability": "nonpayable",
      "type": "function"
    },
    {
      "inputs": [
        {
          "internalType": "uint256",
          "name": "newVal",
          "type": "uint256"
        }
      ],
      "name": "setSwitchColonyCost",
      "outputs": [],
      "stateMutability": "nonpayable",
      "type": "function"
    },
    {
      "inputs": [
        {
          "internalType": "address",
          "name": "_oxgnToken",
          "type": "address"
        }
      ],
      "name": "setTokenContract",
      "outputs": [],
      "stateMutability": "nonpayable",
      "type": "function"
    },
    {
      "inputs": [
        {
          "internalType": "address",
          "name": "member",
          "type": "address"
        },
        {
          "internalType": "uint256",
          "name": "clanId",
          "type": "uint256"
        },
        {
          "internalType": "uint256",
          "name": "amount",
          "type": "uint256"
        }
      ],
      "name": "shouldChangeLeader",
      "outputs": [
        {
          "internalType": "bool",
          "name": "",
          "type": "bool"
        }
      ],
      "stateMutability": "view",
      "type": "function"
    },
    {
      "inputs": [
        {
          "internalType": "address",
          "name": "contractAddress",
          "type": "address"
        },
        {
          "internalType": "uint256[]",
          "name": "tokenIds",
          "type": "uint256[]"
        },
        {
          "internalType": "uint256",
          "name": "clanId",
          "type": "uint256"
        }
      ],
      "name": "stake",
      "outputs": [],
      "stateMutability": "nonpayable",
      "type": "function"
    },
    {
      "inputs": [
        {
          "internalType": "address",
          "name": "contractAddress",
          "type": "address"
        },
        {
          "internalType": "uint256",
          "name": "tokenId",
          "type": "uint256"
        }
      ],
      "name": "stakedTokenTimestamp",
      "outputs": [
        {
          "internalType": "uint256",
          "name": "",
          "type": "uint256"
        }
      ],
      "stateMutability": "view",
      "type": "function"
    },
    {
      "inputs": [
        {
          "internalType": "address",
          "name": "contractAddress",
          "type": "address"
        },
        {
          "internalType": "address",
          "name": "owner",
          "type": "address"
        }
      ],
      "name": "stakedTokensOfOwner",
      "outputs": [
        {
          "internalType": "uint256[]",
          "name": "",
          "type": "uint256[]"
        }
      ],
      "stateMutability": "view",
      "type": "function"
    },
    {
      "inputs": [
        {
          "internalType": "bytes4",
          "name": "interfaceId",
          "type": "bytes4"
        }
      ],
      "name": "supportsInterface",
      "outputs": [
        {
          "internalType": "bool",
          "name": "",
          "type": "bool"
        }
      ],
      "stateMutability": "view",
      "type": "function"
    },
    {
      "inputs": [],
      "name": "switchClanCostBase",
      "outputs": [
        {
          "internalType": "uint256",
          "name": "",
          "type": "uint256"
        }
      ],
      "stateMutability": "view",
      "type": "function"
    },
    {
      "inputs": [],
      "name": "switchClanCostMultiplier",
      "outputs": [
        {
          "internalType": "uint256",
          "name": "",
          "type": "uint256"
        }
      ],
      "stateMutability": "view",
      "type": "function"
    },
    {
      "inputs": [
        {
          "internalType": "uint256",
          "name": "clanId",
          "type": "uint256"
        },
        {
          "internalType": "uint256",
          "name": "colonyId",
          "type": "uint256"
        }
      ],
      "name": "switchColony",
      "outputs": [],
      "stateMutability": "nonpayable",
      "type": "function"
    },
    {
      "inputs": [],
      "name": "switchColonyCost",
      "outputs": [
        {
          "internalType": "uint256",
          "name": "",
          "type": "uint256"
        }
      ],
      "stateMutability": "view",
      "type": "function"
    },
    {
      "inputs": [],
      "name": "toggleFeatureFlagCreateClan",
      "outputs": [],
      "stateMutability": "nonpayable",
      "type": "function"
    },
    {
      "inputs": [],
      "name": "toggleFeatureFlagSwitchColony",
      "outputs": [],
      "stateMutability": "nonpayable",
      "type": "function"
    },
    {
      "inputs": [
        {
          "internalType": "address",
          "name": "newOwner",
          "type": "address"
        }
      ],
      "name": "transferOwnership",
      "outputs": [],
      "stateMutability": "nonpayable",
      "type": "function"
    },
    {
      "inputs": [
        {
          "internalType": "address",
          "name": "contractAddress",
          "type": "address"
        },
        {
          "internalType": "uint256[]",
          "name": "tokenIds",
          "type": "uint256[]"
        }
      ],
      "name": "unstake",
      "outputs": [],
      "stateMutability": "nonpayable",
      "type": "function"
    },
    {
      "inputs": [
        {
          "internalType": "address",
          "name": "contractAddress",
          "type": "address"
        },
        {
          "internalType": "bool",
          "name": "active",
          "type": "bool"
        }
      ],
      "name": "updateContract",
      "outputs": [],
      "stateMutability": "nonpayable",
      "type": "function"
    },
    {
      "inputs": [
        {
          "internalType": "uint256",
          "name": "clanId",
          "type": "uint256"
        }
      ],
      "name": "uri",
      "outputs": [
        {
          "internalType": "string",
          "name": "",
          "type": "string"
        }
      ],
      "stateMutability": "view",
      "type": "function"
    },
    {
      "inputs": [],
      "name": "withdrawForDonation",
      "outputs": [],
      "stateMutability": "nonpayable",
      "type": "function"
    },
    {
      "inputs": [],
      "name": "y2123Nft",
      "outputs": [
        {
          "internalType": "address",
          "name": "",
          "type": "address"
        }
      ],
      "stateMutability": "view",
      "type": "function"
    }
  ],
  "bytecode": "0x6101406040526007805461ffff191660019081179091556064600855600a600981905568056bc75e2d63100000905569021e19e0c9bab2400000600b55678ac7230489e80000600c55662386f26fc10000600d55600e55603c600f553480156200006857600080fd5b5060405162006961380380620069618339810160408190526200008b9162000fa2565b60405180604001604052806005815260200164793231323360d81b815250604051806040016040528060038152602001620312e360ec1b81525084620000d781620001f260201b60201c565b50815160208084019190912082519183019190912060e08290526101008190524660a0527f8b73c3c69bb8fe3d512ecc4cf759cc79239f7b179b0ffacaa9a75d522b39400f620001298184846200020b565b6080523060c05261012052506200014c9250620001469150503390565b62000255565b600160045582516200016690600590602086019062000e67565b506200017233620002a7565b6200017d8262000362565b6200018881620003cf565b601080546001600160a01b0319166001600160a01b038316179055620001bb60066200046a602090811b6200335017901c565b620001c7600162000473565b620001d3600262000473565b620001df600362000473565b50506007805460ff1916905550620012b3565b80516200020790600290602084019062000e67565b5050565b6040805160208101859052908101839052606081018290524660808201523060a082015260009060c0016040516020818303038152906040528051906020012090505b9392505050565b600380546001600160a01b038381166001600160a01b0319831681179093556040519116919082907f8be0079c531659141344cd1fd0a4f28419497f9722a3daafe3b4186f6b6457e090600090a35050565b6003546001600160a01b03163314620002f65760405162461bcd60e51b815260206004820181905260248201526000805160206200694183398151915260448201526064015b60405180910390fd5b6001600160a01b0381166200033e5760405162461bcd60e51b815260206004820152600d60248201526c656d707479206164647265737360981b6044820152606401620002ed565b6001600160a01b03166000908152601260205260409020805460ff19166001179055565b6003546001600160a01b03163314620003ad5760405162461bcd60e51b81526020600482018190526024820152600080516020620069418339815191526044820152606401620002ed565b601180546001600160a01b0319166001600160a01b0392909216919091179055565b6003546001600160a01b031633146200041a5760405162461bcd60e51b81526020600482018190526024820152600080516020620069418339815191526044820152606401620002ed565b6001600160a01b03811660008181526020808052604090912080546101009093026001600160a81b03199093169290921760011790915562000207906022908390620033596200079a821b17901c565b80546001019055565b60026004541415620004c85760405162461bcd60e51b815260206004820152601f60248201527f5265656e7472616e637947756172643a207265656e7472616e742063616c6c006044820152606401620002ed565b600260045560075460ff16620005215760405162461bcd60e51b815260206004820152601360248201527f66656174757265206e6f7420656e61626c6564000000000000000000000000006044820152606401620002ed565b600081118015620005325750600481105b620005805760405162461bcd60e51b815260206004820152601460248201527f6f6e6c79203320636f6c6f6e69657320657665720000000000000000000000006044820152606401620002ed565b6200058b33620007ba565b15620005e45760405162461bcd60e51b815260206004820152602160248201527f636c616e206c65616465722063616e277420637265617465206e657720636c616044820152603760f91b6064820152608401620002ed565b3360009081526012602052604090205460ff16620006e057336000908152601b602052604090206002015460ff16620006545760405162461bcd60e51b815260206004820152601160248201527036bab9ba1031329034b710309031b630b760791b6044820152606401620002ed565b60006200066062000816565b90508015620006de576011546001600160a01b0316639dc29fac336040516001600160e01b031960e084901b1681526001600160a01b03909116600482015260248101849052604401600060405180830381600087803b158015620006c457600080fd5b505af1158015620006d9573d6000803e3d6000fd5b505050505b505b6000620006f960066200084360201b6200336e1760201c565b90508160156000838152602001908152602001600020819055506200072a60066200046a60201b620033501760201c565b6040518290829033907f098df9d435f5abb718c2804ce7d7b6550ff16ebbabc96ba0da01d4860e2c4b6590600090a4336000818152601b60209081526040808320858155426001909101556008548151928301909152918152620007919291849162000847565b50506001600455565b6000620007b1836001600160a01b0384166200096a565b90505b92915050565b6001600160a01b0381166000908152601b602052604081206002015460ff16156200080e57506001600160a01b039081166000818152601b6020908152604080832054835260149091529020549091161490565b506000919050565b6000600a546200083260066200084360201b6200336e1760201c565b6200083e919062001080565b905090565b5490565b6001600160a01b038416620008a95760405162461bcd60e51b815260206004820152602160248201527f455243313135353a206d696e7420746f20746865207a65726f206164647265736044820152607360f81b6064820152608401620002ed565b33620008cf81600087620008bd88620009bc565b620008c888620009bc565b8762000a0a565b6000848152602081815260408083206001600160a01b03891684529091528120805485929062000901908490620010a2565b909155505060408051858152602081018590526001600160a01b0380881692600092918516917fc3d58168c5ae7397731d063d5bbf3d657854427343f4c083240f7aacaa2d0f62910160405180910390a4620009638160008787878762000b51565b5050505050565b6000818152600183016020526040812054620009b357508154600181810184556000848152602080822090930184905584548482528286019093526040902091909155620007b4565b506000620007b4565b60408051600180825281830190925260609160009190602080830190803683370190505090508281600081518110620009f957620009f9620010bd565b602090810291909101015292915050565b60005b835181101562000b2d57600084828151811062000a2e5762000a2e620010bd565b60200260200101519050600084838151811062000a4f5762000a4f620010bd565b602002602001015162000a69888462000d2760201b60201c565b62000a759190620010a2565b905062000a8487838362000dbb565b1562000b17576000828152601460209081526040918290205491518381526001600160a01b03928316928592908b169184917fe5de49455cbc88f3dd9d0d5cb562cc7e6513716e573a5be2023a8b3a42a733ee910160405180910390a45060008281526013602090815260408083208490556014909152902080546001600160a01b0319166001600160a01b0389161790555b50508062000b2590620010d3565b905062000a0d565b5062000b4986868686868662000b4960201b620033721760201c565b505050505050565b62000b70846001600160a01b031662000e2560201b6200337a1760201c565b1562000b495760405163f23a6e6160e01b81526001600160a01b0385169063f23a6e619062000bac90899089908890889088906004016200111f565b6020604051808303816000875af192505050801562000bea575060408051601f3d908101601f1916820190925262000be79181019062001166565b60015b62000cab5762000bf962001192565b806308c379a0141562000c3a575062000c11620011af565b8062000c1e575062000c3c565b8060405162461bcd60e51b8152600401620002ed91906200123e565b505b60405162461bcd60e51b815260206004820152603460248201527f455243313135353a207472616e7366657220746f206e6f6e204552433131353560448201527f526563656976657220696d706c656d656e7465720000000000000000000000006064820152608401620002ed565b6001600160e01b0319811663f23a6e6160e01b1462000d1e5760405162461bcd60e51b815260206004820152602860248201527f455243313135353a204552433131353552656365697665722072656a656374656044820152676420746f6b656e7360c01b6064820152608401620002ed565b50505050505050565b60006001600160a01b03831662000d955760405162461bcd60e51b815260206004820152602b60248201527f455243313135353a2062616c616e636520717565727920666f7220746865207a60448201526a65726f206164647265737360a81b6064820152608401620002ed565b506000908152602081815260408083206001600160a01b03949094168352929052205490565b6000828152601460205260408120546001600160a01b038581169116141562000de7575060006200024e565b6001600160a01b0384166000908152601b6020526040902054831462000e10575060006200024e565b62000e1b8362000e2b565b9091119392505050565b3b151590565b60006064600954606462000e409190620010a2565b60008481526013602052604090205462000e5b919062001080565b620007b4919062001253565b82805462000e759062001276565b90600052602060002090601f01602090048101928262000e99576000855562000ee4565b82601f1062000eb457805160ff191683800117855562000ee4565b8280016001018555821562000ee4579182015b8281111562000ee457825182559160200191906001019062000ec7565b5062000ef292915062000ef6565b5090565b5b8082111562000ef2576000815560010162000ef7565b634e487b7160e01b600052604160045260246000fd5b601f8201601f191681016001600160401b038111828210171562000f4b5762000f4b62000f0d565b6040525050565b60005b8381101562000f6f57818101518382015260200162000f55565b8381111562000f7f576000848401525b50505050565b80516001600160a01b038116811462000f9d57600080fd5b919050565b60008060006060848603121562000fb857600080fd5b83516001600160401b038082111562000fd057600080fd5b818601915086601f83011262000fe557600080fd5b81518181111562000ffa5762000ffa62000f0d565b604051915062001015601f8201601f19166020018362000f23565b8082528760208285010111156200102b57600080fd5b6200103e81602084016020860162000f52565b5093506200105190506020850162000f85565b9150620010616040850162000f85565b90509250925092565b634e487b7160e01b600052601160045260246000fd5b60008160001904831182151516156200109d576200109d6200106a565b500290565b60008219821115620010b857620010b86200106a565b500190565b634e487b7160e01b600052603260045260246000fd5b6000600019821415620010ea57620010ea6200106a565b5060010190565b600081518084526200110b81602086016020860162000f52565b601f01601f19169290920160200192915050565b6001600160a01b03868116825285166020820152604081018490526060810183905260a0608082018190526000906200115b90830184620010f1565b979650505050505050565b6000602082840312156200117957600080fd5b81516001600160e01b0319811681146200024e57600080fd5b600060033d1115620011ac5760046000803e5060005160e01c5b90565b600060443d1015620011be5790565b6040516003193d81016004833e81513d6001600160401b038083116024840183101715620011ee57505050505090565b8285019150815181811115620012075750505050505090565b843d8701016020828501011115620012225750505050505090565b620012336020828601018762000f23565b509095945050505050565b602081526000620007b16020830184620010f1565b6000826200127157634e487b7160e01b600052601260045260246000fd5b500490565b600181811c908216806200128b57607f821691505b60208210811415620012ad57634e487b7160e01b600052602260045260246000fd5b50919050565b60805160a05160c05160e051610100516101205161563e6200130360003960006146480152600061469701526000614672015260006145cb015260006145f50152600061461f015261563e6000f3fe608060405234801561001057600080fd5b50600436106104695760003560e01c8063715018a61161024c578063b948843011610146578063db4b9b6c116100c3578063f242432a11610087578063f242432a14610b9b578063f2fde38b14610bae578063f327a62c14610bc1578063fbbbec0a14610bc9578063fbe5df7414610bdc57600080fd5b8063db4b9b6c14610b19578063df79823514610b22578063e407724414610b35578063e985e9c514610b3e578063eace48cb14610b7a57600080fd5b8063c36ace5a1161010a578063c36ace5a14610aa0578063cb1ca66314610ac0578063d05df8d714610ad3578063d824559014610ae6578063d828d51614610af957600080fd5b8063b948843014610a60578063bbcd5bbe14610a69578063bef704ff14610a7c578063c004d49814610a8f578063c284f84114610a9857600080fd5b8063a2e3d9e3116101d4578063a971ea0611610198578063a971ea06146109e7578063abaf7648146109fa578063ad0d052414610a0d578063ae910f5f14610a2d578063b390c0ab14610a4d57600080fd5b8063a2e3d9e3146108e8578063a47f3b70146108f2578063a491445b14610905578063a686eb5f14610925578063a7757c9c1461093857600080fd5b806380ee44601161021b57806380ee4460146108755780638da5cb5b146108885780639dd1e9d014610899578063a0becea0146108c2578063a22cb465146108d557600080fd5b8063715018a6146107f857806371c10cae14610800578063754b069f1461084f578063772638741461086257600080fd5b8063404cbffb116103685780636154ec1d116102e557806369dc9ff3116102a957806369dc9ff3146107665780636cbc168c146107b757806370480275146107ca57806370a08231146107dd57806370fde7e0146107f057600080fd5b80636154ec1d146106db578063620dee42146106ee5780636352211e146106f7578063640906151461073357806367a46f731461074657600080fd5b806355c0beaa1161032c57806355c0beaa1461069157806355f804b31461069a5780635d1b45b5146106ad5780635dbe4756146106b55780635f539d69146106c857600080fd5b8063404cbffb1461062b5780634b56a7071461063e5780634e1273f41461065157806354fa7b6e14610671578063552c5b3c1461068457600080fd5b80631785f53c116103f6578063369e0e09116103ba578063369e0e09146105bf57806336d814ff146105d25780633b091756146105f35780633b6e8919146106055780633ddb9e851461061857600080fd5b80631785f53c1461055257806324d16a1c1461056557806329d36a5b1461056e5780632bc61549146105815780632eb2c2d6146105ac57600080fd5b8063106cffe21161043d578063106cffe2146104ec5780631324b10f146104ff57806314887c58146105085780631506a40c14610537578063156e29f61461053f57600080fd5b8062fdd58e1461046e57806301ffc9a714610494578063046dc166146104b75780630e89341c146104cc575b600080fd5b61048161047c3660046148b9565b610bef565b6040519081526020015b60405180910390f35b6104a76104a23660046148f9565b610c89565b604051901515815260200161048b565b6104ca6104c5366004614916565b610cd9565b005b6104df6104da366004614931565b610d25565b60405161048b91906149a6565b6104816104fa366004614916565b610dfe565b61048160085481565b6104a7610516366004614916565b6001600160a01b03166000908152601b602052604090206002015460ff1690565b6104ca610e1c565b6104ca61054d3660046149b9565b610e5a565b6104ca610560366004614916565b610f10565b610481600b5481565b6104ca61057c366004614931565b610fa1565b61059461058f366004614a2d565b610fd0565b6040516001600160a01b03909116815260200161048b565b6104ca6105ba366004614c22565b611030565b6104816105cd366004614931565b6110c7565b6105e56105e0366004614931565b61113f565b60405161048b929190614d3f565b6007546104a790610100900460ff1681565b6104ca610613366004614d6d565b61131a565b601054610594906001600160a01b031681565b610594610639366004614931565b611619565b6104ca61064c366004614931565b611643565b61066461065f366004614d8f565b611672565b60405161048b9190614e59565b6104ca61067f366004614e6c565b61179b565b6007546104a79060ff1681565b610481600a5481565b6104ca6106a8366004614ec2565b611a7c565b601c54610481565b6104ca6106c3366004614f0a565b611abd565b6104ca6106d6366004614916565b611d50565b6104816106e9366004614931565b611db9565b610481600c5481565b610594610705366004614931565b6010546001600160a01b039081166000908152601e6020908152604080832094835293905291909120541690565b6104ca610741366004614931565b611e2b565b610481610754366004614931565b60136020526000908152604090205481565b610798610774366004614916565b602080526000908152604090205460ff81169061010090046001600160a01b031682565b6040805192151583526001600160a01b0390911660208301520161048b565b6104ca6107c5366004614931565b611e5a565b6104ca6107d8366004614916565b611e89565b6104816107eb366004614916565b611f1d565b610481611f57565b6104ca611f74565b61083261080e366004614916565b601b6020526000908152604090208054600182015460029092015490919060ff1683565b60408051938452602084019290925215159082015260600161048b565b61066461085d366004614f4d565b611faa565b6104a7610870366004614916565b61209e565b601154610594906001600160a01b031681565b6003546001600160a01b0316610594565b6105946108a7366004614931565b6014602052600090815260409020546001600160a01b031681565b6104a76108d03660046149b9565b6120f9565b6104ca6108e3366004614f8e565b61215d565b6006546104819081565b610481610900366004614931565b612168565b610918610913366004614931565b61218d565b60405161048b9190614fc5565b6104816109333660046148b9565b6122b8565b61099b610946366004614916565b60176020526000908152604090208054600182015460028301546003840154600485015460058601546006870154600788015460089098015496979596949593946001600160a01b0390931693919290919089565b60408051998a5260208a01989098529688019590955260608701939093526001600160a01b03909116608086015260a085015260c084015260e08301526101008201526101200161048b565b6104ca6109f5366004614f8e565b61230c565b6104ca610a08366004614931565b6123d5565b610481610a1b366004614916565b60186020526000908152604090205481565b610481610a3b366004614931565b60156020526000908152604090205481565b6104ca610a5b366004614d6d565b612652565b610481600e5481565b6104ca610a77366004614916565b612738565b6104ca610a8a366004614931565b612784565b610481600d5481565b6104ca6127b3565b610481610aae366004614916565b60196020526000908152604090205481565b6104ca610ace366004614931565b6128d0565b6104ca610ae1366004614fd8565b612946565b6104ca610af4366004614931565b612e61565b610481610b07366004614916565b601a6020526000908152604090205481565b610481600f5481565b6104ca610b30366004614931565b612e90565b61048160095481565b6104a7610b4c366004614f4d565b6001600160a01b03918216600090815260016020908152604080832093909416825291909152205460ff1690565b610b8d610b88366004614f4d565b612ebf565b60405161048b92919061505b565b6104ca610ba936600461506e565b6130ce565b6104ca610bbc366004614916565b613155565b6104ca6131f0565b610664610bd7366004614931565b613237565b610481610bea366004614931565b61331a565b60006001600160a01b038316610c605760405162461bcd60e51b815260206004820152602b60248201527f455243313135353a2062616c616e636520717565727920666f7220746865207a60448201526a65726f206164647265737360a81b60648201526084015b60405180910390fd5b506000818152602081815260408083206001600160a01b03861684529091529020545b92915050565b60006001600160e01b03198216636cdb3d1360e11b1480610cba57506001600160e01b031982166303a24d0760e21b145b80610c8357506301ffc9a760e01b6001600160e01b0319831614610c83565b6003546001600160a01b03163314610d035760405162461bcd60e51b8152600401610c57906150d2565b601680546001600160a01b0319166001600160a01b0392909216919091179055565b6060600060058054610d3690615107565b905011610dcd5760058054610d4a90615107565b80601f0160208091040260200160405190810160405280929190818152602001828054610d7690615107565b8015610dc35780601f10610d9857610100808354040283529160200191610dc3565b820191906000526020600020905b815481529060010190602001808311610da657829003601f168201915b5050505050610c83565b6005610dd883613380565b604051602001610de992919061515e565b60405160208183030381529060405292915050565b6001600160a01b038116600090815260216020526040812054610c83565b6003546001600160a01b03163314610e465760405162461bcd60e51b8152600401610c57906150d2565b6007805460ff19811660ff90911615179055565b3360009081526012602052604090205460ff16610ea85760405162461bcd60e51b815260206004820152600c60248201526b41646d696e73206f6e6c792160a01b6044820152606401610c57565b604080518281526001600160a01b0385163281146020830152849290917f69dff97591dfad68d690a0deccd16ef2aaf0b65205732bf647a9e5b129b77099910160405180910390a3610f0b83838360405180602001604052806000815250613485565b505050565b6003546001600160a01b03163314610f3a5760405162461bcd60e51b8152600401610c57906150d2565b6001600160a01b038116610f805760405162461bcd60e51b815260206004820152600d60248201526c656d707479206164647265737360981b6044820152606401610c57565b6001600160a01b03166000908152601260205260409020805460ff19169055565b6003546001600160a01b03163314610fcb5760405162461bcd60e51b8152600401610c57906150d2565b600855565b6000611021610fe58c8c8c8c8c8c8c8c613595565b84848080601f01602080910402602001604051908101604052809392919081815260200183838082843760009201919091525061363892505050565b9b9a5050505050505050505050565b6001600160a01b03851633148061104c575061104c8533610b4c565b6110b35760405162461bcd60e51b815260206004820152603260248201527f455243313135353a207472616e736665722063616c6c6572206973206e6f74206044820152711bdddb995c881b9bdc88185c1c1c9bdd995960721b6064820152608401610c57565b6110c08585858585613654565b5050505050565b600080821180156110d85750600482105b6110f45760405162461bcd60e51b8152600401610c57906151fc565b6000805b60065481101561113857600081815260156020526040902054841415611126578161112281615240565b9250505b8061113081615240565b9150506110f8565b5092915050565b606080600061114d84611db9565b90506000816001600160401b0381111561116957611169614acf565b604051908082528060200260200182016040528015611192578160200160208202803683370190505b5090506000826001600160401b038111156111af576111af614acf565b6040519080825280602002602001820160405280156111d8578160200160208202803683370190505b5090506000805b601c5481101561130d5787601b6000601c84815481106112015761120161525b565b60009182526020808320909101546001600160a01b0316835282019290925260400190205414156112fb57601c818154811061123f5761123f61525b565b9060005260206000200160009054906101000a90046001600160a01b031684838151811061126f5761126f61525b565b60200260200101906001600160a01b031690816001600160a01b031681525050601b6000601c83815481106112a6576112a661525b565b60009182526020808320909101546001600160a01b0316835282019290925260400190206001015483518490849081106112e2576112e261525b565b6020908102919091010152816112f781615240565b9250505b8061130581615240565b9150506111df565b5091969095509350505050565b6002600454141561133d5760405162461bcd60e51b8152600401610c5790615271565b6002600455600754610100900460ff1661138f5760405162461bcd60e51b81526020600482015260136024820152721999585d1d5c99481b9bdd08195b98589b1959606a1b6044820152606401610c57565b60008111801561139f5750600481105b6113bb5760405162461bcd60e51b8152600401610c57906151fc565b6000821180156113cc575060065482105b6114075760405162461bcd60e51b815260206004820152600c60248201526b34b73b30b634b21031b630b760a11b6044820152606401610c57565b6000828152601560205260409020548114156114715760405162461bcd60e51b815260206004820152602360248201527f636c616e20616c72656164792062656c6f6e677320746f207468697320636f6c6044820152626f6e7960e81b6064820152608401610c57565b6000828152601560205260408120549061148a826110c7565b9050600e5481116114ed5760405162461bcd60e51b815260206004820152602760248201527f636f6c6f6e79206e6565647320746f2068617665206174206c6561737420736f60448201526636b29031b630b760c91b6064820152608401610c57565b3360009081526012602052604090205460ff166115d1576000848152601460205260409020546001600160a01b0316331461155d5760405162461bcd60e51b815260206004820152601060248201526f636c616e206c6561646572206f6e6c7960801b6044820152606401610c57565b6011546001600160a01b0316639dc29fac33600b546040516001600160e01b031960e085901b1681526001600160a01b0390921660048301526024820152604401600060405180830381600087803b1580156115b857600080fd5b505af11580156115cc573d6000803e3d6000fd5b505050505b6040518390859033907f11e18d222af18722d0ce2b9363cf0777a37b4de62d4bac0494bf9a9e9137138890600090a45050600091825260156020526040909120556001600455565b601c818154811061162957600080fd5b6000918252602090912001546001600160a01b0316905081565b6003546001600160a01b0316331461166d5760405162461bcd60e51b8152600401610c57906150d2565b600e55565b606081518351146116d75760405162461bcd60e51b815260206004820152602960248201527f455243313135353a206163636f756e747320616e6420696473206c656e677468604482015268040dad2e6dac2e8c6d60bb1b6064820152608401610c57565b600083516001600160401b038111156116f2576116f2614acf565b60405190808252806020026020018201604052801561171b578160200160208202803683370190505b50905060005b84518110156117935761176685828151811061173f5761173f61525b565b60200260200101518583815181106117595761175961525b565b6020026020010151610bef565b8282815181106117785761177861525b565b602090810291909101015261178c81615240565b9050611721565b509392505050565b6117cd60216000335b6001600160a01b03166001600160a01b0316815260200190815260200160002080546001019055565b600260045414156117f05760405162461bcd60e51b8152600401610c5790615271565b60026004556001600160a01b03831660009081526020805260409020805460ff1661185d5760405162461bcd60e51b815260206004820152601c60248201527f746f6b656e20636f6e7472616374206973206e6f7420616374697665000000006044820152606401610c57565b6118663361209e565b156118c957336000908152601b602052604090205482146118c95760405162461bcd60e51b815260206004820152601f60248201527f636c616e206c65616465722063616e27742073776974636820636c616e7321006044820152606401610c57565b6118d33383613837565b60005b8351811015611a705760008482815181106118f3576118f361525b565b602002602001015190506119043390565b6001600160a01b038781166000908152601e60209081526040808320868452909152902080546001600160a01b0319169282169290921790915583546101009004166323b872dd336040516001600160e01b031960e084901b1681526001600160a01b03909116600482015230602482015260448101849052606401600060405180830381600087803b15801561199a57600080fd5b505af11580156119ae573d6000803e3d6000fd5b5050506001600160a01b0387166000908152601d602052604081206119f6925083916119d73390565b6001600160a01b03168152602081019190915260400160002090613a34565b506001600160a01b0386166000818152601f6020908152604080832085845282529182902042905581518481529081019290925233828201525185917ff7373f56c201647feae85a62d3cf56286ed3a43d20c5eb7f9883d6ea690ef7c0919081900360600190a25080611a6881615240565b9150506118d6565b50506001600455505050565b6003546001600160a01b03163314611aa65760405162461bcd60e51b8152600401610c57906150d2565b8051611ab9906005906020840190614804565b5050565b611aca60216000336117a4565b81611ad6602282613a40565b611af25760405162461bcd60e51b8152600401610c57906152a8565b60026004541415611b155760405162461bcd60e51b8152600401610c5790615271565b60026004556001600160a01b03831660009081526020805260408120905b8351811015611a70576000848281518110611b5057611b5061525b565b60200260200101519050611bab81601d6000896001600160a01b03166001600160a01b031681526020019081526020016000206000611b8c3390565b6001600160a01b03168152602081019190915260400160002090613a62565b611bed5760405162461bcd60e51b81526020600482015260136024820152721d1bdad95b881a5cc81b9bdd081cdd185ad959606a1b6044820152606401610c57565b6001600160a01b038681166000908152601e60209081526040808320858452909152902080546001600160a01b031916905583546101009004166323b872dd30336040516001600160e01b031960e085901b1681526001600160a01b0392831660048201529116602482015260448101849052606401600060405180830381600087803b158015611c7d57600080fd5b505af1158015611c91573d6000803e3d6000fd5b5050506001600160a01b0387166000908152601d60205260408120611cd992508391611cba3390565b6001600160a01b03168152602081019190915260400160002090613a7a565b506001600160a01b0386166000818152601f602090815260408083208584528252808320929092558151848152908101929092523382820152517fda7b3993b5962cc80555cf305cbd92948048874e1a76a22272bdaaff09baeb659181900360600190a15080611d4881615240565b915050611b33565b6003546001600160a01b03163314611d7a5760405162461bcd60e51b8152600401610c57906150d2565b6001600160a01b0381166000818152602080526040902080546101009092026001600160a81b0319909216919091176001179055611ab9602282613359565b600080805b601c548110156111385783601b6000601c8481548110611de057611de061525b565b60009182526020808320909101546001600160a01b031683528201929092526040019020541415611e195781611e1581615240565b9250505b80611e2381615240565b915050611dbe565b6003546001600160a01b03163314611e555760405162461bcd60e51b8152600401610c57906150d2565b600d55565b6003546001600160a01b03163314611e845760405162461bcd60e51b8152600401610c57906150d2565b600b55565b6003546001600160a01b03163314611eb35760405162461bcd60e51b8152600401610c57906150d2565b6001600160a01b038116611ef95760405162461bcd60e51b815260206004820152600d60248201526c656d707479206164647265737360981b6044820152606401610c57565b6001600160a01b03166000908152601260205260409020805460ff19166001179055565b6010546001600160a01b039081166000908152601d602090815260408083209385168352929052908120611f5081613a86565b9392505050565b6000600a54611f6560065490565b611f6f91906152df565b905090565b6003546001600160a01b03163314611f9e5760405162461bcd60e51b8152600401610c57906150d2565b611fa86000613a90565b565b606082611fb8602282613a40565b611fd45760405162461bcd60e51b8152600401610c57906152a8565b6001600160a01b038085166000908152601d6020908152604080832093871683529290529081209061200582613a86565b6001600160401b0381111561201c5761201c614acf565b604051908082528060200260200182016040528015612045578160200160208202803683370190505b50905060005b61205483613a86565b811015612094576120658382613ae2565b8282815181106120775761207761525b565b60209081029190910101528061208c81615240565b91505061204b565b5095945050505050565b6001600160a01b0381166000908152601b602052604081206002015460ff16156120f157506001600160a01b039081166000818152601b6020908152604080832054835260149091529020549091161490565b506000919050565b6000828152601460205260408120546001600160a01b038581169116141561212357506000611f50565b6001600160a01b0384166000908152601b6020526040902054831461214a57506000611f50565b6121538361331a565b9091119392505050565b611ab9338383613aee565b6000600d5461217683611db9565b61218091906152df565b600c54610c8391906152fe565b6060600061219a83611db9565b90506000816001600160401b038111156121b6576121b6614acf565b6040519080825280602002602001820160405280156121df578160200160208202803683370190505b5090506000805b601c548110156122ae5785601b6000601c84815481106122085761220861525b565b60009182526020808320909101546001600160a01b03168352820192909252604001902054141561229c57601c81815481106122465761224661525b565b9060005260206000200160009054906101000a90046001600160a01b03168383815181106122765761227661525b565b6001600160a01b03909216602092830291909101909101528161229881615240565b9250505b806122a681615240565b9150506121e6565b5090949350505050565b6000826122c6602282613a40565b6122e25760405162461bcd60e51b8152600401610c57906152a8565b50506001600160a01b03919091166000908152601f60209081526040808320938352929052205490565b6003546001600160a01b031633146123365760405162461bcd60e51b8152600401610c57906150d2565b81612342602282613a40565b61235e5760405162461bcd60e51b8152600401610c57906152a8565b612369602284613a40565b6123aa5760405162461bcd60e51b815260206004820152601260248201527118dbdb9d1c9858dd081b9bdd08185919195960721b6044820152606401610c57565b506001600160a01b039190911660009081526020805260409020805460ff1916911515919091179055565b600260045414156123f85760405162461bcd60e51b8152600401610c5790615271565b600260045560075460ff166124455760405162461bcd60e51b81526020600482015260136024820152721999585d1d5c99481b9bdd08195b98589b1959606a1b6044820152606401610c57565b6000811180156124555750600481105b6124715760405162461bcd60e51b8152600401610c57906151fc565b61247a3361209e565b156124d15760405162461bcd60e51b815260206004820152602160248201527f636c616e206c65616465722063616e277420637265617465206e657720636c616044820152603760f91b6064820152608401610c57565b3360009081526012602052604090205460ff166125b8576124f133610516565b6125315760405162461bcd60e51b815260206004820152601160248201527036bab9ba1031329034b710309031b630b760791b6044820152606401610c57565b600061253b611f57565b905080156125b6576011546001600160a01b0316639dc29fac336040516001600160e01b031960e084901b1681526001600160a01b03909116600482015260248101849052604401600060405180830381600087803b15801561259d57600080fd5b505af11580156125b1573d6000803e3d6000fd5b505050505b505b60006125c360065490565b600081815260156020526040902083905590506125e4600680546001019055565b6040518290829033907f098df9d435f5abb718c2804ce7d7b6550ff16ebbabc96ba0da01d4860e2c4b6590600090a4336000818152601b6020908152604080832085815542600190910155600854815192830190915291815261264992918491613485565b50506001600455565b3360009081526012602052604090205460ff166126a05760405162461bcd60e51b815260206004820152600c60248201526b41646d696e73206f6e6c792160a01b6044820152606401610c57565b6126aa3283610bef565b6126f65760405162461bcd60e51b815260206004820152601760248201527f4f6f707320796f7520646f6e2774206f776e20746861740000000000000000006044820152606401610c57565b604051818152829032907f23ff0e75edf108e3d0392d92e13e8c8a868ef19001bd49f9e94876dc46dff87f9060200160405180910390a3611ab9328383613bcf565b6003546001600160a01b031633146127625760405162461bcd60e51b8152600401610c57906150d2565b601180546001600160a01b0319166001600160a01b0392909216919091179055565b6003546001600160a01b031633146127ae5760405162461bcd60e51b8152600401610c57906150d2565b600c55565b6003546001600160a01b031633146127dd5760405162461bcd60e51b8152600401610c57906150d2565b6011546040516370a0823160e01b81523060048201526000916001600160a01b0316906370a0823190602401602060405180830381865afa158015612826573d6000803e3d6000fd5b505050506040513d601f19601f8201168201806040525081019061284a9190615316565b6011549091506001600160a01b031663a9059cbb336040516001600160e01b031960e084901b1681526001600160a01b039091166004820152602481018490526044016020604051808303816000875af11580156128ac573d6000803e3d6000fd5b505050506040513d601f19601f82011682018060405250810190611ab9919061532f565b6003546001600160a01b031633146128fa5760405162461bcd60e51b8152600401610c57906150d2565b6000600954116129415760405162461bcd60e51b815260206004820152601260248201527156616c7565206c6f776572207468656e203160701b6044820152606401610c57565b600955565b600260045414156129695760405162461bcd60e51b8152600401610c5790615271565b6002600455876129a95760405162461bcd60e51b815260206004820152600b60248201526a656d70747920636c61696d60a81b6044820152606401610c57565b6129c33389898989896129bb33610dfe565b8a8a8a610fd0565b6016546001600160a01b03908116911614612a145760405162461bcd60e51b8152602060048201526011602482015270696e76616c6964207369676e617475726560781b6044820152606401610c57565b600f5415612a6957600f54612a29904261534c565b8311612a695760405162461bcd60e51b815260206004820152600f60248201526e1cd95cdcda5bdb88195e1c1a5c9959608a1b6044820152606401610c57565b6011546001600160a01b03166340c10f1933612a8d8b670de0b6b3a76400006152df565b6040516001600160e01b031960e085901b1681526001600160a01b0390921660048301526024820152604401600060405180830381600087803b158015612ad357600080fd5b505af1158015612ae7573d6000803e3d6000fd5b50505050612af9602160006117a43390565b336000818152601b6020908152604091829020548251610120810184528c81529182018b9052918101829052606081018990526001600160a01b038816608082015260a08101879052909160c0820190612b5290610dfe565b81526020018581526020014281525060176000612b6c3390565b6001600160a01b03908116825260208083019390935260409182016000908120855181558585015160018201558584015160028201556060860151600382015560808601516004820180546001600160a01b031916919094161790925560a0850151600583015560c0850151600683015560e08501516007830155610100909401516008909101553383526018909152902054612c0a908a906152fe565b336000908152601860205260409020558715612cea576011546001600160a01b03166340c10f1930612c448b670de0b6b3a76400006152df565b6040516001600160e01b031960e085901b1681526001600160a01b0390921660048301526024820152604401600060405180830381600087803b158015612c8a57600080fd5b505af1158015612c9e573d6000803e3d6000fd5b505050508760196000612cae3390565b6001600160a01b03166001600160a01b0316815260200190815260200160002054612cd991906152fe565b336000908152601960205260409020555b6001600160a01b03861615801590612d025750600085115b15612d8a576011546001600160a01b03166340c10f1987612d2b88670de0b6b3a76400006152df565b6040516001600160e01b031960e085901b1681526001600160a01b0390921660048301526024820152604401600060405180830381600087803b158015612d7157600080fd5b505af1158015612d85573d6000803e3d6000fd5b505050505b600081118015612d9b575060065481105b8015612da75750600087115b15612df357612dc733828960405180602001604052806000815250613485565b336000908152601a6020526040902054612de29088906152fe565b336000908152601a60205260409020555b604080518a8152602081018a9052808201899052606081018790526080810186905290516001600160a01b03881691839133917ffdeb11e92ba41fbc0a90341ff28c438012e6a3e840c45400a9ada007a4f2d33c919081900360a00190a45050600160045550505050505050565b6003546001600160a01b03163314612e8b5760405162461bcd60e51b8152600401610c57906150d2565b600f55565b6003546001600160a01b03163314612eba5760405162461bcd60e51b8152600401610c57906150d2565b600a55565b60608083612ece602282613a40565b612eea5760405162461bcd60e51b8152600401610c57906152a8565b6001600160a01b038086166000908152601d60209081526040808320938816835292905290812090612f1b82613a86565b6001600160401b03811115612f3257612f32614acf565b604051908082528060200260200182016040528015612f5b578160200160208202803683370190505b5090506000612f6983613a86565b6001600160401b03811115612f8057612f80614acf565b604051908082528060200260200182016040528015612fa9578160200160208202803683370190505b506001600160a01b0388166000908152601760205260408120600701549192505b612fd385613a86565b8110156130bf576000612fe68683613ae2565b6001600160a01b038c166000908152601f602090815260408083208484529091529020548651919250908690849081106130225761302261525b565b6020026020010181815250508482815181106130405761304061525b565b602002602001015183111561307357828483815181106130625761306261525b565b6020026020010181815250506130ac565b8482815181106130855761308561525b565b602002602001015184838151811061309f5761309f61525b565b6020026020010181815250505b50806130b781615240565b915050612fca565b50919890975095505050505050565b6001600160a01b0385163314806130ea57506130ea8533610b4c565b6131485760405162461bcd60e51b815260206004820152602960248201527f455243313135353a2063616c6c6572206973206e6f74206f776e6572206e6f7260448201526808185c1c1c9bdd995960ba1b6064820152608401610c57565b6110c08585858585613d48565b6003546001600160a01b0316331461317f5760405162461bcd60e51b8152600401610c57906150d2565b6001600160a01b0381166131e45760405162461bcd60e51b815260206004820152602660248201527f4f776e61626c653a206e6577206f776e657220697320746865207a65726f206160448201526564647265737360d01b6064820152608401610c57565b6131ed81613a90565b50565b6003546001600160a01b0316331461321a5760405162461bcd60e51b8152600401610c57906150d2565b6007805461ff001981166101009182900460ff1615909102179055565b60606000821180156132495750600482105b6132655760405162461bcd60e51b8152600401610c57906151fc565b6000613270836110c7565b90506000816001600160401b0381111561328c5761328c614acf565b6040519080825280602002602001820160405280156132b5578160200160208202803683370190505b5090506000805b6006548110156122ae5760008181526015602052604090205486141561330857808383815181106132ef576132ef61525b565b60209081029190910101528161330481615240565b9250505b8061331281615240565b9150506132bc565b60006064600954606461332d91906152fe565b60008481526013602052604090205461334691906152df565b610c839190615379565b80546001019055565b6000611f50836001600160a01b038416613e65565b5490565b505050505050565b3b151590565b6060816133a45750506040805180820190915260018152600360fc1b602082015290565b8160005b81156133ce57806133b881615240565b91506133c79050600a83615379565b91506133a8565b6000816001600160401b038111156133e8576133e8614acf565b6040519080825280601f01601f191660200182016040528015613412576020820181803683370190505b5090505b841561347d5761342760018361534c565b9150613434600a8661538d565b61343f9060306152fe565b60f81b8183815181106134545761345461525b565b60200101906001600160f81b031916908160001a905350613476600a86615379565b9450613416565b949350505050565b6001600160a01b0384166134e55760405162461bcd60e51b815260206004820152602160248201527f455243313135353a206d696e7420746f20746865207a65726f206164647265736044820152607360f81b6064820152608401610c57565b33613505816000876134f688613eb4565b6134ff88613eb4565b87613eff565b6000848152602081815260408083206001600160a01b0389168452909152812080548592906135359084906152fe565b909155505060408051858152602081018590526001600160a01b0380881692600092918516917fc3d58168c5ae7397731d063d5bbf3d657854427343f4c083240f7aacaa2d0f62910160405180910390a46110c081600087878787614011565b604080517f90b2ccba250cd548893316a97144625f4b7fdd7df41e4de2cf98a6ef077987b960208201526001600160a01b03808b1692820192909252606081018990526080810188905260a0810187905290851660c082015260e081018490526101008101839052610120810182905260009061362b90610140016040516020818303038152906040528051906020012061416d565b9998505050505050505050565b600080600061364785856141bb565b915091506117938161422b565b81518351146136b65760405162461bcd60e51b815260206004820152602860248201527f455243313135353a2069647320616e6420616d6f756e7473206c656e677468206044820152670dad2e6dac2e8c6d60c31b6064820152608401610c57565b6001600160a01b0384166136dc5760405162461bcd60e51b8152600401610c57906153a1565b336136eb818787878787613eff565b60005b84518110156137d157600085828151811061370b5761370b61525b565b6020026020010151905060008583815181106137295761372961525b565b602090810291909101810151600084815280835260408082206001600160a01b038e1683529093529190912054909150818110156137795760405162461bcd60e51b8152600401610c57906153e6565b6000838152602081815260408083206001600160a01b038e8116855292528083208585039055908b168252812080548492906137b69084906152fe565b92505081905550505050806137ca90615240565b90506136ee565b50846001600160a01b0316866001600160a01b0316826001600160a01b03167f4a39dc06d4c0dbc64b70af90fd698a233a518aa5d07e595d983b8c0526c8f7fb878760405161382192919061505b565b60405180910390a46133728187878787876143e6565b600081118015613848575060065481105b6138835760405162461bcd60e51b815260206004820152600c60248201526b34b73b30b634b21031b630b760a11b6044820152606401610c57565b6001600160a01b0382166000908152601b602052604090206002015460ff16156139bd576001600160a01b0382166000908152601b60205260409020548114611ab95760006138d182612168565b6011549091506001600160a01b0316639dc29fac336040516001600160e01b031960e084901b1681526001600160a01b03909116600482015260248101849052604401600060405180830381600087803b15801561392e57600080fd5b505af1158015613942573d6000803e3d6000fd5b505050506001600160a01b0383166000818152601b60209081526040918290205491518481528593917f128f8187fdb209b274c54d01b145ffae6942993c055272a988ec0c86d9432dab910160405180910390a4506001600160a01b0382166000908152601b60205260409020818155426001909101555050565b6001600160a01b0382166000818152601b60205260408120838155426001808301919091556002909101805460ff191682179055601c805491820181559091527f0e4562a10381dec21b205ed72637e6b1b523bdd0e4d4d50af5cd23dd4500a2110180546001600160a01b03191690911790555050565b6000611f508383613e65565b6001600160a01b03811660009081526001830160205260408120541515611f50565b60008181526001830160205260408120541515611f50565b6000611f5083836144a1565b6000610c83825490565b600380546001600160a01b038381166001600160a01b0319831681179093556040519116919082907f8be0079c531659141344cd1fd0a4f28419497f9722a3daafe3b4186f6b6457e090600090a35050565b6000611f508383614594565b816001600160a01b0316836001600160a01b03161415613b625760405162461bcd60e51b815260206004820152602960248201527f455243313135353a2073657474696e6720617070726f76616c20737461747573604482015268103337b91039b2b63360b91b6064820152608401610c57565b6001600160a01b03838116600081815260016020908152604080832094871680845294825291829020805460ff191686151590811790915591519182527f17307eab39ab6107e8899845ad3d59bd9653f200f220920489ca2b5937696c31910160405180910390a3505050565b6001600160a01b038316613c315760405162461bcd60e51b815260206004820152602360248201527f455243313135353a206275726e2066726f6d20746865207a65726f206164647260448201526265737360e81b6064820152608401610c57565b33613c6081856000613c4287613eb4565b613c4b87613eb4565b60405180602001604052806000815250613eff565b6000838152602081815260408083206001600160a01b038816845290915290205482811015613cdd5760405162461bcd60e51b8152602060048201526024808201527f455243313135353a206275726e20616d6f756e7420657863656564732062616c604482015263616e636560e01b6064820152608401610c57565b6000848152602081815260408083206001600160a01b03898116808652918452828520888703905582518981529384018890529092908616917fc3d58168c5ae7397731d063d5bbf3d657854427343f4c083240f7aacaa2d0f62910160405180910390a45050505050565b6001600160a01b038416613d6e5760405162461bcd60e51b8152600401610c57906153a1565b33613d7e8187876134f688613eb4565b6000848152602081815260408083206001600160a01b038a16845290915290205483811015613dbf5760405162461bcd60e51b8152600401610c57906153e6565b6000858152602081815260408083206001600160a01b038b8116855292528083208785039055908816825281208054869290613dfc9084906152fe565b909155505060408051868152602081018690526001600160a01b03808916928a821692918616917fc3d58168c5ae7397731d063d5bbf3d657854427343f4c083240f7aacaa2d0f62910160405180910390a4613e5c828888888888614011565b50505050505050565b6000818152600183016020526040812054613eac57508154600181810184556000848152602080822090930184905584548482528286019093526040902091909155610c83565b506000610c83565b60408051600180825281830190925260609160009190602080830190803683370190505090508281600081518110613eee57613eee61525b565b602090810291909101015292915050565b60005b835181101561400b576000848281518110613f1f57613f1f61525b565b602002602001015190506000848381518110613f3d57613f3d61525b565b6020026020010151613f4f8884610bef565b613f5991906152fe565b9050613f668783836120f9565b15613ff8576000828152601460209081526040918290205491518381526001600160a01b03928316928592908b169184917fe5de49455cbc88f3dd9d0d5cb562cc7e6513716e573a5be2023a8b3a42a733ee910160405180910390a45060008281526013602090815260408083208490556014909152902080546001600160a01b0319166001600160a01b0389161790555b50508061400490615240565b9050613f02565b50613372565b6001600160a01b0384163b156133725760405163f23a6e6160e01b81526001600160a01b0385169063f23a6e61906140559089908990889088908890600401615430565b6020604051808303816000875af1925050508015614090575060408051601f3d908101601f1916820190925261408d91810190615475565b60015b61413d5761409c615492565b806308c379a014156140d657506140b16154ad565b806140bc57506140d8565b8060405162461bcd60e51b8152600401610c5791906149a6565b505b60405162461bcd60e51b815260206004820152603460248201527f455243313135353a207472616e7366657220746f206e6f6e20455243313135356044820152732932b1b2b4bb32b91034b6b83632b6b2b73a32b960611b6064820152608401610c57565b6001600160e01b0319811663f23a6e6160e01b14613e5c5760405162461bcd60e51b8152600401610c5790615536565b6000610c8361417a6145be565b8360405161190160f01b6020820152602281018390526042810182905260009060620160405160208183030381529060405280519060200120905092915050565b6000808251604114156141f25760208301516040840151606085015160001a6141e6878285856146e8565b94509450505050614224565b82516040141561421c57602083015160408401516142118683836147d5565b935093505050614224565b506000905060025b9250929050565b600081600481111561423f5761423f61557e565b14156142485750565b600181600481111561425c5761425c61557e565b14156142aa5760405162461bcd60e51b815260206004820152601860248201527f45434453413a20696e76616c6964207369676e617475726500000000000000006044820152606401610c57565b60028160048111156142be576142be61557e565b141561430c5760405162461bcd60e51b815260206004820152601f60248201527f45434453413a20696e76616c6964207369676e6174757265206c656e677468006044820152606401610c57565b60038160048111156143205761432061557e565b14156143795760405162461bcd60e51b815260206004820152602260248201527f45434453413a20696e76616c6964207369676e6174757265202773272076616c604482015261756560f01b6064820152608401610c57565b600481600481111561438d5761438d61557e565b14156131ed5760405162461bcd60e51b815260206004820152602260248201527f45434453413a20696e76616c6964207369676e6174757265202776272076616c604482015261756560f01b6064820152608401610c57565b6001600160a01b0384163b156133725760405163bc197c8160e01b81526001600160a01b0385169063bc197c819061442a9089908990889088908890600401615594565b6020604051808303816000875af1925050508015614465575060408051601f3d908101601f1916820190925261446291810190615475565b60015b6144715761409c615492565b6001600160e01b0319811663bc197c8160e01b14613e5c5760405162461bcd60e51b8152600401610c5790615536565b6000818152600183016020526040812054801561458a5760006144c560018361534c565b85549091506000906144d99060019061534c565b905081811461453e5760008660000182815481106144f9576144f961525b565b906000526020600020015490508087600001848154811061451c5761451c61525b565b6000918252602080832090910192909255918252600188019052604090208390555b855486908061454f5761454f6155f2565b600190038181906000526020600020016000905590558560010160008681526020019081526020016000206000905560019350505050610c83565b6000915050610c83565b60008260000182815481106145ab576145ab61525b565b9060005260206000200154905092915050565b6000306001600160a01b037f00000000000000000000000000000000000000000000000000000000000000001614801561461757507f000000000000000000000000000000000000000000000000000000000000000046145b1561464157507f000000000000000000000000000000000000000000000000000000000000000090565b50604080517f00000000000000000000000000000000000000000000000000000000000000006020808301919091527f0000000000000000000000000000000000000000000000000000000000000000828401527f000000000000000000000000000000000000000000000000000000000000000060608301524660808301523060a0808401919091528351808403909101815260c0909201909252805191012090565b90565b6000807f7fffffffffffffffffffffffffffffff5d576e7357a4501ddfe92f46681b20a083111561471f57506000905060036147cc565b8460ff16601b1415801561473757508460ff16601c14155b1561474857506000905060046147cc565b6040805160008082526020820180845289905260ff881692820192909252606081018690526080810185905260019060a0016020604051602081039080840390855afa15801561479c573d6000803e3d6000fd5b5050604051601f1901519150506001600160a01b0381166147c5576000600192509250506147cc565b9150600090505b94509492505050565b6000806001600160ff1b03831660ff84901c601b016147f6878288856146e8565b935093505050935093915050565b82805461481090615107565b90600052602060002090601f0160209004810192826148325760008555614878565b82601f1061484b57805160ff1916838001178555614878565b82800160010185558215614878579182015b8281111561487857825182559160200191906001019061485d565b50614884929150614888565b5090565b5b808211156148845760008155600101614889565b80356001600160a01b03811681146148b457600080fd5b919050565b600080604083850312156148cc57600080fd5b6148d58361489d565b946020939093013593505050565b6001600160e01b0319811681146131ed57600080fd5b60006020828403121561490b57600080fd5b8135611f50816148e3565b60006020828403121561492857600080fd5b611f508261489d565b60006020828403121561494357600080fd5b5035919050565b60005b8381101561496557818101518382015260200161494d565b83811115614974576000848401525b50505050565b6000815180845261499281602086016020860161494a565b601f01601f19169290920160200192915050565b602081526000611f50602083018461497a565b6000806000606084860312156149ce57600080fd5b6149d78461489d565b95602085013595506040909401359392505050565b60008083601f8401126149fe57600080fd5b5081356001600160401b03811115614a1557600080fd5b60208301915083602082850101111561422457600080fd5b6000806000806000806000806000806101208b8d031215614a4d57600080fd5b614a568b61489d565b995060208b0135985060408b0135975060608b01359650614a7960808c0161489d565b955060a08b0135945060c08b0135935060e08b013592506101008b01356001600160401b03811115614aaa57600080fd5b614ab68d828e016149ec565b915080935050809150509295989b9194979a5092959850565b634e487b7160e01b600052604160045260246000fd5b601f8201601f191681016001600160401b0381118282101715614b0a57614b0a614acf565b6040525050565b60006001600160401b03821115614b2a57614b2a614acf565b5060051b60200190565b600082601f830112614b4557600080fd5b81356020614b5282614b11565b604051614b5f8282614ae5565b83815260059390931b8501820192828101915086841115614b7f57600080fd5b8286015b84811015614b9a5780358352918301918301614b83565b509695505050505050565b60006001600160401b03831115614bbe57614bbe614acf565b604051614bd5601f8501601f191660200182614ae5565b809150838152848484011115614bea57600080fd5b83836020830137600060208583010152509392505050565b600082601f830112614c1357600080fd5b611f5083833560208501614ba5565b600080600080600060a08688031215614c3a57600080fd5b614c438661489d565b9450614c516020870161489d565b935060408601356001600160401b0380821115614c6d57600080fd5b614c7989838a01614b34565b94506060880135915080821115614c8f57600080fd5b614c9b89838a01614b34565b93506080880135915080821115614cb157600080fd5b50614cbe88828901614c02565b9150509295509295909350565b600081518084526020808501945080840160005b83811015614d045781516001600160a01b031687529582019590820190600101614cdf565b509495945050505050565b600081518084526020808501945080840160005b83811015614d0457815187529582019590820190600101614d23565b604081526000614d526040830185614ccb565b8281036020840152614d648185614d0f565b95945050505050565b60008060408385031215614d8057600080fd5b50508035926020909101359150565b60008060408385031215614da257600080fd5b82356001600160401b0380821115614db957600080fd5b818501915085601f830112614dcd57600080fd5b81356020614dda82614b11565b604051614de78282614ae5565b83815260059390931b8501820192828101915089841115614e0757600080fd5b948201945b83861015614e2c57614e1d8661489d565b82529482019490820190614e0c565b96505086013592505080821115614e4257600080fd5b50614e4f85828601614b34565b9150509250929050565b602081526000611f506020830184614d0f565b600080600060608486031215614e8157600080fd5b614e8a8461489d565b925060208401356001600160401b03811115614ea557600080fd5b614eb186828701614b34565b925050604084013590509250925092565b600060208284031215614ed457600080fd5b81356001600160401b03811115614eea57600080fd5b8201601f81018413614efb57600080fd5b61347d84823560208401614ba5565b60008060408385031215614f1d57600080fd5b614f268361489d565b915060208301356001600160401b03811115614f4157600080fd5b614e4f85828601614b34565b60008060408385031215614f6057600080fd5b614f698361489d565b9150614f776020840161489d565b90509250929050565b80151581146131ed57600080fd5b60008060408385031215614fa157600080fd5b614faa8361489d565b91506020830135614fba81614f80565b809150509250929050565b602081526000611f506020830184614ccb565b60008060008060008060008060e0898b031215614ff457600080fd5b88359750602089013596506040890135955061501260608a0161489d565b94506080890135935060a0890135925060c08901356001600160401b0381111561503b57600080fd5b6150478b828c016149ec565b999c989b5096995094979396929594505050565b604081526000614d526040830185614d0f565b600080600080600060a0868803121561508657600080fd5b61508f8661489d565b945061509d6020870161489d565b9350604086013592506060860135915060808601356001600160401b038111156150c657600080fd5b614cbe88828901614c02565b6020808252818101527f4f776e61626c653a2063616c6c6572206973206e6f7420746865206f776e6572604082015260600190565b600181811c9082168061511b57607f821691505b6020821081141561513c57634e487b7160e01b600052602260045260246000fd5b50919050565b6000815161515481856020860161494a565b9290920192915050565b600080845481600182811c91508083168061517a57607f831692505b602080841082141561519a57634e487b7160e01b86526022600452602486fd5b8180156151ae57600181146151bf576151ec565b60ff198616895284890196506151ec565b60008b81526020902060005b868110156151e45781548b8201529085019083016151cb565b505084890196505b505050505050614d648185615142565b60208082526014908201527337b7363c90199031b7b637b734b2b99032bb32b960611b604082015260600190565b634e487b7160e01b600052601160045260246000fd5b60006000198214156152545761525461522a565b5060010190565b634e487b7160e01b600052603260045260246000fd5b6020808252601f908201527f5265656e7472616e637947756172643a207265656e7472616e742063616c6c00604082015260600190565b60208082526018908201527f636f6e747261637420646f6573206e6f74206578697374730000000000000000604082015260600190565b60008160001904831182151516156152f9576152f961522a565b500290565b600082198211156153115761531161522a565b500190565b60006020828403121561532857600080fd5b5051919050565b60006020828403121561534157600080fd5b8151611f5081614f80565b60008282101561535e5761535e61522a565b500390565b634e487b7160e01b600052601260045260246000fd5b60008261538857615388615363565b500490565b60008261539c5761539c615363565b500690565b60208082526025908201527f455243313135353a207472616e7366657220746f20746865207a65726f206164604082015264647265737360d81b606082015260800190565b6020808252602a908201527f455243313135353a20696e73756666696369656e742062616c616e636520666f60408201526939103a3930b739b332b960b11b606082015260800190565b6001600160a01b03868116825285166020820152604081018490526060810183905260a06080820181905260009061546a9083018461497a565b979650505050505050565b60006020828403121561548757600080fd5b8151611f50816148e3565b600060033d11156146e55760046000803e5060005160e01c90565b600060443d10156154bb5790565b6040516003193d81016004833e81513d6001600160401b0381602484011181841117156154ea57505050505090565b82850191508151818111156155025750505050505090565b843d870101602082850101111561551c5750505050505090565b61552b60208286010187614ae5565b509095945050505050565b60208082526028908201527f455243313135353a204552433131353552656365697665722072656a656374656040820152676420746f6b656e7360c01b606082015260800190565b634e487b7160e01b600052602160045260246000fd5b6001600160a01b0386811682528516602082015260a0604082018190526000906155c090830186614d0f565b82810360608401526155d28186614d0f565b905082810360808401526155e6818561497a565b98975050505050505050565b634e487b7160e01b600052603160045260246000fdfea26469706673582212208bc155e76ab303faa9e17bf47b9d8ef6b52b6c479b4cebf86a2f4e78b37f7aa364736f6c634300080b00334f776e61626c653a2063616c6c6572206973206e6f7420746865206f776e6572",
  "linkReferences": {},
  "deployedLinkReferences": {}
}