{
  "_format": "hh-sol-artifact-1",
  "contractName": "Land",
  "sourceName": "contracts/Land.sol",
  "abi": [
    {
      "inputs": [
        {
          "internalType": "string",
          "name": "uri",
          "type": "string"
        },
        {
          "internalType": "address",
          "name": "_oxgnToken",
          "type": "address"
        },
        {
          "internalType": "address",
          "name": "_proxyRegistryAddress",
          "type": "address"
        }
      ],
      "stateMutability": "nonpayable",
      "type": "constructor"
    },
    {
      "inputs": [],
      "name": "ApprovalCallerNotOwnerNorApproved",
      "type": "error"
    },
    {
      "inputs": [],
      "name": "ApprovalQueryForNonexistentToken",
      "type": "error"
    },
    {
      "inputs": [],
      "name": "ApprovalToCurrentOwner",
      "type": "error"
    },
    {
      "inputs": [],
      "name": "ApproveToCaller",
      "type": "error"
    },
    {
      "inputs": [],
      "name": "BalanceQueryForZeroAddress",
      "type": "error"
    },
    {
      "inputs": [],
      "name": "MintToZeroAddress",
      "type": "error"
    },
    {
      "inputs": [],
      "name": "MintZeroQuantity",
      "type": "error"
    },
    {
      "inputs": [],
      "name": "OwnerQueryForNonexistentToken",
      "type": "error"
    },
    {
      "inputs": [],
      "name": "TransferCallerNotOwnerNorApproved",
      "type": "error"
    },
    {
      "inputs": [],
      "name": "TransferFromIncorrectOwner",
      "type": "error"
    },
    {
      "inputs": [],
      "name": "TransferToNonERC721ReceiverImplementer",
      "type": "error"
    },
    {
      "inputs": [],
      "name": "TransferToZeroAddress",
      "type": "error"
    },
    {
      "inputs": [],
      "name": "URIQueryForNonexistentToken",
      "type": "error"
    },
    {
      "anonymous": false,
      "inputs": [
        {
          "indexed": true,
          "internalType": "address",
          "name": "owner",
          "type": "address"
        },
        {
          "indexed": true,
          "internalType": "address",
          "name": "approved",
          "type": "address"
        },
        {
          "indexed": true,
          "internalType": "uint256",
          "name": "tokenId",
          "type": "uint256"
        }
      ],
      "name": "Approval",
      "type": "event"
    },
    {
      "anonymous": false,
      "inputs": [
        {
          "indexed": true,
          "internalType": "address",
          "name": "owner",
          "type": "address"
        },
        {
          "indexed": true,
          "internalType": "address",
          "name": "operator",
          "type": "address"
        },
        {
          "indexed": false,
          "internalType": "bool",
          "name": "approved",
          "type": "bool"
        }
      ],
      "name": "ApprovalForAll",
      "type": "event"
    },
    {
      "anonymous": false,
      "inputs": [
        {
          "indexed": true,
          "internalType": "uint256",
          "name": "id",
          "type": "uint256"
        }
      ],
      "name": "Burned",
      "type": "event"
    },
    {
      "anonymous": false,
      "inputs": [
        {
          "indexed": true,
          "internalType": "address",
          "name": "addr",
          "type": "address"
        },
        {
          "indexed": true,
          "internalType": "uint256",
          "name": "id",
          "type": "uint256"
        },
        {
          "indexed": false,
          "internalType": "bool",
          "name": "recipientOrigin",
          "type": "bool"
        }
      ],
      "name": "Minted",
      "type": "event"
    },
    {
      "anonymous": false,
      "inputs": [
        {
          "indexed": true,
          "internalType": "address",
          "name": "previousOwner",
          "type": "address"
        },
        {
          "indexed": true,
          "internalType": "address",
          "name": "newOwner",
          "type": "address"
        }
      ],
      "name": "OwnershipTransferred",
      "type": "event"
    },
    {
      "anonymous": false,
      "inputs": [
        {
          "indexed": false,
          "internalType": "bool",
          "name": "active",
          "type": "bool"
        }
      ],
      "name": "SaleActive",
      "type": "event"
    },
    {
      "anonymous": false,
      "inputs": [
        {
          "indexed": false,
          "internalType": "uint256",
          "name": "tokenId",
          "type": "uint256"
        },
        {
          "indexed": false,
          "internalType": "address",
          "name": "contractAddress",
          "type": "address"
        },
        {
          "indexed": false,
          "internalType": "address",
          "name": "owner",
          "type": "address"
        },
        {
          "indexed": true,
          "internalType": "uint256",
          "name": "landTokenId",
          "type": "uint256"
        }
      ],
      "name": "Stake",
      "type": "event"
    },
    {
      "anonymous": false,
      "inputs": [
        {
          "indexed": false,
          "internalType": "uint256",
          "name": "tokenId",
          "type": "uint256"
        },
        {
          "indexed": false,
          "internalType": "address",
          "name": "contractAddress",
          "type": "address"
        },
        {
          "indexed": false,
          "internalType": "address",
          "name": "owner",
          "type": "address"
        },
        {
          "indexed": true,
          "internalType": "uint256",
          "name": "landTokenId",
          "type": "uint256"
        }
      ],
      "name": "StakeInternal",
      "type": "event"
    },
    {
      "anonymous": false,
      "inputs": [
        {
          "indexed": true,
          "internalType": "address",
          "name": "from",
          "type": "address"
        },
        {
          "indexed": true,
          "internalType": "address",
          "name": "to",
          "type": "address"
        },
        {
          "indexed": true,
          "internalType": "uint256",
          "name": "tokenId",
          "type": "uint256"
        }
      ],
      "name": "Transfer",
      "type": "event"
    },
    {
      "anonymous": false,
      "inputs": [
        {
          "indexed": false,
          "internalType": "uint256",
          "name": "tokenId",
          "type": "uint256"
        },
        {
          "indexed": false,
          "internalType": "address",
          "name": "contractAddress",
          "type": "address"
        },
        {
          "indexed": false,
          "internalType": "address",
          "name": "owner",
          "type": "address"
        },
        {
          "indexed": true,
          "internalType": "uint256",
          "name": "landTokenId",
          "type": "uint256"
        }
      ],
      "name": "Unstake",
      "type": "event"
    },
    {
      "anonymous": false,
      "inputs": [
        {
          "indexed": false,
          "internalType": "uint256",
          "name": "tokenId",
          "type": "uint256"
        },
        {
          "indexed": false,
          "internalType": "address",
          "name": "contractAddress",
          "type": "address"
        },
        {
          "indexed": false,
          "internalType": "address",
          "name": "owner",
          "type": "address"
        },
        {
          "indexed": true,
          "internalType": "uint256",
          "name": "landTokenId",
          "type": "uint256"
        }
      ],
      "name": "UnstakeInternal",
      "type": "event"
    },
    {
      "inputs": [],
      "name": "MAX_SUPPLY",
      "outputs": [
        {
          "internalType": "uint256",
          "name": "",
          "type": "uint256"
        }
      ],
      "stateMutability": "view",
      "type": "function"
    },
    {
      "inputs": [
        {
          "internalType": "address",
          "name": "contractAddress",
          "type": "address"
        }
      ],
      "name": "addContract",
      "outputs": [],
      "stateMutability": "nonpayable",
      "type": "function"
    },
    {
      "inputs": [
        {
          "internalType": "address",
          "name": "to",
          "type": "address"
        },
        {
          "internalType": "uint256",
          "name": "tokenId",
          "type": "uint256"
        }
      ],
      "name": "approve",
      "outputs": [],
      "stateMutability": "nonpayable",
      "type": "function"
    },
    {
      "inputs": [
        {
          "internalType": "address",
          "name": "owner",
          "type": "address"
        }
      ],
      "name": "balanceOf",
      "outputs": [
        {
          "internalType": "uint256",
          "name": "",
          "type": "uint256"
        }
      ],
      "stateMutability": "view",
      "type": "function"
    },
    {
      "inputs": [
        {
          "internalType": "address",
          "name": "",
          "type": "address"
        }
      ],
      "name": "contracts",
      "outputs": [
        {
          "internalType": "bool",
          "name": "active",
          "type": "bool"
        },
        {
          "internalType": "contract IERC721",
          "name": "instance",
          "type": "address"
        }
      ],
      "stateMutability": "view",
      "type": "function"
    },
    {
      "inputs": [
        {
          "internalType": "uint256",
          "name": "tokenId",
          "type": "uint256"
        }
      ],
      "name": "getApproved",
      "outputs": [
        {
          "internalType": "address",
          "name": "",
          "type": "address"
        }
      ],
      "stateMutability": "view",
      "type": "function"
    },
    {
      "inputs": [
        {
          "internalType": "address",
          "name": "addr",
          "type": "address"
        }
      ],
      "name": "getTokenIDs",
      "outputs": [
        {
          "internalType": "uint256[]",
          "name": "",
          "type": "uint256[]"
        }
      ],
      "stateMutability": "view",
      "type": "function"
    },
    {
      "inputs": [
        {
          "internalType": "address",
          "name": "owner",
          "type": "address"
        },
        {
          "internalType": "address",
          "name": "operator",
          "type": "address"
        }
      ],
      "name": "isApprovedForAll",
      "outputs": [
        {
          "internalType": "bool",
          "name": "",
          "type": "bool"
        }
      ],
      "stateMutability": "view",
      "type": "function"
    },
    {
      "inputs": [
        {
          "internalType": "address",
          "name": "owner",
          "type": "address"
        },
        {
          "internalType": "address",
          "name": "operator",
          "type": "address"
        }
      ],
      "name": "isValidOpenseaProxy",
      "outputs": [
        {
          "internalType": "bool",
          "name": "",
          "type": "bool"
        }
      ],
      "stateMutability": "view",
      "type": "function"
    },
    {
      "inputs": [],
      "name": "mintPrice",
      "outputs": [
        {
          "internalType": "uint256",
          "name": "",
          "type": "uint256"
        }
      ],
      "stateMutability": "view",
      "type": "function"
    },
    {
      "inputs": [],
      "name": "name",
      "outputs": [
        {
          "internalType": "string",
          "name": "",
          "type": "string"
        }
      ],
      "stateMutability": "view",
      "type": "function"
    },
    {
      "inputs": [
        {
          "internalType": "address",
          "name": "owner",
          "type": "address"
        }
      ],
      "name": "nextLevelTankPrice",
      "outputs": [
        {
          "internalType": "uint256",
          "name": "",
          "type": "uint256"
        }
      ],
      "stateMutability": "view",
      "type": "function"
    },
    {
      "inputs": [],
      "name": "openseaProxyEnabled",
      "outputs": [
        {
          "internalType": "bool",
          "name": "",
          "type": "bool"
        }
      ],
      "stateMutability": "view",
      "type": "function"
    },
    {
      "inputs": [],
      "name": "owner",
      "outputs": [
        {
          "internalType": "address",
          "name": "",
          "type": "address"
        }
      ],
      "stateMutability": "view",
      "type": "function"
    },
    {
      "inputs": [
        {
          "internalType": "uint256",
          "name": "tokenId",
          "type": "uint256"
        }
      ],
      "name": "ownerOf",
      "outputs": [
        {
          "internalType": "address",
          "name": "",
          "type": "address"
        }
      ],
      "stateMutability": "view",
      "type": "function"
    },
    {
      "inputs": [],
      "name": "oxgnToken",
      "outputs": [
        {
          "internalType": "contract IOxygen",
          "name": "",
          "type": "address"
        }
      ],
      "stateMutability": "view",
      "type": "function"
    },
    {
      "inputs": [
        {
          "internalType": "uint256",
          "name": "amount",
          "type": "uint256"
        }
      ],
      "name": "paidMint",
      "outputs": [],
      "stateMutability": "nonpayable",
      "type": "function"
    },
    {
      "inputs": [],
      "name": "proxyRegistryAddress",
      "outputs": [
        {
          "internalType": "address",
          "name": "",
          "type": "address"
        }
      ],
      "stateMutability": "view",
      "type": "function"
    },
    {
      "inputs": [],
      "name": "renounceOwnership",
      "outputs": [],
      "stateMutability": "nonpayable",
      "type": "function"
    },
    {
      "inputs": [
        {
          "internalType": "uint256",
          "name": "tokenId",
          "type": "uint256"
        }
      ],
      "name": "resetTimestamps",
      "outputs": [
        {
          "internalType": "uint256[]",
          "name": "",
          "type": "uint256[]"
        }
      ],
      "stateMutability": "view",
      "type": "function"
    },
    {
      "inputs": [
        {
          "internalType": "address",
          "name": "from",
          "type": "address"
        },
        {
          "internalType": "address",
          "name": "to",
          "type": "address"
        },
        {
          "internalType": "uint256",
          "name": "tokenId",
          "type": "uint256"
        }
      ],
      "name": "safeTransferFrom",
      "outputs": [],
      "stateMutability": "nonpayable",
      "type": "function"
    },
    {
      "inputs": [
        {
          "internalType": "address",
          "name": "from",
          "type": "address"
        },
        {
          "internalType": "address",
          "name": "to",
          "type": "address"
        },
        {
          "internalType": "uint256",
          "name": "tokenId",
          "type": "uint256"
        },
        {
          "internalType": "bytes",
          "name": "_data",
          "type": "bytes"
        }
      ],
      "name": "safeTransferFrom",
      "outputs": [],
      "stateMutability": "nonpayable",
      "type": "function"
    },
    {
      "inputs": [],
      "name": "saleEnabled",
      "outputs": [
        {
          "internalType": "bool",
          "name": "",
          "type": "bool"
        }
      ],
      "stateMutability": "view",
      "type": "function"
    },
    {
      "inputs": [
        {
          "internalType": "address",
          "name": "operator",
          "type": "address"
        },
        {
          "internalType": "bool",
          "name": "approved",
          "type": "bool"
        }
      ],
      "name": "setApprovalForAll",
      "outputs": [],
      "stateMutability": "nonpayable",
      "type": "function"
    },
    {
      "inputs": [
        {
          "internalType": "string",
          "name": "newBaseURI",
          "type": "string"
        }
      ],
      "name": "setBaseURI",
      "outputs": [],
      "stateMutability": "nonpayable",
      "type": "function"
    },
    {
      "inputs": [
        {
          "internalType": "uint256",
          "name": "newMaxSupply",
          "type": "uint256"
        }
      ],
      "name": "setMaxSupply",
      "outputs": [],
      "stateMutability": "nonpayable",
      "type": "function"
    },
    {
      "inputs": [
        {
          "internalType": "uint256",
          "name": "newPrice",
          "type": "uint256"
        }
      ],
      "name": "setMintPrice",
      "outputs": [],
      "stateMutability": "nonpayable",
      "type": "function"
    },
    {
      "inputs": [
        {
          "internalType": "address",
          "name": "_oxgnToken",
          "type": "address"
        }
      ],
      "name": "setOxgnContract",
      "outputs": [],
      "stateMutability": "nonpayable",
      "type": "function"
    },
    {
      "inputs": [
        {
          "internalType": "address",
          "name": "_proxyRegistryAddress",
          "type": "address"
        }
      ],
      "name": "setProxyRegistry",
      "outputs": [],
      "stateMutability": "nonpayable",
      "type": "function"
    },
    {
      "inputs": [
        {
          "internalType": "uint256[]",
          "name": "newPrices",
          "type": "uint256[]"
        }
      ],
      "name": "setTankPrices",
      "outputs": [],
      "stateMutability": "nonpayable",
      "type": "function"
    },
    {
      "inputs": [
        {
          "internalType": "address",
          "name": "contractAddress",
          "type": "address"
        },
        {
          "internalType": "uint256[]",
          "name": "tokenIds",
          "type": "uint256[]"
        },
        {
          "internalType": "uint256",
          "name": "landTokenId",
          "type": "uint256"
        }
      ],
      "name": "stake",
      "outputs": [],
      "stateMutability": "nonpayable",
      "type": "function"
    },
    {
      "inputs": [
        {
          "internalType": "address",
          "name": "contractAddress",
          "type": "address"
        },
        {
          "internalType": "uint256[]",
          "name": "tokenIds",
          "type": "uint256[]"
        },
        {
          "internalType": "uint256",
          "name": "landTokenId",
          "type": "uint256"
        }
      ],
      "name": "stakeInternal",
      "outputs": [],
      "stateMutability": "nonpayable",
      "type": "function"
    },
    {
      "inputs": [
        {
          "internalType": "address",
          "name": "contractAddress",
          "type": "address"
        },
        {
          "internalType": "uint256",
          "name": "landId",
          "type": "uint256"
        }
      ],
      "name": "stakedByLand",
      "outputs": [
        {
          "internalType": "uint256[]",
          "name": "stakedIds",
          "type": "uint256[]"
        },
        {
          "internalType": "uint256[]",
          "name": "stakedTimestamps",
          "type": "uint256[]"
        },
        {
          "internalType": "address[]",
          "name": "owners",
          "type": "address[]"
        }
      ],
      "stateMutability": "view",
      "type": "function"
    },
    {
      "inputs": [
        {
          "internalType": "address",
          "name": "contractAddress",
          "type": "address"
        },
        {
          "internalType": "uint256",
          "name": "landId",
          "type": "uint256"
        }
      ],
      "name": "stakedByLandInternal",
      "outputs": [
        {
          "internalType": "uint256[]",
          "name": "stakedIds",
          "type": "uint256[]"
        },
        {
          "internalType": "uint256[]",
          "name": "stakedTimestamps",
          "type": "uint256[]"
        },
        {
          "internalType": "address[]",
          "name": "owners",
          "type": "address[]"
        }
      ],
      "stateMutability": "view",
      "type": "function"
    },
    {
      "inputs": [
        {
          "internalType": "address",
          "name": "contractAddress",
          "type": "address"
        },
        {
          "internalType": "address",
          "name": "owner",
          "type": "address"
        }
      ],
      "name": "stakedByOwner",
      "outputs": [
        {
          "internalType": "uint256[]",
          "name": "stakedIds",
          "type": "uint256[]"
        },
        {
          "internalType": "uint256[]",
          "name": "stakedTimestamps",
          "type": "uint256[]"
        },
        {
          "internalType": "uint256[]",
          "name": "landIds",
          "type": "uint256[]"
        }
      ],
      "stateMutability": "view",
      "type": "function"
    },
    {
      "inputs": [
        {
          "internalType": "address",
          "name": "contractAddress",
          "type": "address"
        },
        {
          "internalType": "address",
          "name": "owner",
          "type": "address"
        }
      ],
      "name": "stakedByOwnerInternal",
      "outputs": [
        {
          "internalType": "uint256[]",
          "name": "stakedIds",
          "type": "uint256[]"
        },
        {
          "internalType": "uint256[]",
          "name": "stakedTimestamps",
          "type": "uint256[]"
        },
        {
          "internalType": "uint256[]",
          "name": "landIds",
          "type": "uint256[]"
        }
      ],
      "stateMutability": "view",
      "type": "function"
    },
    {
      "inputs": [
        {
          "internalType": "address",
          "name": "contractAddress",
          "type": "address"
        },
        {
          "internalType": "uint256",
          "name": "tokenId",
          "type": "uint256"
        }
      ],
      "name": "stakedByToken",
      "outputs": [
        {
          "internalType": "address",
          "name": "",
          "type": "address"
        },
        {
          "internalType": "uint256",
          "name": "",
          "type": "uint256"
        },
        {
          "internalType": "uint256",
          "name": "",
          "type": "uint256"
        }
      ],
      "stateMutability": "view",
      "type": "function"
    },
    {
      "inputs": [
        {
          "internalType": "address",
          "name": "contractAddress",
          "type": "address"
        },
        {
          "internalType": "uint256",
          "name": "tokenId",
          "type": "uint256"
        }
      ],
      "name": "stakedByTokenInternal",
      "outputs": [
        {
          "internalType": "address",
          "name": "",
          "type": "address"
        },
        {
          "internalType": "uint256",
          "name": "",
          "type": "uint256"
        },
        {
          "internalType": "uint256",
          "name": "",
          "type": "uint256"
        }
      ],
      "stateMutability": "view",
      "type": "function"
    },
    {
      "inputs": [
        {
          "internalType": "bytes4",
          "name": "interfaceId",
          "type": "bytes4"
        }
      ],
      "name": "supportsInterface",
      "outputs": [
        {
          "internalType": "bool",
          "name": "",
          "type": "bool"
        }
      ],
      "stateMutability": "view",
      "type": "function"
    },
    {
      "inputs": [],
      "name": "symbol",
      "outputs": [
        {
          "internalType": "string",
          "name": "",
          "type": "string"
        }
      ],
      "stateMutability": "view",
      "type": "function"
    },
    {
      "inputs": [
        {
          "internalType": "address",
          "name": "owner",
          "type": "address"
        }
      ],
      "name": "tankLevelOfOwner",
      "outputs": [
        {
          "internalType": "uint256",
          "name": "",
          "type": "uint256"
        }
      ],
      "stateMutability": "view",
      "type": "function"
    },
    {
      "inputs": [
        {
          "internalType": "uint256",
          "name": "",
          "type": "uint256"
        }
      ],
      "name": "tankPrices",
      "outputs": [
        {
          "internalType": "uint256",
          "name": "",
          "type": "uint256"
        }
      ],
      "stateMutability": "view",
      "type": "function"
    },
    {
      "inputs": [],
      "name": "toggleOpenseaProxy",
      "outputs": [],
      "stateMutability": "nonpayable",
      "type": "function"
    },
    {
      "inputs": [],
      "name": "toggleSale",
      "outputs": [],
      "stateMutability": "nonpayable",
      "type": "function"
    },
    {
      "inputs": [],
      "name": "toggleTransferLogic",
      "outputs": [],
      "stateMutability": "nonpayable",
      "type": "function"
    },
    {
      "inputs": [
        {
          "internalType": "uint256",
          "name": "",
          "type": "uint256"
        },
        {
          "internalType": "address",
          "name": "",
          "type": "address"
        }
      ],
      "name": "tokenToBlacklist",
      "outputs": [
        {
          "internalType": "bool",
          "name": "",
          "type": "bool"
        }
      ],
      "stateMutability": "view",
      "type": "function"
    },
    {
      "inputs": [
        {
          "internalType": "uint256",
          "name": "",
          "type": "uint256"
        },
        {
          "internalType": "uint256",
          "name": "",
          "type": "uint256"
        }
      ],
      "name": "tokenToResetTimestamp",
      "outputs": [
        {
          "internalType": "uint256",
          "name": "",
          "type": "uint256"
        }
      ],
      "stateMutability": "view",
      "type": "function"
    },
    {
      "inputs": [
        {
          "internalType": "uint256",
          "name": "",
          "type": "uint256"
        },
        {
          "internalType": "uint256",
          "name": "",
          "type": "uint256"
        }
      ],
      "name": "tokenToTransferTimestamp",
      "outputs": [
        {
          "internalType": "uint256",
          "name": "",
          "type": "uint256"
        }
      ],
      "stateMutability": "view",
      "type": "function"
    },
    {
      "inputs": [
        {
          "internalType": "uint256",
          "name": "tokenId",
          "type": "uint256"
        }
      ],
      "name": "tokenURI",
      "outputs": [
        {
          "internalType": "string",
          "name": "",
          "type": "string"
        }
      ],
      "stateMutability": "view",
      "type": "function"
    },
    {
      "inputs": [],
      "name": "totalSupply",
      "outputs": [
        {
          "internalType": "uint256",
          "name": "",
          "type": "uint256"
        }
      ],
      "stateMutability": "view",
      "type": "function"
    },
    {
      "inputs": [
        {
          "internalType": "address",
          "name": "from",
          "type": "address"
        },
        {
          "internalType": "address",
          "name": "to",
          "type": "address"
        },
        {
          "internalType": "uint256",
          "name": "tokenId",
          "type": "uint256"
        }
      ],
      "name": "transferFrom",
      "outputs": [],
      "stateMutability": "nonpayable",
      "type": "function"
    },
    {
      "inputs": [],
      "name": "transferLogicEnabled",
      "outputs": [
        {
          "internalType": "bool",
          "name": "",
          "type": "bool"
        }
      ],
      "stateMutability": "view",
      "type": "function"
    },
    {
      "inputs": [
        {
          "internalType": "address",
          "name": "newOwner",
          "type": "address"
        }
      ],
      "name": "transferOwnership",
      "outputs": [],
      "stateMutability": "nonpayable",
      "type": "function"
    },
    {
      "inputs": [
        {
          "internalType": "uint256",
          "name": "tokenId",
          "type": "uint256"
        }
      ],
      "name": "transferTimestamps",
      "outputs": [
        {
          "internalType": "uint256[]",
          "name": "",
          "type": "uint256[]"
        }
      ],
      "stateMutability": "view",
      "type": "function"
    },
    {
      "inputs": [
        {
          "internalType": "address",
          "name": "contractAddress",
          "type": "address"
        },
        {
          "internalType": "uint256[]",
          "name": "tokenIds",
          "type": "uint256[]"
        },
        {
          "internalType": "uint256",
          "name": "landTokenId",
          "type": "uint256"
        }
      ],
      "name": "unstake",
      "outputs": [],
      "stateMutability": "nonpayable",
      "type": "function"
    },
    {
      "inputs": [
        {
          "internalType": "address",
          "name": "contractAddress",
          "type": "address"
        },
        {
          "internalType": "uint256[]",
          "name": "tokenIds",
          "type": "uint256[]"
        },
        {
          "internalType": "uint256",
          "name": "landTokenId",
          "type": "uint256"
        }
      ],
      "name": "unstakeInternal",
      "outputs": [],
      "stateMutability": "nonpayable",
      "type": "function"
    },
    {
      "inputs": [
        {
          "internalType": "address",
          "name": "contractAddress",
          "type": "address"
        },
        {
          "internalType": "bool",
          "name": "active",
          "type": "bool"
        }
      ],
      "name": "updateContract",
      "outputs": [],
      "stateMutability": "nonpayable",
      "type": "function"
    },
    {
      "inputs": [],
      "name": "upgradeTank",
      "outputs": [],
      "stateMutability": "nonpayable",
      "type": "function"
    },
    {
      "inputs": [
        {
          "internalType": "address",
          "name": "receiver",
          "type": "address"
        }
      ],
      "name": "upgradeTank",
      "outputs": [],
      "stateMutability": "nonpayable",
      "type": "function"
    }
  ],
  "bytecode": "0x6101f4600b55681b1ae4d6e2ef500000600d819055600e805462ffffff1916620100011790556101a06040526080908152683635c9adc5dea0000060a052686c6b935b8bbd40000060c05268d8d726b7177a80000060e0526901b1ae4d6e2ef5000000610100526903635c9adc5dea000000610120526906c6b935b8bbd400000061014052690d8d726b7177a800000061016052691b1ae4d6e2ef5000000061018052620000b290601d906009620002c4565b50348015620000c057600080fd5b506040516200479a3803806200479a833981016040819052620000e391620003e6565b604080518082018252600a80825269164c8c4c8ccb93185b9960b21b60208084018281528551808701909652928552840152815191929162000128916002916200031f565b5080516200013e9060039060208401906200031f565b5050600080555062000150336200018a565b600160095582516200016a90600c9060208601906200031f565b506200017682620001dc565b62000181816200024d565b50505062000526565b600880546001600160a01b038381166001600160a01b0319831681179093556040519116919082907f8be0079c531659141344cd1fd0a4f28419497f9722a3daafe3b4186f6b6457e090600090a35050565b6008546001600160a01b031633146200022b5760405162461bcd60e51b815260206004820181905260248201526000805160206200477a83398151915260448201526064015b60405180910390fd5b600a80546001600160a01b0319166001600160a01b0392909216919091179055565b6008546001600160a01b03163314620002985760405162461bcd60e51b815260206004820181905260248201526000805160206200477a833981519152604482015260640162000222565b600e80546001600160a01b039092166301000000026301000000600160b81b0319909216919091179055565b8280548282559060005260206000209081019282156200030d579160200282015b828111156200030d57825182906001600160501b0316905591602001919060010190620002e5565b506200031b9291506200039c565b5090565b8280546200032d90620004e9565b90600052602060002090601f0160209004810192826200035157600085556200030d565b82601f106200036c57805160ff19168380011785556200030d565b828001600101855582156200030d579182015b828111156200030d5782518255916020019190600101906200037f565b5b808211156200031b57600081556001016200039d565b634e487b7160e01b600052604160045260246000fd5b80516001600160a01b0381168114620003e157600080fd5b919050565b600080600060608486031215620003fc57600080fd5b83516001600160401b03808211156200041457600080fd5b818601915086601f8301126200042957600080fd5b8151818111156200043e576200043e620003b3565b604051601f8201601f19908116603f01168101908382118183101715620004695762000469620003b3565b816040528281526020935089848487010111156200048657600080fd5b600091505b82821015620004aa57848201840151818301850152908301906200048b565b82821115620004bc5760008484830101525b9650620004ce915050868201620003c9565b93505050620004e060408501620003c9565b90509250925092565b600181811c90821680620004fe57607f821691505b602082108114156200052057634e487b7160e01b600052602260045260246000fd5b50919050565b61424480620005366000396000f3fe608060405234801561001057600080fd5b50600436106103995760003560e01c806371b9b646116101e9578063a971ea061161010f578063cd7c0326116100ad578063e985e9c51161007c578063e985e9c514610839578063f2db47ae1461084c578063f2fde38b1461085f578063f4a0a5281461087257600080fd5b8063cd7c0326146107e6578063d4a342dc14610800578063db74809c14610813578063e7e796301461082657600080fd5b8063b88d4fde116100e9578063b88d4fde1461079a578063b93a75d8146107ad578063c4db8a85146107c0578063c87b56dd146107d357600080fd5b8063a971ea061461076c578063adfdeef91461077f578063b2c499c41461079257600080fd5b8063856c5633116101875780638eaeeb95116101565780638eaeeb951461073757806395d89b4114610749578063a22cb46514610751578063a47388671461076457600080fd5b8063856c5633146106ed57806389002e55146107005780638cee9d0f146107135780638da5cb5b1461072657600080fd5b8063806c440d116101c3578063806c440d146106ac57806380ee4460146106bf578063842e91c1146106d2578063854222bc146106e557600080fd5b806371b9b646146106775780637ad50cc8146106845780637d8966e4146106a457600080fd5b80633a19b902116102ce5780636352211e1161026c57806369dc9ff31161023b57806369dc9ff3146105f75780636f8b44b01461064957806370a082311461065c578063715018a61461066f57600080fd5b80636352211e146105b557806365cde733146105c85780636817c76c146105db57806369a453a7146105e457600080fd5b806354fa7b6e116102a857806354fa7b6e1461056957806355f804b31461057c5780635e9abe391461058f5780635f539d69146105a257600080fd5b80633a19b9021461050b57806342842e0e1461051e5780635315b15e1461053157600080fd5b806313fa05201161033b57806323b872dd1161031557806323b872dd146104c95780633288d9ac146104dc57806332cb6b0c146104ef578063364090ce146104f857600080fd5b806313fa05201461047e57806318160ddd146104915780631bb5e516146104a757600080fd5b8063081812fc11610377578063081812fc14610409578063095ea7b31461043457806312ab9a391461044957806313ed38561461046b57600080fd5b806301cd120d1461039e57806301ffc9a7146103e157806306fdde03146103f4575b600080fd5b6103cc6103ac3660046139dc565b601160209081526000928352604080842090915290825290205460ff1681565b60405190151581526020015b60405180910390f35b6103cc6103ef366004613a22565b610885565b6103fc6108d7565b6040516103d89190613a97565b61041c610417366004613aaa565b610969565b6040516001600160a01b0390911681526020016103d8565b610447610442366004613ac3565b6109ad565b005b61045c610457366004613ac3565b610a3b565b6040516103d893929190613b2a565b610447610479366004613b9c565b610c4a565b61044761048c366004613c7e565b610c96565b600154600054035b6040519081526020016103d8565b6104ba6104b5366004613cd6565b611003565b6040516103d893929190613d04565b6104476104d7366004613d47565b61128f565b6104996104ea366004613b9c565b6112a5565b610499600b5481565b610447610506366004613d88565b6112e8565b600e546103cc9062010000900460ff1681565b61044761052c366004613d47565b611329565b61054461053f366004613ac3565b61134f565b604080516001600160a01b0390941684526020840192909252908201526060016103d8565b610447610577366004613c7e565b611427565b61044761058a366004613e13565b6116cb565b61049961059d366004613b9c565b611708565b6104476105b0366004613b9c565b611738565b61041c6105c3366004613aaa565b6117a2565b6104476105d6366004613aaa565b6117b4565b610499600d5481565b6104476105f2366004613c7e565b611942565b61062a610605366004613b9c565b60126020526000908152604090205460ff81169061010090046001600160a01b031682565b6040805192151583526001600160a01b039091166020830152016103d8565b610447610657366004613aaa565b611b7f565b61049961066a366004613b9c565b611c11565b610447611c5f565b600e546103cc9060ff1681565b610697610692366004613aaa565b611c95565b6040516103d89190613e5b565b610447611cf7565b6106976106ba366004613b9c565b611d6e565b600a5461041c906001600160a01b031681565b6106976106e0366004613aaa565b611e4b565b610447611eab565b6104996106fb366004613aaa565b611ef4565b6103cc61070e366004613cd6565b611f15565b610499610721366004613e6e565b611fb5565b6008546001600160a01b031661041c565b600e546103cc90610100900460ff1681565b6103fc611fe6565b61044761075f366004613e90565b611ff5565b61044761208b565b61044761077a366004613e90565b6121df565b61044761078d366004613b9c565b6122a9565b6104476122ff565b6104476107a8366004613ec3565b612346565b6105446107bb366004613ac3565b612363565b6104ba6107ce366004613cd6565b612464565b6103fc6107e1366004613aaa565b612744565b600e5461041c90630100000090046001600160a01b031681565b61044761080e366004613c7e565b6127c9565b610499610821366004613e6e565b6129b4565b61045c610834366004613ac3565b6129d0565b6103cc610847366004613cd6565b612bef565b61044761085a366004613b9c565b612c36565b61044761086d366004613b9c565b612cfe565b610447610880366004613aaa565b612d96565b60006001600160e01b031982166380ac58cd60e01b14806108b657506001600160e01b03198216635b5e139f60e01b145b806108d157506301ffc9a760e01b6001600160e01b03198316145b92915050565b6060600280546108e690613f42565b80601f016020809104026020016040519081016040528092919081815260200182805461091290613f42565b801561095f5780601f106109345761010080835404028352916020019161095f565b820191906000526020600020905b81548152906001019060200180831161094257829003601f168201915b5050505050905090565b600061097482612dc5565b610991576040516333d1c03960e21b815260040160405180910390fd5b506000908152600660205260409020546001600160a01b031690565b60006109b8826117a2565b9050806001600160a01b0316836001600160a01b031614156109ed5760405163250fdee360e21b815260040160405180910390fd5b336001600160a01b03821614801590610a0d5750610a0b8133612bef565b155b15610a2b576040516367d9dca160e11b815260040160405180910390fd5b610a36838383612df0565b505050565b6060808084610a4b601382612e4c565b610a705760405162461bcd60e51b8152600401610a6790613f7d565b60405180910390fd5b6001600160a01b03861660009081526015602090815260408083208884529091529020610a9c81612e6e565b6001600160401b03811115610ab357610ab3613bb9565b604051908082528060200260200182016040528015610adc578160200160208202803683370190505b509450610ae881612e6e565b6001600160401b03811115610aff57610aff613bb9565b604051908082528060200260200182016040528015610b28578160200160208202803683370190505b509350610b3481612e6e565b6001600160401b03811115610b4b57610b4b613bb9565b604051908082528060200260200182016040528015610b74578160200160208202803683370190505b50925060005b610b8382612e6e565b811015610c40576000610b968383612e78565b905080878381518110610bab57610bab613fb4565b6020908102919091018101919091526001600160a01b038a16600090815260168252604080822084835290925220548651879084908110610bee57610bee613fb4565b602002602001018181525050610c03886117a2565b858381518110610c1557610c15613fb4565b6001600160a01b03909216602092830291909101909101525080610c3881613fe0565b915050610b7a565b5050509250925092565b6008546001600160a01b03163314610c745760405162461bcd60e51b8152600401610a6790613ffb565b600a80546001600160a01b0319166001600160a01b0392909216919091179055565b82610ca2601382612e4c565b610cbe5760405162461bcd60e51b8152600401610a6790613f7d565b60026009541415610ce15760405162461bcd60e51b8152600401610a6790614030565b60026009556001600160a01b0384166000908152601260205260408120905b8451811015610f38576000858281518110610d1d57610d1d613fb4565b60200260200101519050610d7881601760008a6001600160a01b03166001600160a01b031681526020019081526020016000206000610d593390565b6001600160a01b03168152602081019190915260400160002090612e84565b610dba5760405162461bcd60e51b81526020600482015260136024820152721d1bdad95b881a5cc81b9bdd081cdd185ad959606a1b6044820152606401610a67565b6001600160a01b038781166000908152601860209081526040808320858452909152902080546001600160a01b031916905583546101009004166323b872dd3033846040518463ffffffff1660e01b8152600401610e1a93929190614067565b600060405180830381600087803b158015610e3457600080fd5b505af1158015610e48573d6000803e3d6000fd5b5050506001600160a01b0388166000908152601760205260408120610e9092508391610e713390565b6001600160a01b03168152602081019190915260400160002090612e9c565b506001600160a01b0387166000908152601a602090815260408083208884529091529020610ebe9082612e9c565b506001600160a01b038716600081815260196020908152604080832085845282528083209290925581518481529081019290925233828201525186917ff8eefa3aa6ce8b1d9be01c317b1a8f8e5f5aaeb5bfb5e6c583df94a342bbd9c7919081900360600190a25080610f3081613fe0565b915050610d00565b506001600160a01b03851660009081526017602090815260408083203384529091528120906001905b610f6a83612e6e565b811015610fc757610fa7610f7e8483612e78565b6001600160a01b038a166000908152601a602090815260408083208b8452909152902090612e84565b15610fb55760009150610fc7565b80610fbf81613fe0565b915050610f61565b508015610ff5576001600160a01b0387166000908152601b60205260408120610ff39187919033610e71565b505b505060016009555050505050565b6060808084611013601382612e4c565b61102f5760405162461bcd60e51b8152600401610a6790613f7d565b6001600160a01b03808716600090815260176020908152604080832093891683529290522061105d81612e6e565b6001600160401b0381111561107457611074613bb9565b60405190808252806020026020018201604052801561109d578160200160208202803683370190505b5094506110a981612e6e565b6001600160401b038111156110c0576110c0613bb9565b6040519080825280602002602001820160405280156110e9578160200160208202803683370190505b5093506110f581612e6e565b6001600160401b0381111561110c5761110c613bb9565b604051908082528060200260200182016040528015611135578160200160208202803683370190505b50925060005b61114482612e6e565b811015610c405760006111578383612e78565b90508087838151811061116c5761116c613fb4565b6020908102919091018101919091526001600160a01b038a166000908152601982526040808220848352909252205486518790849081106111af576111af613fb4565b6020908102919091018101919091526001600160a01b03808b166000908152601b83526040808220928c168252919092528120905b6111ed82612e6e565b811015611279576001600160a01b038b166000908152601a602052604081206112399185919061121d8686612e78565b8152602001908152602001600020612e8490919063ffffffff16565b15611267576112488282612e78565b87858151811061125a5761125a613fb4565b6020026020010181815250505b8061127181613fe0565b9150506111e4565b505050808061128790613fe0565b91505061113b565b61129a838383612ea8565b610a36838383612fc9565b6001600160a01b0381166000908152601c6020526040812054601d8054909160ff169081106112d6576112d6613fb4565b90600052602060002001549050919050565b6008546001600160a01b031633146113125760405162461bcd60e51b8152600401610a6790613ffb565b805161132590601d9060208401906138f4565b5050565b611334838383612ea8565b610a3683838360405180602001604052806000815250612fd4565b600080808461135f601382612e4c565b61137b5760405162461bcd60e51b8152600401610a6790613f7d565b600061138a6001546000540390565b905060008060005b838110156113f1576001600160a01b038a16600090815260156020908152604080832084845290915290206113c7908a612e84565b156113df578092506113d8816117a2565b91506113f1565b806113e981613fe0565b915050611392565b506001600160a01b03891660009081526016602090815260408083208b8452909152902054909650909450925050509250925092565b6002600954141561144a5760405162461bcd60e51b8152600401610a6790614030565b60026009556001600160a01b0383166000908152601260205260409020805460ff166114b85760405162461bcd60e51b815260206004820152601c60248201527f746f6b656e20636f6e7472616374206973206e6f7420616374697665000000006044820152606401610a67565b60005b835181101561166f5760008482815181106114d8576114d8613fb4565b602002602001015190506114e93390565b6001600160a01b038781166000908152601860209081526040808320868452909152902080546001600160a01b0319169282169290921790915583546101009004166323b872dd3330846040518463ffffffff1660e01b815260040161155193929190614067565b600060405180830381600087803b15801561156b57600080fd5b505af115801561157f573d6000803e3d6000fd5b5050506001600160a01b03871660009081526017602052604081206115c7925083916115a83390565b6001600160a01b0316815260208101919091526040016000209061301f565b506001600160a01b0386166000908152601a6020908152604080832087845290915290206115f5908261301f565b506001600160a01b038616600081815260196020908152604080832085845282529182902042905581518481529081019290925233828201525185917ff7373f56c201647feae85a62d3cf56286ed3a43d20c5eb7f9883d6ea690ef7c0919081900360600190a2508061166781613fe0565b9150506114bb565b506001600160a01b0384166000908152601b602052604081206116959184919033610d59565b6116c0576001600160a01b0384166000908152601b602052604081206116be91849190336115a8565b505b505060016009555050565b6008546001600160a01b031633146116f55760405162461bcd60e51b8152600401610a6790613ffb565b805161132590600c90602084019061393f565b6001600160a01b0381166000908152601c602052604081205461172f9060ff16600161408b565b60ff1692915050565b6008546001600160a01b031633146117625760405162461bcd60e51b8152600401610a6790613ffb565b6001600160a01b038116600081815260126020526040902080546101009092026001600160a81b031990921691909117600117905561132560138261302b565b60006117ad82613040565b5192915050565b600260095414156117d75760405162461bcd60e51b8152600401610a6790614030565b600260095560006117eb6001546000540390565b90503332146117f957600080fd5b600e5460ff1661183e5760405162461bcd60e51b815260206004820152601060248201526f14d85b19481b9bdd08195b98589b195960821b6044820152606401610a67565b600b5461184b82846140b0565b11156118b25760405162461bcd60e51b815260206004820152603060248201527f506c6561736520747279206d696e74696e672077697468206c6573732c206e6f60448201526f7420656e6f75676820737570706c792160801b6064820152608401610a67565b600a546001600160a01b0316639dc29fac33600d546118d190866140c8565b6040516001600160e01b031960e085901b1681526001600160a01b0390921660048301526024820152604401600060405180830381600087803b15801561191757600080fd5b505af115801561192b573d6000803e3d6000fd5b50505050611939338361315a565b50506001600955565b8261194e601382612e4c565b61196a5760405162461bcd60e51b8152600401610a6790613f7d565b6002600954141561198d5760405162461bcd60e51b8152600401610a6790614030565b60026009553361199c836117a2565b6001600160a01b0316146119af57600080fd5b6001600160a01b0384166000908152601260205260408120905b8451811015611b725760008582815181106119e6576119e6613fb4565b6020908102919091018101516001600160a01b038916600090815260158352604080822089835290935291909120909150611a219082612e84565b611a635760405162461bcd60e51b81526020600482015260136024820152721d1bdad95b881a5cc81b9bdd081cdd185ad959606a1b6044820152606401610a67565b825461010090046001600160a01b03166323b872dd3033846040518463ffffffff1660e01b8152600401611a9993929190614067565b600060405180830381600087803b158015611ab357600080fd5b505af1158015611ac7573d6000803e3d6000fd5b5050506001600160a01b03881660009081526015602090815260408083208984529091529020611af8915082612e9c565b506001600160a01b038716600081815260166020908152604080832085845282528083209290925581518481529081019290925233828201525186917f7a88d300aa5621eff92ee9ad481a2146da5273e1c775ca15eb4a3ca348a97ec1919081900360600190a25080611b6a81613fe0565b9150506119c9565b5050600160095550505050565b6008546001600160a01b03163314611ba95760405162461bcd60e51b8152600401610a6790613ffb565b80600b5414611c0e5760015460005403811015611c085760405162461bcd60e51b815260206004820152601d60248201527f56616c7565206c6f776572207468616e20746f74616c20737570706c790000006044820152606401610a67565b600b8190555b50565b60006001600160a01b038216611c3a576040516323d3ad8160e21b815260040160405180910390fd5b506001600160a01b03166000908152600560205260409020546001600160401b031690565b6008546001600160a01b03163314611c895760405162461bcd60e51b8152600401610a6790613ffb565b611c936000613174565b565b6000818152600f6020908152604091829020805483518184028101840190945280845260609392830182828015611ceb57602002820191906000526020600020905b815481526020019060010190808311611cd7575b50505050509050919050565b6008546001600160a01b03163314611d215760405162461bcd60e51b8152600401610a6790613ffb565b600e805460ff8082161560ff1990921682179092556040519116151581527fe8a4303c22d8b575a6f175ea4803f56b0a4551ac9e22153304feb0ddfd6143559060200160405180910390a1565b60606000611d7f6001546000540390565b90506000611d8c84611c11565b90506000816001600160401b03811115611da857611da8613bb9565b604051908082528060200260200182016040528015611dd1578160200160208202803683370190505b5090506000805b84811015611e4057611de9816117a2565b6001600160a01b0316876001600160a01b03161415611e2e5780838381518110611e1557611e15613fb4565b602090810291909101015281611e2a81613fe0565b9250505b80611e3881613fe0565b915050611dd8565b509095945050505050565b600081815260106020908152604091829020805483518184028101840190945280845260609392830182828015611ceb5760200282019190600052602060002090815481526020019060010190808311611cd75750505050509050919050565b6008546001600160a01b03163314611ed55760405162461bcd60e51b8152600401610a6790613ffb565b600e805462ff0000198116620100009182900460ff1615909102179055565b601d8181548110611f0457600080fd5b600091825260209091200154905081565b600e5460405163c455279160e01b81526001600160a01b0384811660048301526000926301000000900481169190841690829063c455279190602401602060405180830381865afa158015611f6e573d6000803e3d6000fd5b505050506040513d601f19601f82011682018060405250810190611f9291906140e7565b6001600160a01b03161415611fab5760019150506108d1565b5060009392505050565b60106020528160005260406000208181548110611fd157600080fd5b90600052602060002001600091509150505481565b6060600380546108e690613f42565b6001600160a01b03821633141561201f5760405163b06307db60e01b815260040160405180910390fd5b3360008181526007602090815260408083206001600160a01b03871680855290835292819020805460ff191686151590811790915590519081529192917f17307eab39ab6107e8899845ad3d59bd9653f200f220920489ca2b5937696c31910160405180910390a35050565b600260095414156120ae5760405162461bcd60e51b8152600401610a6790614030565b6002600955601d546120c19060016140b0565b6120ca33611708565b1061210e5760405162461bcd60e51b81526020600482015260146024820152731d185b9ac81a5cc8185d081b585e081b195d995b60621b6044820152606401610a67565b600a546001600160a01b0316639dc29fac33612129336112a5565b6040516001600160e01b031960e085901b1681526001600160a01b0390921660048301526024820152604401600060405180830381600087803b15801561216f57600080fd5b505af1158015612183573d6000803e3d6000fd5b50505050601c60006121923390565b6001600160a01b0316815260208101919091526040016000908120805460ff16916121bc83614104565b91906101000a81548160ff021916908360ff160217905550506001600981905550565b6008546001600160a01b031633146122095760405162461bcd60e51b8152600401610a6790613ffb565b81612215601382612e4c565b6122315760405162461bcd60e51b8152600401610a6790613f7d565b61223c601384612e4c565b61227d5760405162461bcd60e51b815260206004820152601260248201527118dbdb9d1c9858dd081b9bdd08185919195960721b6044820152606401610a67565b506001600160a01b03919091166000908152601260205260409020805460ff1916911515919091179055565b6008546001600160a01b031633146122d35760405162461bcd60e51b8152600401610a6790613ffb565b600e80546001600160a01b039092166301000000026301000000600160b81b0319909216919091179055565b6008546001600160a01b031633146123295760405162461bcd60e51b8152600401610a6790613ffb565b600e805461ff001981166101009182900460ff1615909102179055565b612351848484612ea8565b61235d84848484612fd4565b50505050565b6000808084612373601382612e4c565b61238f5760405162461bcd60e51b8152600401610a6790613f7d565b6001600160a01b0380871660008181526018602090815260408083208a8452825280832054938352601b825280832093909416808352929052918220909190815b6123d982612e6e565b811015612431576001600160a01b038a166000908152601a60205260408120612409918b919061121d8686612e78565b1561241f576124188282612e78565b9250612431565b8061242981613fe0565b9150506123d0565b50506001600160a01b03979097166000908152601960209081526040808320988352979052959095205494969350505050565b6060808084612474601382612e4c565b6124905760405162461bcd60e51b8152600401610a6790613f7d565b600061249b86611d6e565b90506000805b8251811015612519576001600160a01b0389166000908152601560205260408120845182908690859081106124d8576124d8613fb4565b6020026020010151815260200190815260200160002090506124f981612e6e565b61250390846140b0565b925050808061251190613fe0565b9150506124a1565b508015610c4057806001600160401b0381111561253857612538613bb9565b604051908082528060200260200182016040528015612561578160200160208202803683370190505b509550806001600160401b0381111561257c5761257c613bb9565b6040519080825280602002602001820160405280156125a5578160200160208202803683370190505b509450806001600160401b038111156125c0576125c0613bb9565b6040519080825280602002602001820160405280156125e9578160200160208202803683370190505b5093506000805b8351811015612738576001600160a01b038a1660009081526015602052604081208551829087908590811061262757612627613fb4565b60200260200101518152602001908152602001600020905060005b61264b82612e6e565b8110156127235785838151811061266457612664613fb4565b602002602001015188858151811061267e5761267e613fb4565b60209081029190910101526126938282612e78565b8a85815181106126a5576126a5613fb4565b6020908102919091018101919091526001600160a01b038d166000908152601690915260408120906126d78484612e78565b8152602001908152602001600020548985815181106126f8576126f8613fb4565b60209081029190910101528361270d81613fe0565b945050808061271b90613fe0565b915050612642565b5050808061273090613fe0565b9150506125f0565b50505050509250925092565b606061274f82612dc5565b61276c57604051630a14c4b560e41b815260040160405180910390fd5b60006127766131c6565b905080516000141561279757604051806020016040528060008152506127c2565b806127a1846131d5565b6040516020016127b2929190614124565b6040516020818303038152906040525b9392505050565b600260095414156127ec5760405162461bcd60e51b8152600401610a6790614030565b60026009556001600160a01b0383166000908152601260205260409020805460ff1661285a5760405162461bcd60e51b815260206004820152601c60248201527f746f6b656e20636f6e7472616374206973206e6f7420616374697665000000006044820152606401610a67565b33612864836117a2565b6001600160a01b03161461287757600080fd5b60005b83518110156116be57600084828151811061289757612897613fb4565b602090810291909101015183546040516323b872dd60e01b815291925061010090046001600160a01b0316906323b872dd906128db90339030908690600401614067565b600060405180830381600087803b1580156128f557600080fd5b505af1158015612909573d6000803e3d6000fd5b5050506001600160a01b0387166000908152601560209081526040808320888452909152902061293a91508261301f565b506001600160a01b038616600081815260166020908152604080832085845282529182902042905581518481529081019290925233828201525185917fbad5eb2559bf0125076226eec064f40a9eb579b59582cdc07ac07acecbda6ff5919081900360600190a250806129ac81613fe0565b91505061287a565b600f6020528160005260406000208181548110611fd157600080fd5b60608080846129e0601382612e4c565b6129fc5760405162461bcd60e51b8152600401610a6790613f7d565b6001600160a01b0386166000908152601a602090815260408083208884529091529020612a2881612e6e565b6001600160401b03811115612a3f57612a3f613bb9565b604051908082528060200260200182016040528015612a68578160200160208202803683370190505b509450612a7481612e6e565b6001600160401b03811115612a8b57612a8b613bb9565b604051908082528060200260200182016040528015612ab4578160200160208202803683370190505b509350612ac081612e6e565b6001600160401b03811115612ad757612ad7613bb9565b604051908082528060200260200182016040528015612b00578160200160208202803683370190505b50925060005b612b0f82612e6e565b811015610c40576000612b228383612e78565b905080878381518110612b3757612b37613fb4565b6020908102919091018101919091526001600160a01b038a16600090815260198252604080822084835290925220548651879084908110612b7a57612b7a613fb4565b6020908102919091018101919091526001600160a01b03808b16600090815260188352604080822085835290935291909120548651911690869084908110612bc457612bc4613fb4565b6001600160a01b03909216602092830291909101909101525080612be781613fe0565b915050612b06565b6000612bfb8383611f15565b15612c08575060016108d1565b6001600160a01b0380841660009081526007602090815260408083209386168352929052205460ff166127c2565b6008546001600160a01b03163314612c605760405162461bcd60e51b8152600401610a6790613ffb565b601d54612c6e9060016140b0565b612c7782611708565b10612cbb5760405162461bcd60e51b81526020600482015260146024820152731d185b9ac81a5cc8185d081b585e081b195d995b60621b6044820152606401610a67565b6001600160a01b0381166000908152601c60205260408120805460ff1691612ce283614104565b91906101000a81548160ff021916908360ff1602179055505050565b6008546001600160a01b03163314612d285760405162461bcd60e51b8152600401610a6790613ffb565b6001600160a01b038116612d8d5760405162461bcd60e51b815260206004820152602660248201527f4f776e61626c653a206e6577206f776e657220697320746865207a65726f206160448201526564647265737360d01b6064820152608401610a67565b611c0e81613174565b6008546001600160a01b03163314612dc05760405162461bcd60e51b8152600401610a6790613ffb565b600d55565b60008054821080156108d1575050600090815260046020526040902054600160e01b900460ff161590565b60008281526006602052604080822080546001600160a01b0319166001600160a01b0387811691821790925591518593918516917f8c5be1e5ebec7d5bd14f71427d1e84f3dd0314c0f7b2291e5b200ac8c7c3b92591a4505050565b6001600160a01b038116600090815260018301602052604081205415156127c2565b60006108d1825490565b60006127c283836132da565b600081815260018301602052604081205415156127c2565b60006127c28383613304565b600e54610100900460ff16612ebc57505050565b6000818152600f602090815260408220805460018101825590835290822042910155600e5462010000900460ff1615612f0057612ef98433611f15565b9050612f1b565b333b15158015612f185750326001600160a01b038416145b90505b801561235d5760008281526011602090815260408083206001600160a01b038816845290915290205460ff16612f795760008281526011602090815260408083206001600160a01b03881684529091529020805460ff191660011790555b60008281526011602090815260408083206001600160a01b038716845290915290205460ff1661235d57506000908152601060209081526040822080546001810182559083529120429101555050565b610a368383836133f7565b612fdf8484846133f7565b6001600160a01b0383163b151580156130015750612fff848484846135e5565b155b1561235d576040516368d2bf6b60e11b815260040160405180910390fd5b60006127c283836136cd565b60006127c2836001600160a01b0384166136cd565b60408051606081018252600080825260208201819052918101919091528160005481101561314157600081815260046020908152604091829020825160608101845290546001600160a01b0381168252600160a01b81046001600160401b031692820192909252600160e01b90910460ff1615159181018290529061313f5780516001600160a01b0316156130d6579392505050565b5060001901600081815260046020908152604091829020825160608101845290546001600160a01b038116808352600160a01b82046001600160401b031693830193909352600160e01b900460ff161515928101929092521561313a579392505050565b6130d6565b505b604051636f96cda160e11b815260040160405180910390fd5b61132582826040518060200160405280600081525061371c565b600880546001600160a01b038381166001600160a01b0319831681179093556040519116919082907f8be0079c531659141344cd1fd0a4f28419497f9722a3daafe3b4186f6b6457e090600090a35050565b6060600c80546108e690613f42565b6060816131f95750506040805180820190915260018152600360fc1b602082015290565b8160005b8115613223578061320d81613fe0565b915061321c9050600a83614169565b91506131fd565b6000816001600160401b0381111561323d5761323d613bb9565b6040519080825280601f01601f191660200182016040528015613267576020820181803683370190505b5090505b84156132d25761327c60018361417d565b9150613289600a86614194565b6132949060306140b0565b60f81b8183815181106132a9576132a9613fb4565b60200101906001600160f81b031916908160001a9053506132cb600a86614169565b945061326b565b949350505050565b60008260000182815481106132f1576132f1613fb4565b9060005260206000200154905092915050565b600081815260018301602052604081205480156133ed57600061332860018361417d565b855490915060009061333c9060019061417d565b90508181146133a157600086600001828154811061335c5761335c613fb4565b906000526020600020015490508087600001848154811061337f5761337f613fb4565b6000918252602080832090910192909255918252600188019052604090208390555b85548690806133b2576133b26141a8565b6001900381819060005260206000200160009055905585600101600086815260200190815260200160002060009055600193505050506108d1565b60009150506108d1565b600061340282613040565b9050836001600160a01b031681600001516001600160a01b0316146134395760405162a1148160e81b815260040160405180910390fd5b6000336001600160a01b038616148061345757506134578533612bef565b8061347257503361346784610969565b6001600160a01b0316145b90508061349257604051632ce44b5f60e11b815260040160405180910390fd5b6001600160a01b0384166134b957604051633a954ecd60e21b815260040160405180910390fd5b6134c560008487612df0565b6001600160a01b038581166000908152600560209081526040808320805467ffffffffffffffff198082166001600160401b0392831660001901831617909255898616808652838620805493841693831660019081018416949094179055898652600490945282852080546001600160e01b031916909417600160a01b4290921691909102178355870180845292208054919390911661359957600054821461359957805460208601516001600160401b0316600160a01b026001600160e01b03199091166001600160a01b038a16171781555b50505082846001600160a01b0316866001600160a01b03167fddf252ad1be2c89b69c2b068fc378daa952ba7f163c4a11628f55a4df523b3ef60405160405180910390a45b5050505050565b604051630a85bd0160e11b81526000906001600160a01b0385169063150b7a029061361a9033908990889088906004016141be565b6020604051808303816000875af1925050508015613655575060408051601f3d908101601f19168201909252613652918101906141f1565b60015b6136b0573d808015613683576040519150601f19603f3d011682016040523d82523d6000602084013e613688565b606091505b5080516136a8576040516368d2bf6b60e11b815260040160405180910390fd5b805181602001fd5b6001600160e01b031916630a85bd0160e11b149050949350505050565b6000818152600183016020526040812054613714575081546001818101845560008481526020808220909301849055845484825282860190935260409020919091556108d1565b5060006108d1565b610a3683838360016000546001600160a01b03851661374d57604051622e076360e81b815260040160405180910390fd5b8361376b5760405163b562e8dd60e01b815260040160405180910390fd5b6001600160a01b038516600081815260056020908152604080832080546fffffffffffffffffffffffffffffffff1981166001600160401b038083168c0181169182176801000000000000000067ffffffffffffffff1990941690921783900481168c01811690920217909155858452600490925290912080546001600160e01b031916909217600160a01b42909216919091021790558080850183801561381c57506001600160a01b0387163b15155b156138a5575b60405182906001600160a01b038916906000907fddf252ad1be2c89b69c2b068fc378daa952ba7f163c4a11628f55a4df523b3ef908290a461386d60008884806001019550886135e5565b61388a576040516368d2bf6b60e11b815260040160405180910390fd5b808214156138225782600054146138a057600080fd5b6138eb565b5b6040516001830192906001600160a01b038916906000907fddf252ad1be2c89b69c2b068fc378daa952ba7f163c4a11628f55a4df523b3ef908290a4808214156138a6575b506000556135de565b82805482825590600052602060002090810192821561392f579160200282015b8281111561392f578251825591602001919060010190613914565b5061393b9291506139b2565b5090565b82805461394b90613f42565b90600052602060002090601f01602090048101928261396d576000855561392f565b82601f1061398657805160ff191683800117855561392f565b8280016001018555821561392f579182018281111561392f578251825591602001919060010190613914565b5b8082111561393b57600081556001016139b3565b6001600160a01b0381168114611c0e57600080fd5b600080604083850312156139ef57600080fd5b823591506020830135613a01816139c7565b809150509250929050565b6001600160e01b031981168114611c0e57600080fd5b600060208284031215613a3457600080fd5b81356127c281613a0c565b60005b83811015613a5a578181015183820152602001613a42565b8381111561235d5750506000910152565b60008151808452613a83816020860160208601613a3f565b601f01601f19169290920160200192915050565b6020815260006127c26020830184613a6b565b600060208284031215613abc57600080fd5b5035919050565b60008060408385031215613ad657600080fd5b8235613ae1816139c7565b946020939093013593505050565b600081518084526020808501945080840160005b83811015613b1f57815187529582019590820190600101613b03565b509495945050505050565b606081526000613b3d6060830186613aef565b602083820381850152613b508287613aef565b8481036040860152855180825282870193509082019060005b81811015613b8e5784516001600160a01b031683529383019391830191600101613b69565b509098975050505050505050565b600060208284031215613bae57600080fd5b81356127c2816139c7565b634e487b7160e01b600052604160045260246000fd5b604051601f8201601f191681016001600160401b0381118282101715613bf757613bf7613bb9565b604052919050565b600082601f830112613c1057600080fd5b813560206001600160401b03821115613c2b57613c2b613bb9565b8160051b613c3a828201613bcf565b9283528481018201928281019087851115613c5457600080fd5b83870192505b84831015613c7357823582529183019190830190613c5a565b979650505050505050565b600080600060608486031215613c9357600080fd5b8335613c9e816139c7565b925060208401356001600160401b03811115613cb957600080fd5b613cc586828701613bff565b925050604084013590509250925092565b60008060408385031215613ce957600080fd5b8235613cf4816139c7565b91506020830135613a01816139c7565b606081526000613d176060830186613aef565b8281036020840152613d298186613aef565b90508281036040840152613d3d8185613aef565b9695505050505050565b600080600060608486031215613d5c57600080fd5b8335613d67816139c7565b92506020840135613d77816139c7565b929592945050506040919091013590565b600060208284031215613d9a57600080fd5b81356001600160401b03811115613db057600080fd5b6132d284828501613bff565b60006001600160401b03831115613dd557613dd5613bb9565b613de8601f8401601f1916602001613bcf565b9050828152838383011115613dfc57600080fd5b828260208301376000602084830101529392505050565b600060208284031215613e2557600080fd5b81356001600160401b03811115613e3b57600080fd5b8201601f81018413613e4c57600080fd5b6132d284823560208401613dbc565b6020815260006127c26020830184613aef565b60008060408385031215613e8157600080fd5b50508035926020909101359150565b60008060408385031215613ea357600080fd5b8235613eae816139c7565b915060208301358015158114613a0157600080fd5b60008060008060808587031215613ed957600080fd5b8435613ee4816139c7565b93506020850135613ef4816139c7565b92506040850135915060608501356001600160401b03811115613f1657600080fd5b8501601f81018713613f2757600080fd5b613f3687823560208401613dbc565b91505092959194509250565b600181811c90821680613f5657607f821691505b60208210811415613f7757634e487b7160e01b600052602260045260246000fd5b50919050565b60208082526018908201527f636f6e747261637420646f6573206e6f74206578697374730000000000000000604082015260600190565b634e487b7160e01b600052603260045260246000fd5b634e487b7160e01b600052601160045260246000fd5b6000600019821415613ff457613ff4613fca565b5060010190565b6020808252818101527f4f776e61626c653a2063616c6c6572206973206e6f7420746865206f776e6572604082015260600190565b6020808252601f908201527f5265656e7472616e637947756172643a207265656e7472616e742063616c6c00604082015260600190565b6001600160a01b039384168152919092166020820152604081019190915260600190565b600060ff821660ff84168060ff038211156140a8576140a8613fca565b019392505050565b600082198211156140c3576140c3613fca565b500190565b60008160001904831182151516156140e2576140e2613fca565b500290565b6000602082840312156140f957600080fd5b81516127c2816139c7565b600060ff821660ff81141561411b5761411b613fca565b60010192915050565b60008351614136818460208801613a3f565b83519083019061414a818360208801613a3f565b01949350505050565b634e487b7160e01b600052601260045260246000fd5b60008261417857614178614153565b500490565b60008282101561418f5761418f613fca565b500390565b6000826141a3576141a3614153565b500690565b634e487b7160e01b600052603160045260246000fd5b6001600160a01b0385811682528416602082015260408101839052608060608201819052600090613d3d90830184613a6b565b60006020828403121561420357600080fd5b81516127c281613a0c56fea264697066735822122026b4374f7f527759fa1f85dec827330e672b15488480c9f869acfe1f7c69a51064736f6c634300080b00334f776e61626c653a2063616c6c6572206973206e6f7420746865206f776e6572",
  "linkReferences": {},
  "deployedLinkReferences": {}
}