{
  "_format": "hh-sol-artifact-1",
  "contractName": "Land",
  "sourceName": "contracts/Land.sol",
  "abi": [
    {
      "inputs": [
        {
          "internalType": "string",
          "name": "uri",
          "type": "string"
        },
        {
          "internalType": "address",
          "name": "_oxgnToken",
          "type": "address"
        },
        {
          "internalType": "address",
          "name": "_clansAddress",
          "type": "address"
        },
        {
          "internalType": "address",
          "name": "_proxyRegistryAddress",
          "type": "address"
        }
      ],
      "stateMutability": "nonpayable",
      "type": "constructor"
    },
    {
      "inputs": [],
      "name": "ApprovalCallerNotOwnerNorApproved",
      "type": "error"
    },
    {
      "inputs": [],
      "name": "ApprovalQueryForNonexistentToken",
      "type": "error"
    },
    {
      "inputs": [],
      "name": "ApprovalToCurrentOwner",
      "type": "error"
    },
    {
      "inputs": [],
      "name": "ApproveToCaller",
      "type": "error"
    },
    {
      "inputs": [],
      "name": "BalanceQueryForZeroAddress",
      "type": "error"
    },
    {
      "inputs": [],
      "name": "MintToZeroAddress",
      "type": "error"
    },
    {
      "inputs": [],
      "name": "MintZeroQuantity",
      "type": "error"
    },
    {
      "inputs": [],
      "name": "OwnerQueryForNonexistentToken",
      "type": "error"
    },
    {
      "inputs": [],
      "name": "TransferCallerNotOwnerNorApproved",
      "type": "error"
    },
    {
      "inputs": [],
      "name": "TransferFromIncorrectOwner",
      "type": "error"
    },
    {
      "inputs": [],
      "name": "TransferToNonERC721ReceiverImplementer",
      "type": "error"
    },
    {
      "inputs": [],
      "name": "TransferToZeroAddress",
      "type": "error"
    },
    {
      "inputs": [],
      "name": "URIQueryForNonexistentToken",
      "type": "error"
    },
    {
      "anonymous": false,
      "inputs": [
        {
          "indexed": true,
          "internalType": "address",
          "name": "owner",
          "type": "address"
        },
        {
          "indexed": true,
          "internalType": "address",
          "name": "approved",
          "type": "address"
        },
        {
          "indexed": true,
          "internalType": "uint256",
          "name": "tokenId",
          "type": "uint256"
        }
      ],
      "name": "Approval",
      "type": "event"
    },
    {
      "anonymous": false,
      "inputs": [
        {
          "indexed": true,
          "internalType": "address",
          "name": "owner",
          "type": "address"
        },
        {
          "indexed": true,
          "internalType": "address",
          "name": "operator",
          "type": "address"
        },
        {
          "indexed": false,
          "internalType": "bool",
          "name": "approved",
          "type": "bool"
        }
      ],
      "name": "ApprovalForAll",
      "type": "event"
    },
    {
      "anonymous": false,
      "inputs": [
        {
          "indexed": true,
          "internalType": "address",
          "name": "previousOwner",
          "type": "address"
        },
        {
          "indexed": true,
          "internalType": "address",
          "name": "newOwner",
          "type": "address"
        }
      ],
      "name": "OwnershipTransferred",
      "type": "event"
    },
    {
      "anonymous": false,
      "inputs": [
        {
          "indexed": false,
          "internalType": "uint256",
          "name": "tokenId",
          "type": "uint256"
        },
        {
          "indexed": false,
          "internalType": "address",
          "name": "contractAddress",
          "type": "address"
        },
        {
          "indexed": false,
          "internalType": "address",
          "name": "owner",
          "type": "address"
        },
        {
          "indexed": true,
          "internalType": "uint256",
          "name": "landTokenId",
          "type": "uint256"
        }
      ],
      "name": "Stake",
      "type": "event"
    },
    {
      "anonymous": false,
      "inputs": [
        {
          "indexed": false,
          "internalType": "uint256",
          "name": "tokenId",
          "type": "uint256"
        },
        {
          "indexed": false,
          "internalType": "address",
          "name": "contractAddress",
          "type": "address"
        },
        {
          "indexed": false,
          "internalType": "address",
          "name": "owner",
          "type": "address"
        },
        {
          "indexed": true,
          "internalType": "uint256",
          "name": "landTokenId",
          "type": "uint256"
        }
      ],
      "name": "StakeInternal",
      "type": "event"
    },
    {
      "anonymous": false,
      "inputs": [
        {
          "indexed": true,
          "internalType": "address",
          "name": "from",
          "type": "address"
        },
        {
          "indexed": true,
          "internalType": "address",
          "name": "to",
          "type": "address"
        },
        {
          "indexed": true,
          "internalType": "uint256",
          "name": "tokenId",
          "type": "uint256"
        }
      ],
      "name": "Transfer",
      "type": "event"
    },
    {
      "anonymous": false,
      "inputs": [
        {
          "indexed": false,
          "internalType": "uint256",
          "name": "tokenId",
          "type": "uint256"
        },
        {
          "indexed": false,
          "internalType": "address",
          "name": "contractAddress",
          "type": "address"
        },
        {
          "indexed": false,
          "internalType": "address",
          "name": "owner",
          "type": "address"
        },
        {
          "indexed": true,
          "internalType": "uint256",
          "name": "landTokenId",
          "type": "uint256"
        }
      ],
      "name": "Unstake",
      "type": "event"
    },
    {
      "anonymous": false,
      "inputs": [
        {
          "indexed": false,
          "internalType": "uint256",
          "name": "tokenId",
          "type": "uint256"
        },
        {
          "indexed": false,
          "internalType": "address",
          "name": "contractAddress",
          "type": "address"
        },
        {
          "indexed": false,
          "internalType": "address",
          "name": "owner",
          "type": "address"
        },
        {
          "indexed": true,
          "internalType": "uint256",
          "name": "landTokenId",
          "type": "uint256"
        }
      ],
      "name": "UnstakeInternal",
      "type": "event"
    },
    {
      "inputs": [],
      "name": "MAX_SUPPLY",
      "outputs": [
        {
          "internalType": "uint256",
          "name": "",
          "type": "uint256"
        }
      ],
      "stateMutability": "view",
      "type": "function"
    },
    {
      "inputs": [
        {
          "internalType": "address",
          "name": "contractAddress",
          "type": "address"
        }
      ],
      "name": "addContract",
      "outputs": [],
      "stateMutability": "nonpayable",
      "type": "function"
    },
    {
      "inputs": [
        {
          "internalType": "address",
          "name": "to",
          "type": "address"
        },
        {
          "internalType": "uint256",
          "name": "tokenId",
          "type": "uint256"
        }
      ],
      "name": "approve",
      "outputs": [],
      "stateMutability": "nonpayable",
      "type": "function"
    },
    {
      "inputs": [
        {
          "internalType": "address",
          "name": "owner",
          "type": "address"
        }
      ],
      "name": "balanceOf",
      "outputs": [
        {
          "internalType": "uint256",
          "name": "",
          "type": "uint256"
        }
      ],
      "stateMutability": "view",
      "type": "function"
    },
    {
      "inputs": [
        {
          "internalType": "uint256",
          "name": "landTokenId",
          "type": "uint256"
        },
        {
          "internalType": "uint256",
          "name": "itemId",
          "type": "uint256"
        },
        {
          "internalType": "uint256",
          "name": "cost",
          "type": "uint256"
        }
      ],
      "name": "buyUpgrades",
      "outputs": [],
      "stateMutability": "nonpayable",
      "type": "function"
    },
    {
      "inputs": [],
      "name": "clansAddress",
      "outputs": [
        {
          "internalType": "address",
          "name": "",
          "type": "address"
        }
      ],
      "stateMutability": "view",
      "type": "function"
    },
    {
      "inputs": [
        {
          "internalType": "address",
          "name": "",
          "type": "address"
        }
      ],
      "name": "contracts",
      "outputs": [
        {
          "internalType": "bool",
          "name": "active",
          "type": "bool"
        },
        {
          "internalType": "contract IERC721",
          "name": "instance",
          "type": "address"
        }
      ],
      "stateMutability": "view",
      "type": "function"
    },
    {
      "inputs": [
        {
          "internalType": "uint256",
          "name": "tokenId",
          "type": "uint256"
        }
      ],
      "name": "getApproved",
      "outputs": [
        {
          "internalType": "address",
          "name": "",
          "type": "address"
        }
      ],
      "stateMutability": "view",
      "type": "function"
    },
    {
      "inputs": [
        {
          "internalType": "address",
          "name": "addr",
          "type": "address"
        }
      ],
      "name": "getTokenIDs",
      "outputs": [
        {
          "internalType": "uint256[]",
          "name": "",
          "type": "uint256[]"
        }
      ],
      "stateMutability": "view",
      "type": "function"
    },
    {
      "inputs": [
        {
          "internalType": "address",
          "name": "owner",
          "type": "address"
        },
        {
          "internalType": "address",
          "name": "operator",
          "type": "address"
        }
      ],
      "name": "isApprovedForAll",
      "outputs": [
        {
          "internalType": "bool",
          "name": "",
          "type": "bool"
        }
      ],
      "stateMutability": "view",
      "type": "function"
    },
    {
      "inputs": [
        {
          "internalType": "address",
          "name": "owner",
          "type": "address"
        },
        {
          "internalType": "address",
          "name": "operator",
          "type": "address"
        }
      ],
      "name": "isValidOpenseaProxy",
      "outputs": [
        {
          "internalType": "bool",
          "name": "",
          "type": "bool"
        }
      ],
      "stateMutability": "view",
      "type": "function"
    },
    {
      "inputs": [
        {
          "internalType": "uint256",
          "name": "",
          "type": "uint256"
        },
        {
          "internalType": "uint256",
          "name": "",
          "type": "uint256"
        }
      ],
      "name": "landToItem",
      "outputs": [
        {
          "internalType": "uint256",
          "name": "",
          "type": "uint256"
        }
      ],
      "stateMutability": "view",
      "type": "function"
    },
    {
      "inputs": [],
      "name": "mintPrice",
      "outputs": [
        {
          "internalType": "uint256",
          "name": "",
          "type": "uint256"
        }
      ],
      "stateMutability": "view",
      "type": "function"
    },
    {
      "inputs": [],
      "name": "name",
      "outputs": [
        {
          "internalType": "string",
          "name": "",
          "type": "string"
        }
      ],
      "stateMutability": "view",
      "type": "function"
    },
    {
      "inputs": [
        {
          "internalType": "address",
          "name": "owner",
          "type": "address"
        }
      ],
      "name": "nextLevelTankPrice",
      "outputs": [
        {
          "internalType": "uint256",
          "name": "",
          "type": "uint256"
        }
      ],
      "stateMutability": "view",
      "type": "function"
    },
    {
      "inputs": [],
      "name": "openseaProxyEnabled",
      "outputs": [
        {
          "internalType": "bool",
          "name": "",
          "type": "bool"
        }
      ],
      "stateMutability": "view",
      "type": "function"
    },
    {
      "inputs": [],
      "name": "owner",
      "outputs": [
        {
          "internalType": "address",
          "name": "",
          "type": "address"
        }
      ],
      "stateMutability": "view",
      "type": "function"
    },
    {
      "inputs": [
        {
          "internalType": "uint256",
          "name": "tokenId",
          "type": "uint256"
        }
      ],
      "name": "ownerOf",
      "outputs": [
        {
          "internalType": "address",
          "name": "",
          "type": "address"
        }
      ],
      "stateMutability": "view",
      "type": "function"
    },
    {
      "inputs": [],
      "name": "oxgnToken",
      "outputs": [
        {
          "internalType": "contract IOxygen",
          "name": "",
          "type": "address"
        }
      ],
      "stateMutability": "view",
      "type": "function"
    },
    {
      "inputs": [
        {
          "internalType": "uint256",
          "name": "amount",
          "type": "uint256"
        }
      ],
      "name": "paidMint",
      "outputs": [],
      "stateMutability": "nonpayable",
      "type": "function"
    },
    {
      "inputs": [],
      "name": "proxyRegistryAddress",
      "outputs": [
        {
          "internalType": "address",
          "name": "",
          "type": "address"
        }
      ],
      "stateMutability": "view",
      "type": "function"
    },
    {
      "inputs": [],
      "name": "renounceOwnership",
      "outputs": [],
      "stateMutability": "nonpayable",
      "type": "function"
    },
    {
      "inputs": [
        {
          "internalType": "uint256",
          "name": "tokenId",
          "type": "uint256"
        }
      ],
      "name": "resetTimestamps",
      "outputs": [
        {
          "internalType": "uint256[]",
          "name": "",
          "type": "uint256[]"
        }
      ],
      "stateMutability": "view",
      "type": "function"
    },
    {
      "inputs": [
        {
          "internalType": "address",
          "name": "from",
          "type": "address"
        },
        {
          "internalType": "address",
          "name": "to",
          "type": "address"
        },
        {
          "internalType": "uint256",
          "name": "tokenId",
          "type": "uint256"
        }
      ],
      "name": "safeTransferFrom",
      "outputs": [],
      "stateMutability": "nonpayable",
      "type": "function"
    },
    {
      "inputs": [
        {
          "internalType": "address",
          "name": "from",
          "type": "address"
        },
        {
          "internalType": "address",
          "name": "to",
          "type": "address"
        },
        {
          "internalType": "uint256",
          "name": "tokenId",
          "type": "uint256"
        },
        {
          "internalType": "bytes",
          "name": "_data",
          "type": "bytes"
        }
      ],
      "name": "safeTransferFrom",
      "outputs": [],
      "stateMutability": "nonpayable",
      "type": "function"
    },
    {
      "inputs": [],
      "name": "saleEnabled",
      "outputs": [
        {
          "internalType": "bool",
          "name": "",
          "type": "bool"
        }
      ],
      "stateMutability": "view",
      "type": "function"
    },
    {
      "inputs": [
        {
          "internalType": "address",
          "name": "operator",
          "type": "address"
        },
        {
          "internalType": "bool",
          "name": "approved",
          "type": "bool"
        }
      ],
      "name": "setApprovalForAll",
      "outputs": [],
      "stateMutability": "nonpayable",
      "type": "function"
    },
    {
      "inputs": [
        {
          "internalType": "string",
          "name": "newBaseURI",
          "type": "string"
        }
      ],
      "name": "setBaseURI",
      "outputs": [],
      "stateMutability": "nonpayable",
      "type": "function"
    },
    {
      "inputs": [
        {
          "internalType": "address",
          "name": "_clansAddress",
          "type": "address"
        }
      ],
      "name": "setClansContract",
      "outputs": [],
      "stateMutability": "nonpayable",
      "type": "function"
    },
    {
      "inputs": [
        {
          "internalType": "uint256",
          "name": "newMaxSupply",
          "type": "uint256"
        }
      ],
      "name": "setMaxSupply",
      "outputs": [],
      "stateMutability": "nonpayable",
      "type": "function"
    },
    {
      "inputs": [
        {
          "internalType": "uint256",
          "name": "newPrice",
          "type": "uint256"
        }
      ],
      "name": "setMintPrice",
      "outputs": [],
      "stateMutability": "nonpayable",
      "type": "function"
    },
    {
      "inputs": [
        {
          "internalType": "address",
          "name": "_oxgnToken",
          "type": "address"
        }
      ],
      "name": "setOxgnContract",
      "outputs": [],
      "stateMutability": "nonpayable",
      "type": "function"
    },
    {
      "inputs": [
        {
          "internalType": "address",
          "name": "_proxyRegistryAddress",
          "type": "address"
        }
      ],
      "name": "setProxyRegistry",
      "outputs": [],
      "stateMutability": "nonpayable",
      "type": "function"
    },
    {
      "inputs": [
        {
          "internalType": "uint256[]",
          "name": "newPrices",
          "type": "uint256[]"
        }
      ],
      "name": "setTankPrices",
      "outputs": [],
      "stateMutability": "nonpayable",
      "type": "function"
    },
    {
      "inputs": [
        {
          "internalType": "address",
          "name": "contractAddress",
          "type": "address"
        },
        {
          "internalType": "uint256[]",
          "name": "tokenIds",
          "type": "uint256[]"
        },
        {
          "internalType": "uint256",
          "name": "landTokenId",
          "type": "uint256"
        }
      ],
      "name": "stake",
      "outputs": [],
      "stateMutability": "nonpayable",
      "type": "function"
    },
    {
      "inputs": [
        {
          "internalType": "address",
          "name": "contractAddress",
          "type": "address"
        },
        {
          "internalType": "uint256[]",
          "name": "tokenIds",
          "type": "uint256[]"
        },
        {
          "internalType": "uint256",
          "name": "landTokenId",
          "type": "uint256"
        }
      ],
      "name": "stakeInternal",
      "outputs": [],
      "stateMutability": "nonpayable",
      "type": "function"
    },
    {
      "inputs": [
        {
          "internalType": "address",
          "name": "contractAddress",
          "type": "address"
        },
        {
          "internalType": "uint256",
          "name": "landId",
          "type": "uint256"
        }
      ],
      "name": "stakedByLand",
      "outputs": [
        {
          "internalType": "uint256[]",
          "name": "stakedIds",
          "type": "uint256[]"
        },
        {
          "internalType": "uint256[]",
          "name": "stakedTimestamps",
          "type": "uint256[]"
        },
        {
          "internalType": "address[]",
          "name": "owners",
          "type": "address[]"
        }
      ],
      "stateMutability": "view",
      "type": "function"
    },
    {
      "inputs": [
        {
          "internalType": "address",
          "name": "contractAddress",
          "type": "address"
        },
        {
          "internalType": "uint256",
          "name": "landId",
          "type": "uint256"
        }
      ],
      "name": "stakedByLandInternal",
      "outputs": [
        {
          "internalType": "uint256[]",
          "name": "stakedIds",
          "type": "uint256[]"
        },
        {
          "internalType": "uint256[]",
          "name": "stakedTimestamps",
          "type": "uint256[]"
        },
        {
          "internalType": "address[]",
          "name": "owners",
          "type": "address[]"
        }
      ],
      "stateMutability": "view",
      "type": "function"
    },
    {
      "inputs": [
        {
          "internalType": "address",
          "name": "contractAddress",
          "type": "address"
        },
        {
          "internalType": "address",
          "name": "owner",
          "type": "address"
        }
      ],
      "name": "stakedByOwner",
      "outputs": [
        {
          "internalType": "uint256[]",
          "name": "stakedIds",
          "type": "uint256[]"
        },
        {
          "internalType": "uint256[]",
          "name": "stakedTimestamps",
          "type": "uint256[]"
        },
        {
          "internalType": "uint256[]",
          "name": "landIds",
          "type": "uint256[]"
        }
      ],
      "stateMutability": "view",
      "type": "function"
    },
    {
      "inputs": [
        {
          "internalType": "address",
          "name": "contractAddress",
          "type": "address"
        },
        {
          "internalType": "address",
          "name": "owner",
          "type": "address"
        }
      ],
      "name": "stakedByOwnerInternal",
      "outputs": [
        {
          "internalType": "uint256[]",
          "name": "stakedIds",
          "type": "uint256[]"
        },
        {
          "internalType": "uint256[]",
          "name": "stakedTimestamps",
          "type": "uint256[]"
        },
        {
          "internalType": "uint256[]",
          "name": "landIds",
          "type": "uint256[]"
        }
      ],
      "stateMutability": "view",
      "type": "function"
    },
    {
      "inputs": [
        {
          "internalType": "address",
          "name": "contractAddress",
          "type": "address"
        },
        {
          "internalType": "uint256",
          "name": "tokenId",
          "type": "uint256"
        }
      ],
      "name": "stakedByToken",
      "outputs": [
        {
          "internalType": "address",
          "name": "",
          "type": "address"
        },
        {
          "internalType": "uint256",
          "name": "",
          "type": "uint256"
        },
        {
          "internalType": "uint256",
          "name": "",
          "type": "uint256"
        }
      ],
      "stateMutability": "view",
      "type": "function"
    },
    {
      "inputs": [
        {
          "internalType": "address",
          "name": "contractAddress",
          "type": "address"
        },
        {
          "internalType": "uint256",
          "name": "tokenId",
          "type": "uint256"
        }
      ],
      "name": "stakedByTokenInternal",
      "outputs": [
        {
          "internalType": "address",
          "name": "",
          "type": "address"
        },
        {
          "internalType": "uint256",
          "name": "",
          "type": "uint256"
        },
        {
          "internalType": "uint256",
          "name": "",
          "type": "uint256"
        }
      ],
      "stateMutability": "view",
      "type": "function"
    },
    {
      "inputs": [
        {
          "internalType": "bytes4",
          "name": "interfaceId",
          "type": "bytes4"
        }
      ],
      "name": "supportsInterface",
      "outputs": [
        {
          "internalType": "bool",
          "name": "",
          "type": "bool"
        }
      ],
      "stateMutability": "view",
      "type": "function"
    },
    {
      "inputs": [],
      "name": "symbol",
      "outputs": [
        {
          "internalType": "string",
          "name": "",
          "type": "string"
        }
      ],
      "stateMutability": "view",
      "type": "function"
    },
    {
      "inputs": [
        {
          "internalType": "address",
          "name": "owner",
          "type": "address"
        }
      ],
      "name": "tankLevelOfOwner",
      "outputs": [
        {
          "internalType": "uint256",
          "name": "",
          "type": "uint256"
        }
      ],
      "stateMutability": "view",
      "type": "function"
    },
    {
      "inputs": [
        {
          "internalType": "uint256",
          "name": "",
          "type": "uint256"
        }
      ],
      "name": "tankPrices",
      "outputs": [
        {
          "internalType": "uint256",
          "name": "",
          "type": "uint256"
        }
      ],
      "stateMutability": "view",
      "type": "function"
    },
    {
      "inputs": [],
      "name": "toggleOpenseaProxy",
      "outputs": [],
      "stateMutability": "nonpayable",
      "type": "function"
    },
    {
      "inputs": [],
      "name": "toggleSale",
      "outputs": [],
      "stateMutability": "nonpayable",
      "type": "function"
    },
    {
      "inputs": [],
      "name": "toggleTransferLogic",
      "outputs": [],
      "stateMutability": "nonpayable",
      "type": "function"
    },
    {
      "inputs": [],
      "name": "toggleUpgradeSameColony",
      "outputs": [],
      "stateMutability": "nonpayable",
      "type": "function"
    },
    {
      "inputs": [
        {
          "internalType": "uint256",
          "name": "",
          "type": "uint256"
        },
        {
          "internalType": "address",
          "name": "",
          "type": "address"
        }
      ],
      "name": "tokenToBlacklist",
      "outputs": [
        {
          "internalType": "bool",
          "name": "",
          "type": "bool"
        }
      ],
      "stateMutability": "view",
      "type": "function"
    },
    {
      "inputs": [
        {
          "internalType": "uint256",
          "name": "",
          "type": "uint256"
        },
        {
          "internalType": "uint256",
          "name": "",
          "type": "uint256"
        }
      ],
      "name": "tokenToResetTimestamp",
      "outputs": [
        {
          "internalType": "uint256",
          "name": "",
          "type": "uint256"
        }
      ],
      "stateMutability": "view",
      "type": "function"
    },
    {
      "inputs": [
        {
          "internalType": "uint256",
          "name": "",
          "type": "uint256"
        },
        {
          "internalType": "uint256",
          "name": "",
          "type": "uint256"
        }
      ],
      "name": "tokenToTransferTimestamp",
      "outputs": [
        {
          "internalType": "uint256",
          "name": "",
          "type": "uint256"
        }
      ],
      "stateMutability": "view",
      "type": "function"
    },
    {
      "inputs": [
        {
          "internalType": "uint256",
          "name": "tokenId",
          "type": "uint256"
        }
      ],
      "name": "tokenURI",
      "outputs": [
        {
          "internalType": "string",
          "name": "",
          "type": "string"
        }
      ],
      "stateMutability": "view",
      "type": "function"
    },
    {
      "inputs": [],
      "name": "totalSupply",
      "outputs": [
        {
          "internalType": "uint256",
          "name": "",
          "type": "uint256"
        }
      ],
      "stateMutability": "view",
      "type": "function"
    },
    {
      "inputs": [
        {
          "internalType": "address",
          "name": "from",
          "type": "address"
        },
        {
          "internalType": "address",
          "name": "to",
          "type": "address"
        },
        {
          "internalType": "uint256",
          "name": "tokenId",
          "type": "uint256"
        }
      ],
      "name": "transferFrom",
      "outputs": [],
      "stateMutability": "nonpayable",
      "type": "function"
    },
    {
      "inputs": [],
      "name": "transferLogicEnabled",
      "outputs": [
        {
          "internalType": "bool",
          "name": "",
          "type": "bool"
        }
      ],
      "stateMutability": "view",
      "type": "function"
    },
    {
      "inputs": [
        {
          "internalType": "address",
          "name": "newOwner",
          "type": "address"
        }
      ],
      "name": "transferOwnership",
      "outputs": [],
      "stateMutability": "nonpayable",
      "type": "function"
    },
    {
      "inputs": [
        {
          "internalType": "uint256",
          "name": "tokenId",
          "type": "uint256"
        }
      ],
      "name": "transferTimestamps",
      "outputs": [
        {
          "internalType": "uint256[]",
          "name": "",
          "type": "uint256[]"
        }
      ],
      "stateMutability": "view",
      "type": "function"
    },
    {
      "inputs": [
        {
          "internalType": "address",
          "name": "contractAddress",
          "type": "address"
        },
        {
          "internalType": "uint256[]",
          "name": "tokenIds",
          "type": "uint256[]"
        },
        {
          "internalType": "uint256",
          "name": "landTokenId",
          "type": "uint256"
        }
      ],
      "name": "unstake",
      "outputs": [],
      "stateMutability": "nonpayable",
      "type": "function"
    },
    {
      "inputs": [
        {
          "internalType": "address",
          "name": "contractAddress",
          "type": "address"
        },
        {
          "internalType": "uint256[]",
          "name": "tokenIds",
          "type": "uint256[]"
        },
        {
          "internalType": "uint256",
          "name": "landTokenId",
          "type": "uint256"
        }
      ],
      "name": "unstakeInternal",
      "outputs": [],
      "stateMutability": "nonpayable",
      "type": "function"
    },
    {
      "inputs": [
        {
          "internalType": "address",
          "name": "contractAddress",
          "type": "address"
        },
        {
          "internalType": "bool",
          "name": "active",
          "type": "bool"
        }
      ],
      "name": "updateContract",
      "outputs": [],
      "stateMutability": "nonpayable",
      "type": "function"
    },
    {
      "inputs": [],
      "name": "upgradeSameColonyEnabled",
      "outputs": [
        {
          "internalType": "bool",
          "name": "",
          "type": "bool"
        }
      ],
      "stateMutability": "view",
      "type": "function"
    },
    {
      "inputs": [],
      "name": "upgradeTank",
      "outputs": [],
      "stateMutability": "nonpayable",
      "type": "function"
    },
    {
      "inputs": [
        {
          "internalType": "address",
          "name": "receiver",
          "type": "address"
        }
      ],
      "name": "upgradeTankAccount",
      "outputs": [],
      "stateMutability": "nonpayable",
      "type": "function"
    }
  ],
  "bytecode": "0x6101f4600d55681b1ae4d6e2ef500000600f8190556010805463ffffffff191663010100011790556101a06040526080908152683635c9adc5dea0000060a052686c6b935b8bbd40000060c05268d8d726b7177a80000060e0526901b1ae4d6e2ef5000000610100526903635c9adc5dea000000610120526906c6b935b8bbd400000061014052690d8d726b7177a800000061016052691b1ae4d6e2ef5000000061018052620000b490602090600962000335565b50348015620000c257600080fd5b5060405162004c2a38038062004c2a833981016040819052620000e59162000457565b604080518082018252600a80825269164c8c4c8ccb93185b9960b21b6020808401828152855180870190965292855284015281519192916200012a9160029162000390565b5080516200014090600390602084019062000390565b50506000805550620001523362000198565b600160095583516200016c90600e90602087019062000390565b506200017883620001ea565b62000183826200025b565b6200018e81620002c8565b50505050620005aa565b600880546001600160a01b038381166001600160a01b0319831681179093556040519116919082907f8be0079c531659141344cd1fd0a4f28419497f9722a3daafe3b4186f6b6457e090600090a35050565b6008546001600160a01b03163314620002395760405162461bcd60e51b8152602060048201819052602482015260008051602062004c0a83398151915260448201526064015b60405180910390fd5b600c80546001600160a01b0319166001600160a01b0392909216919091179055565b6008546001600160a01b03163314620002a65760405162461bcd60e51b8152602060048201819052602482015260008051602062004c0a833981519152604482015260640162000230565b600a80546001600160a01b0319166001600160a01b0392909216919091179055565b6008546001600160a01b03163314620003135760405162461bcd60e51b8152602060048201819052602482015260008051602062004c0a833981519152604482015260640162000230565b600b80546001600160a01b0319166001600160a01b0392909216919091179055565b8280548282559060005260206000209081019282156200037e579160200282015b828111156200037e57825182906001600160501b031690559160200191906001019062000356565b506200038c9291506200040d565b5090565b8280546200039e906200056d565b90600052602060002090601f016020900481019282620003c257600085556200037e565b82601f10620003dd57805160ff19168380011785556200037e565b828001600101855582156200037e579182015b828111156200037e578251825591602001919060010190620003f0565b5b808211156200038c57600081556001016200040e565b634e487b7160e01b600052604160045260246000fd5b80516001600160a01b03811681146200045257600080fd5b919050565b600080600080608085870312156200046e57600080fd5b84516001600160401b03808211156200048657600080fd5b818701915087601f8301126200049b57600080fd5b815181811115620004b057620004b062000424565b604051601f8201601f19908116603f01168101908382118183101715620004db57620004db62000424565b81604052828152602093508a84848701011115620004f857600080fd5b600091505b828210156200051c5784820184015181830185015290830190620004fd565b828211156200052e5760008484830101525b9750620005409150508782016200043a565b9450505062000552604086016200043a565b915062000562606086016200043a565b905092959194509250565b600181811c908216806200058257607f821691505b60208210811415620005a457634e487b7160e01b600052602260045260246000fd5b50919050565b61465080620005ba6000396000f3fe608060405234801561001057600080fd5b50600436106103db5760003560e01c806371b9b6461161020a578063a473886711610125578063c87b56dd116100b8578063e7e7963011610087578063e7e79630146108ec578063e985e9c5146108ff578063f2fde38b14610912578063f4a0a52814610925578063f541d56c1461093857600080fd5b8063c87b56dd146108a0578063cd7c0326146108b3578063d4a342dc146108c6578063db74809c146108d957600080fd5b8063b88d4fde116100f4578063b88d4fde14610854578063b93a75d814610867578063c4db8a851461087a578063c5e7fa3b1461088d57600080fd5b8063a47388671461081e578063a971ea0614610826578063adfdeef914610839578063b2c499c41461084c57600080fd5b8063856c56331161019d5780638da5cb5b1161016c5780638da5cb5b146107e05780638eaeeb95146107f157806395d89b4114610803578063a22cb4651461080b57600080fd5b8063856c56331461079457806389002e55146107a75780638c864491146107ba5780638cee9d0f146107cd57600080fd5b8063806c440d116101d9578063806c440d1461075357806380ee446014610766578063842e91c114610779578063854222bc1461078c57600080fd5b806371b9b6461461070a578063783af6c1146107175780637ad50cc81461072b5780637d8966e41461074b57600080fd5b8063426d78be116102fa57806365cde7331161028d5780636d7332101161025c5780636d733210146106c95780636f8b44b0146106dc57806370a08231146106ef578063715018a61461070257600080fd5b806365cde733146106485780636817c76c1461065b57806369a453a71461066457806369dc9ff31461067757600080fd5b806355f804b3116102c957806355f804b3146105fc5780635e9abe391461060f5780635f539d69146106225780636352211e1461063557600080fd5b8063426d78be1461057357806342842e0e1461059e5780635315b15e146105b157806354fa7b6e146105e957600080fd5b806318160ddd116103725780633288d9ac116103415780633288d9ac1461053157806332cb6b0c14610544578063364090ce1461054d5780633a19b9021461056057600080fd5b806318160ddd146104d35780631aca361e146104e95780631bb5e516146104fc57806323b872dd1461051e57600080fd5b8063095ea7b3116103ae578063095ea7b31461047657806312ab9a391461048b57806313ed3856146104ad57806313fa0520146104c057600080fd5b806301cd120d146103e057806301ffc9a71461042357806306fdde0314610436578063081812fc1461044b575b600080fd5b61040e6103ee366004613d43565b601360209081526000928352604080842090915290825290205460ff1681565b60405190151581526020015b60405180910390f35b61040e610431366004613d89565b610940565b61043e610992565b60405161041a9190613dfe565b61045e610459366004613e11565b610a24565b6040516001600160a01b03909116815260200161041a565b610489610484366004613e2a565b610a68565b005b61049e610499366004613e2a565b610af6565b60405161041a93929190613e91565b6104896104bb366004613f03565b610d05565b6104896104ce366004613fe5565b610d51565b600154600054035b60405190815260200161041a565b6104896104f736600461403d565b6110be565b61050f61050a366004614069565b6112a9565b60405161041a93929190614097565b61048961052c3660046140da565b611535565b6104db61053f366004613f03565b61154b565b6104db600d5481565b61048961055b36600461411b565b61158e565b60105461040e9062010000900460ff1681565b6104db61058136600461414f565b601460209081526000928352604080842090915290825290205481565b6104896105ac3660046140da565b6115ce565b6105c46105bf366004613e2a565b6115f4565b604080516001600160a01b03909416845260208401929092529082015260600161041a565b6104896105f7366004613fe5565b6116cc565b61048961060a3660046141c8565b6119c5565b6104db61061d366004613f03565b611a02565b610489610630366004613f03565b611a32565b61045e610643366004613e11565b611a9c565b610489610656366004613e11565b611aae565b6104db600f5481565b610489610672366004613fe5565b611c37565b6106aa610685366004613f03565b60156020526000908152604090205460ff81169061010090046001600160a01b031682565b6040805192151583526001600160a01b0390911660208301520161041a565b6104896106d7366004613f03565b611e87565b6104896106ea366004613e11565b611f4f565b6104db6106fd366004613f03565b611fe0565b61048961202e565b60105461040e9060ff1681565b60105461040e906301000000900460ff1681565b61073e610739366004613e11565b612064565b60405161041a9190614210565b6104896120c6565b61073e610761366004613f03565b612104565b600c5461045e906001600160a01b031681565b61073e610787366004613e11565b6121e1565b610489612241565b6104db6107a2366004613e11565b61228a565b61040e6107b5366004614069565b6122ab565b600a5461045e906001600160a01b031681565b6104db6107db36600461414f565b612344565b6008546001600160a01b031661045e565b60105461040e90610100900460ff1681565b61043e612375565b610489610819366004614231565b612384565b61048961241a565b610489610834366004614231565b61256e565b610489610847366004613f03565b612638565b610489612684565b61048961086236600461425f565b6126cb565b6105c4610875366004613e2a565b6126e8565b61050f610888366004614069565b6127e9565b61048961089b366004613f03565b612ac9565b61043e6108ae366004613e11565b612b15565b600b5461045e906001600160a01b031681565b6104896108d4366004613fe5565b612b9a565b6104db6108e736600461414f565b612d98565b61049e6108fa366004613e2a565b612db4565b61040e61090d366004614069565b612fd3565b610489610920366004613f03565b61301a565b610489610933366004613e11565b6130b2565b6104896130e1565b60006001600160e01b031982166380ac58cd60e01b148061097157506001600160e01b03198216635b5e139f60e01b145b8061098c57506301ffc9a760e01b6001600160e01b03198316145b92915050565b6060600280546109a1906142de565b80601f01602080910402602001604051908101604052809291908181526020018280546109cd906142de565b8015610a1a5780601f106109ef57610100808354040283529160200191610a1a565b820191906000526020600020905b8154815290600101906020018083116109fd57829003601f168201915b5050505050905090565b6000610a2f8261312c565b610a4c576040516333d1c03960e21b815260040160405180910390fd5b506000908152600660205260409020546001600160a01b031690565b6000610a7382611a9c565b9050806001600160a01b0316836001600160a01b03161415610aa85760405163250fdee360e21b815260040160405180910390fd5b336001600160a01b03821614801590610ac85750610ac68133612fd3565b155b15610ae6576040516367d9dca160e11b815260040160405180910390fd5b610af1838383613157565b505050565b6060808084610b066016826131b3565b610b2b5760405162461bcd60e51b8152600401610b2290614319565b60405180910390fd5b6001600160a01b03861660009081526018602090815260408083208884529091529020610b57816131d5565b6001600160401b03811115610b6e57610b6e613f20565b604051908082528060200260200182016040528015610b97578160200160208202803683370190505b509450610ba3816131d5565b6001600160401b03811115610bba57610bba613f20565b604051908082528060200260200182016040528015610be3578160200160208202803683370190505b509350610bef816131d5565b6001600160401b03811115610c0657610c06613f20565b604051908082528060200260200182016040528015610c2f578160200160208202803683370190505b50925060005b610c3e826131d5565b811015610cfb576000610c5183836131df565b905080878381518110610c6657610c66614350565b6020908102919091018101919091526001600160a01b038a16600090815260198252604080822084835290925220548651879084908110610ca957610ca9614350565b602002602001018181525050610cbe88611a9c565b858381518110610cd057610cd0614350565b6001600160a01b03909216602092830291909101909101525080610cf38161437c565b915050610c35565b5050509250925092565b6008546001600160a01b03163314610d2f5760405162461bcd60e51b8152600401610b2290614397565b600c80546001600160a01b0319166001600160a01b0392909216919091179055565b82610d5d6016826131b3565b610d795760405162461bcd60e51b8152600401610b2290614319565b60026009541415610d9c5760405162461bcd60e51b8152600401610b22906143cc565b60026009556001600160a01b0384166000908152601560205260408120905b8451811015610ff3576000858281518110610dd857610dd8614350565b60200260200101519050610e3381601a60008a6001600160a01b03166001600160a01b031681526020019081526020016000206000610e143390565b6001600160a01b031681526020810191909152604001600020906131eb565b610e755760405162461bcd60e51b8152602060048201526013602482015272151bdad95b881a5cc81b9bdd081cdd185ad959606a1b6044820152606401610b22565b6001600160a01b038781166000908152601b60209081526040808320858452909152902080546001600160a01b031916905583546101009004166323b872dd3033846040518463ffffffff1660e01b8152600401610ed593929190614403565b600060405180830381600087803b158015610eef57600080fd5b505af1158015610f03573d6000803e3d6000fd5b5050506001600160a01b0388166000908152601a60205260408120610f4b92508391610f2c3390565b6001600160a01b03168152602081019190915260400160002090613203565b506001600160a01b0387166000908152601d602090815260408083208884529091529020610f799082613203565b506001600160a01b0387166000818152601c6020908152604080832085845282528083209290925581518481529081019290925233828201525186917ff8eefa3aa6ce8b1d9be01c317b1a8f8e5f5aaeb5bfb5e6c583df94a342bbd9c7919081900360600190a25080610feb8161437c565b915050610dbb565b506001600160a01b0385166000908152601a602090815260408083203384529091528120906001905b611025836131d5565b8110156110825761106261103984836131df565b6001600160a01b038a166000908152601d602090815260408083208b84529091529020906131eb565b156110705760009150611082565b8061107a8161437c565b91505061101c565b5080156110b0576001600160a01b0387166000908152601e602052604081206110ae9187919033610f2c565b505b505060016009555050505050565b336110c884611a9c565b6001600160a01b0316146110ee5760405162461bcd60e51b8152600401610b2290614427565b60006110fb600384614474565b9050600181101561110a575060035b600a546001600160a01b03166000816371c10cae336040516001600160e01b031960e084901b1681526001600160a01b039091166004820152602401606060405180830381865afa158015611163573d6000803e3d6000fd5b505050506040513d601f19601f820116820180604052508101906111879190614488565b50506010549091506301000000900460ff16156111ff578083146111ff5760405162461bcd60e51b815260206004820152602960248201527f54686973206974656d20646f6573206e6f742062656c6f6e6720746f20796f756044820152687220636f6c6f6e792160b81b6064820152608401610b22565b600c546001600160a01b0316639dc29fac336040516001600160e01b031960e084901b1681526001600160a01b03909116600482015260248101879052604401600060405180830381600087803b15801561125957600080fd5b505af115801561126d573d6000803e3d6000fd5b50505060008781526014602090815260408083208984529091528120805487935090919061129c9084906144c1565b9091555050505050505050565b60608080846112b96016826131b3565b6112d55760405162461bcd60e51b8152600401610b2290614319565b6001600160a01b038087166000908152601a60209081526040808320938916835292905220611303816131d5565b6001600160401b0381111561131a5761131a613f20565b604051908082528060200260200182016040528015611343578160200160208202803683370190505b50945061134f816131d5565b6001600160401b0381111561136657611366613f20565b60405190808252806020026020018201604052801561138f578160200160208202803683370190505b50935061139b816131d5565b6001600160401b038111156113b2576113b2613f20565b6040519080825280602002602001820160405280156113db578160200160208202803683370190505b50925060005b6113ea826131d5565b811015610cfb5760006113fd83836131df565b90508087838151811061141257611412614350565b6020908102919091018101919091526001600160a01b038a166000908152601c825260408082208483529092522054865187908490811061145557611455614350565b6020908102919091018101919091526001600160a01b03808b166000908152601e83526040808220928c168252919092528120905b611493826131d5565b81101561151f576001600160a01b038b166000908152601d602052604081206114df918591906114c386866131df565b81526020019081526020016000206131eb90919063ffffffff16565b1561150d576114ee82826131df565b87858151811061150057611500614350565b6020026020010181815250505b806115178161437c565b91505061148a565b505050808061152d9061437c565b9150506113e1565b61154083838361320f565b610af1838383613330565b6001600160a01b0381166000908152601f60209081526040822054815460ff90911690811061157c5761157c614350565b90600052602060002001549050919050565b6008546001600160a01b031633146115b85760405162461bcd60e51b8152600401610b2290614397565b80516115ca9060209081840190613c5b565b5050565b6115d983838361320f565b610af18383836040518060200160405280600081525061333b565b60008080846116046016826131b3565b6116205760405162461bcd60e51b8152600401610b2290614319565b600061162f6001546000540390565b905060008060005b83811015611696576001600160a01b038a166000908152601860209081526040808320848452909152902061166c908a6131eb565b156116845780925061167d81611a9c565b9150611696565b8061168e8161437c565b915050611637565b506001600160a01b03891660009081526019602090815260408083208b8452909152902054909650909450925050509250925092565b600260095414156116ef5760405162461bcd60e51b8152600401610b22906143cc565b60026009556001600160a01b0383166000908152601560205260409020805460ff1661175d5760405162461bcd60e51b815260206004820152601c60248201527f546f6b656e20636f6e7472616374206973206e6f7420616374697665000000006044820152606401610b22565b6001546000540382106117b25760405162461bcd60e51b815260206004820152601e60248201527f56616c756520686967686572207468616e20746f74616c20737570706c7900006044820152606401610b22565b60005b83518110156119695760008482815181106117d2576117d2614350565b602002602001015190506117e33390565b6001600160a01b038781166000908152601b60209081526040808320868452909152902080546001600160a01b0319169282169290921790915583546101009004166323b872dd3330846040518463ffffffff1660e01b815260040161184b93929190614403565b600060405180830381600087803b15801561186557600080fd5b505af1158015611879573d6000803e3d6000fd5b5050506001600160a01b0387166000908152601a602052604081206118c1925083916118a23390565b6001600160a01b03168152602081019190915260400160002090613386565b506001600160a01b0386166000908152601d6020908152604080832087845290915290206118ef9082613386565b506001600160a01b0386166000818152601c6020908152604080832085845282529182902042905581518481529081019290925233828201525185917ff7373f56c201647feae85a62d3cf56286ed3a43d20c5eb7f9883d6ea690ef7c0919081900360600190a250806119618161437c565b9150506117b5565b506001600160a01b0384166000908152601e6020526040812061198f9184919033610e14565b6119ba576001600160a01b0384166000908152601e602052604081206119b891849190336118a2565b505b505060016009555050565b6008546001600160a01b031633146119ef5760405162461bcd60e51b8152600401610b2290614397565b80516115ca90600e906020840190613ca6565b6001600160a01b0381166000908152601f6020526040812054611a299060ff1660016144d9565b60ff1692915050565b6008546001600160a01b03163314611a5c5760405162461bcd60e51b8152600401610b2290614397565b6001600160a01b038116600081815260156020526040902080546101009092026001600160a81b03199092169190911760011790556115ca601682613392565b6000611aa7826133a7565b5192915050565b60026009541415611ad15760405162461bcd60e51b8152600401610b22906143cc565b60026009556000611ae56001546000540390565b60105490915060ff16611b2d5760405162461bcd60e51b815260206004820152601060248201526f14d85b19481b9bdd08195b98589b195960821b6044820152606401610b22565b600d54611b3a82846144c1565b1115611ba15760405162461bcd60e51b815260206004820152603060248201527f506c6561736520747279206d696e74696e672077697468206c6573732c206e6f60448201526f7420656e6f75676820737570706c792160801b6064820152608401610b22565b600c546001600160a01b0316639dc29fac33600f54611bc090866144fe565b6040516001600160e01b031960e085901b1681526001600160a01b0390921660048301526024820152604401600060405180830381600087803b158015611c0657600080fd5b505af1158015611c1a573d6000803e3d6000fd5b50505050611c2e611c283390565b836134c1565b50506001600955565b82611c436016826131b3565b611c5f5760405162461bcd60e51b8152600401610b2290614319565b60026009541415611c825760405162461bcd60e51b8152600401610b22906143cc565b600260095533611c9183611a9c565b6001600160a01b031614611cb75760405162461bcd60e51b8152600401610b2290614427565b6001600160a01b0384166000908152601560205260408120905b8451811015611e7a576000858281518110611cee57611cee614350565b6020908102919091018101516001600160a01b038916600090815260188352604080822089835290935291909120909150611d2990826131eb565b611d6b5760405162461bcd60e51b8152602060048201526013602482015272151bdad95b881a5cc81b9bdd081cdd185ad959606a1b6044820152606401610b22565b825461010090046001600160a01b03166323b872dd3033846040518463ffffffff1660e01b8152600401611da193929190614403565b600060405180830381600087803b158015611dbb57600080fd5b505af1158015611dcf573d6000803e3d6000fd5b5050506001600160a01b03881660009081526018602090815260408083208984529091529020611e00915082613203565b506001600160a01b038716600081815260196020908152604080832085845282528083209290925581518481529081019290925233828201525186917f7a88d300aa5621eff92ee9ad481a2146da5273e1c775ca15eb4a3ca348a97ec1919081900360600190a25080611e728161437c565b915050611cd1565b5050600160095550505050565b6008546001600160a01b03163314611eb15760405162461bcd60e51b8152600401610b2290614397565b602054611ebf9060016144c1565b611ec882611a02565b10611f0c5760405162461bcd60e51b815260206004820152601460248201527315185b9ac81a5cc8185d081b585e081b195d995b60621b6044820152606401610b22565b6001600160a01b0381166000908152601f60205260408120805460ff1691611f338361451d565b91906101000a81548160ff021916908360ff1602179055505050565b6008546001600160a01b03163314611f795760405162461bcd60e51b8152600401610b2290614397565b80600d5414611fdd57600154600054038111611fd75760405162461bcd60e51b815260206004820152601d60248201527f56616c7565206c6f776572207468616e20746f74616c20737570706c790000006044820152606401610b22565b600d8190555b50565b60006001600160a01b038216612009576040516323d3ad8160e21b815260040160405180910390fd5b506001600160a01b03166000908152600560205260409020546001600160401b031690565b6008546001600160a01b031633146120585760405162461bcd60e51b8152600401610b2290614397565b61206260006134db565b565b6000818152601160209081526040918290208054835181840281018401909452808452606093928301828280156120ba57602002820191906000526020600020905b8154815260200190600101908083116120a6575b50505050509050919050565b6008546001600160a01b031633146120f05760405162461bcd60e51b8152600401610b2290614397565b6010805460ff19811660ff90911615179055565b606060006121156001546000540390565b9050600061212284611fe0565b90506000816001600160401b0381111561213e5761213e613f20565b604051908082528060200260200182016040528015612167578160200160208202803683370190505b5090506000805b848110156121d65761217f81611a9c565b6001600160a01b0316876001600160a01b031614156121c457808383815181106121ab576121ab614350565b6020908102919091010152816121c08161437c565b9250505b806121ce8161437c565b91505061216e565b509095945050505050565b6000818152601260209081526040918290208054835181840281018401909452808452606093928301828280156120ba57602002820191906000526020600020908154815260200190600101908083116120a65750505050509050919050565b6008546001600160a01b0316331461226b5760405162461bcd60e51b8152600401610b2290614397565b6010805462ff0000198116620100009182900460ff1615909102179055565b6020818154811061229a57600080fd5b600091825260209091200154905081565b600b5460405163c455279160e01b81526001600160a01b03848116600483015260009281169190841690829063c455279190602401602060405180830381865afa1580156122fd573d6000803e3d6000fd5b505050506040513d601f19601f82011682018060405250810190612321919061453d565b6001600160a01b0316141561233a57600191505061098c565b5060009392505050565b6012602052816000526040600020818154811061236057600080fd5b90600052602060002001600091509150505481565b6060600380546109a1906142de565b6001600160a01b0382163314156123ae5760405163b06307db60e01b815260040160405180910390fd5b3360008181526007602090815260408083206001600160a01b03871680855290835292819020805460ff191686151590811790915590519081529192917f17307eab39ab6107e8899845ad3d59bd9653f200f220920489ca2b5937696c31910160405180910390a35050565b6002600954141561243d5760405162461bcd60e51b8152600401610b22906143cc565b60026009556020546124509060016144c1565b61245933611a02565b1061249d5760405162461bcd60e51b815260206004820152601460248201527315185b9ac81a5cc8185d081b585e081b195d995b60621b6044820152606401610b22565b600c546001600160a01b0316639dc29fac336124b83361154b565b6040516001600160e01b031960e085901b1681526001600160a01b0390921660048301526024820152604401600060405180830381600087803b1580156124fe57600080fd5b505af1158015612512573d6000803e3d6000fd5b50505050601f60006125213390565b6001600160a01b0316815260208101919091526040016000908120805460ff169161254b8361451d565b91906101000a81548160ff021916908360ff160217905550506001600981905550565b6008546001600160a01b031633146125985760405162461bcd60e51b8152600401610b2290614397565b816125a46016826131b3565b6125c05760405162461bcd60e51b8152600401610b2290614319565b6125cb6016846131b3565b61260c5760405162461bcd60e51b815260206004820152601260248201527110dbdb9d1c9858dd081b9bdd08185919195960721b6044820152606401610b22565b506001600160a01b03919091166000908152601560205260409020805460ff1916911515919091179055565b6008546001600160a01b031633146126625760405162461bcd60e51b8152600401610b2290614397565b600b80546001600160a01b0319166001600160a01b0392909216919091179055565b6008546001600160a01b031633146126ae5760405162461bcd60e51b8152600401610b2290614397565b6010805461ff001981166101009182900460ff1615909102179055565b6126d684848461320f565b6126e28484848461333b565b50505050565b60008080846126f86016826131b3565b6127145760405162461bcd60e51b8152600401610b2290614319565b6001600160a01b038087166000818152601b602090815260408083208a8452825280832054938352601e825280832093909416808352929052918220909190815b61275e826131d5565b8110156127b6576001600160a01b038a166000908152601d6020526040812061278e918b91906114c386866131df565b156127a45761279d82826131df565b92506127b6565b806127ae8161437c565b915050612755565b50506001600160a01b03979097166000908152601c60209081526040808320988352979052959095205494969350505050565b60608080846127f96016826131b3565b6128155760405162461bcd60e51b8152600401610b2290614319565b600061282086612104565b90506000805b825181101561289e576001600160a01b03891660009081526018602052604081208451829086908590811061285d5761285d614350565b60200260200101518152602001908152602001600020905061287e816131d5565b61288890846144c1565b92505080806128969061437c565b915050612826565b508015610cfb57806001600160401b038111156128bd576128bd613f20565b6040519080825280602002602001820160405280156128e6578160200160208202803683370190505b509550806001600160401b0381111561290157612901613f20565b60405190808252806020026020018201604052801561292a578160200160208202803683370190505b509450806001600160401b0381111561294557612945613f20565b60405190808252806020026020018201604052801561296e578160200160208202803683370190505b5093506000805b8351811015612abd576001600160a01b038a166000908152601860205260408120855182908790859081106129ac576129ac614350565b60200260200101518152602001908152602001600020905060005b6129d0826131d5565b811015612aa8578583815181106129e9576129e9614350565b6020026020010151888581518110612a0357612a03614350565b6020908102919091010152612a1882826131df565b8a8581518110612a2a57612a2a614350565b6020908102919091018101919091526001600160a01b038d16600090815260199091526040812090612a5c84846131df565b815260200190815260200160002054898581518110612a7d57612a7d614350565b602090810291909101015283612a928161437c565b9450508080612aa09061437c565b9150506129c7565b50508080612ab59061437c565b915050612975565b50505050509250925092565b6008546001600160a01b03163314612af35760405162461bcd60e51b8152600401610b2290614397565b600a80546001600160a01b0319166001600160a01b0392909216919091179055565b6060612b208261312c565b612b3d57604051630a14c4b560e41b815260040160405180910390fd5b6000612b4761352d565b9050805160001415612b685760405180602001604052806000815250612b93565b80612b728461353c565b604051602001612b8392919061455a565b6040516020818303038152906040525b9392505050565b60026009541415612bbd5760405162461bcd60e51b8152600401610b22906143cc565b60026009556001600160a01b0383166000908152601560205260409020805460ff16612c2b5760405162461bcd60e51b815260206004820152601c60248201527f546f6b656e20636f6e7472616374206973206e6f7420616374697665000000006044820152606401610b22565b33612c3583611a9c565b6001600160a01b031614612c5b5760405162461bcd60e51b8152600401610b2290614427565b60005b83518110156119b8576000848281518110612c7b57612c7b614350565b602090810291909101015183546040516323b872dd60e01b815291925061010090046001600160a01b0316906323b872dd90612cbf90339030908690600401614403565b600060405180830381600087803b158015612cd957600080fd5b505af1158015612ced573d6000803e3d6000fd5b5050506001600160a01b03871660009081526018602090815260408083208884529091529020612d1e915082613386565b506001600160a01b038616600081815260196020908152604080832085845282529182902042905581518481529081019290925233828201525185917fbad5eb2559bf0125076226eec064f40a9eb579b59582cdc07ac07acecbda6ff5919081900360600190a25080612d908161437c565b915050612c5e565b6011602052816000526040600020818154811061236057600080fd5b6060808084612dc46016826131b3565b612de05760405162461bcd60e51b8152600401610b2290614319565b6001600160a01b0386166000908152601d602090815260408083208884529091529020612e0c816131d5565b6001600160401b03811115612e2357612e23613f20565b604051908082528060200260200182016040528015612e4c578160200160208202803683370190505b509450612e58816131d5565b6001600160401b03811115612e6f57612e6f613f20565b604051908082528060200260200182016040528015612e98578160200160208202803683370190505b509350612ea4816131d5565b6001600160401b03811115612ebb57612ebb613f20565b604051908082528060200260200182016040528015612ee4578160200160208202803683370190505b50925060005b612ef3826131d5565b811015610cfb576000612f0683836131df565b905080878381518110612f1b57612f1b614350565b6020908102919091018101919091526001600160a01b038a166000908152601c8252604080822084835290925220548651879084908110612f5e57612f5e614350565b6020908102919091018101919091526001600160a01b03808b166000908152601b8352604080822085835290935291909120548651911690869084908110612fa857612fa8614350565b6001600160a01b03909216602092830291909101909101525080612fcb8161437c565b915050612eea565b6000612fdf83836122ab565b15612fec5750600161098c565b6001600160a01b0380841660009081526007602090815260408083209386168352929052205460ff16612b93565b6008546001600160a01b031633146130445760405162461bcd60e51b8152600401610b2290614397565b6001600160a01b0381166130a95760405162461bcd60e51b815260206004820152602660248201527f4f776e61626c653a206e6577206f776e657220697320746865207a65726f206160448201526564647265737360d01b6064820152608401610b22565b611fdd816134db565b6008546001600160a01b031633146130dc5760405162461bcd60e51b8152600401610b2290614397565b600f55565b6008546001600160a01b0316331461310b5760405162461bcd60e51b8152600401610b2290614397565b6010805463ff00000019811663010000009182900460ff1615909102179055565b600080548210801561098c575050600090815260046020526040902054600160e01b900460ff161590565b60008281526006602052604080822080546001600160a01b0319166001600160a01b0387811691821790925591518593918516917f8c5be1e5ebec7d5bd14f71427d1e84f3dd0314c0f7b2291e5b200ac8c7c3b92591a4505050565b6001600160a01b03811660009081526001830160205260408120541515612b93565b600061098c825490565b6000612b938383613641565b60008181526001830160205260408120541515612b93565b6000612b93838361366b565b601054610100900460ff1661322357505050565b6000818152601160209081526040822080546001810182559083529082204291015560105462010000900460ff16156132675761326084336122ab565b9050613282565b333b1515801561327f5750326001600160a01b038416145b90505b80156126e25760008281526013602090815260408083206001600160a01b038816845290915290205460ff166132e05760008281526013602090815260408083206001600160a01b03881684529091529020805460ff191660011790555b60008281526013602090815260408083206001600160a01b038716845290915290205460ff166126e257506000908152601260209081526040822080546001810182559083529120429101555050565b610af183838361375e565b61334684848461375e565b6001600160a01b0383163b1515801561336857506133668484848461394c565b155b156126e2576040516368d2bf6b60e11b815260040160405180910390fd5b6000612b938383613a34565b6000612b93836001600160a01b038416613a34565b6040805160608101825260008082526020820181905291810191909152816000548110156134a857600081815260046020908152604091829020825160608101845290546001600160a01b0381168252600160a01b81046001600160401b031692820192909252600160e01b90910460ff161515918101829052906134a65780516001600160a01b03161561343d579392505050565b5060001901600081815260046020908152604091829020825160608101845290546001600160a01b038116808352600160a01b82046001600160401b031693830193909352600160e01b900460ff16151592810192909252156134a1579392505050565b61343d565b505b604051636f96cda160e11b815260040160405180910390fd5b6115ca828260405180602001604052806000815250613a83565b600880546001600160a01b038381166001600160a01b0319831681179093556040519116919082907f8be0079c531659141344cd1fd0a4f28419497f9722a3daafe3b4186f6b6457e090600090a35050565b6060600e80546109a1906142de565b6060816135605750506040805180820190915260018152600360fc1b602082015290565b8160005b811561358a57806135748161437c565b91506135839050600a83614589565b9150613564565b6000816001600160401b038111156135a4576135a4613f20565b6040519080825280601f01601f1916602001820160405280156135ce576020820181803683370190505b5090505b8415613639576135e360018361459d565b91506135f0600a86614474565b6135fb9060306144c1565b60f81b81838151811061361057613610614350565b60200101906001600160f81b031916908160001a905350613632600a86614589565b94506135d2565b949350505050565b600082600001828154811061365857613658614350565b9060005260206000200154905092915050565b6000818152600183016020526040812054801561375457600061368f60018361459d565b85549091506000906136a39060019061459d565b90508181146137085760008660000182815481106136c3576136c3614350565b90600052602060002001549050808760000184815481106136e6576136e6614350565b6000918252602080832090910192909255918252600188019052604090208390555b8554869080613719576137196145b4565b60019003818190600052602060002001600090559055856001016000868152602001908152602001600020600090556001935050505061098c565b600091505061098c565b6000613769826133a7565b9050836001600160a01b031681600001516001600160a01b0316146137a05760405162a1148160e81b815260040160405180910390fd5b6000336001600160a01b03861614806137be57506137be8533612fd3565b806137d95750336137ce84610a24565b6001600160a01b0316145b9050806137f957604051632ce44b5f60e11b815260040160405180910390fd5b6001600160a01b03841661382057604051633a954ecd60e21b815260040160405180910390fd5b61382c60008487613157565b6001600160a01b038581166000908152600560209081526040808320805467ffffffffffffffff198082166001600160401b0392831660001901831617909255898616808652838620805493841693831660019081018416949094179055898652600490945282852080546001600160e01b031916909417600160a01b4290921691909102178355870180845292208054919390911661390057600054821461390057805460208601516001600160401b0316600160a01b026001600160e01b03199091166001600160a01b038a16171781555b50505082846001600160a01b0316866001600160a01b03167fddf252ad1be2c89b69c2b068fc378daa952ba7f163c4a11628f55a4df523b3ef60405160405180910390a45b5050505050565b604051630a85bd0160e11b81526000906001600160a01b0385169063150b7a02906139819033908990889088906004016145ca565b6020604051808303816000875af19250505080156139bc575060408051601f3d908101601f191682019092526139b9918101906145fd565b60015b613a17573d8080156139ea576040519150601f19603f3d011682016040523d82523d6000602084013e6139ef565b606091505b508051613a0f576040516368d2bf6b60e11b815260040160405180910390fd5b805181602001fd5b6001600160e01b031916630a85bd0160e11b149050949350505050565b6000818152600183016020526040812054613a7b5750815460018181018455600084815260208082209093018490558454848252828601909352604090209190915561098c565b50600061098c565b610af183838360016000546001600160a01b038516613ab457604051622e076360e81b815260040160405180910390fd5b83613ad25760405163b562e8dd60e01b815260040160405180910390fd5b6001600160a01b038516600081815260056020908152604080832080546fffffffffffffffffffffffffffffffff1981166001600160401b038083168c0181169182176801000000000000000067ffffffffffffffff1990941690921783900481168c01811690920217909155858452600490925290912080546001600160e01b031916909217600160a01b429092169190910217905580808501838015613b8357506001600160a01b0387163b15155b15613c0c575b60405182906001600160a01b038916906000907fddf252ad1be2c89b69c2b068fc378daa952ba7f163c4a11628f55a4df523b3ef908290a4613bd4600088848060010195508861394c565b613bf1576040516368d2bf6b60e11b815260040160405180910390fd5b80821415613b89578260005414613c0757600080fd5b613c52565b5b6040516001830192906001600160a01b038916906000907fddf252ad1be2c89b69c2b068fc378daa952ba7f163c4a11628f55a4df523b3ef908290a480821415613c0d575b50600055613945565b828054828255906000526020600020908101928215613c96579160200282015b82811115613c96578251825591602001919060010190613c7b565b50613ca2929150613d19565b5090565b828054613cb2906142de565b90600052602060002090601f016020900481019282613cd45760008555613c96565b82601f10613ced57805160ff1916838001178555613c96565b82800160010185558215613c965791820182811115613c96578251825591602001919060010190613c7b565b5b80821115613ca25760008155600101613d1a565b6001600160a01b0381168114611fdd57600080fd5b60008060408385031215613d5657600080fd5b823591506020830135613d6881613d2e565b809150509250929050565b6001600160e01b031981168114611fdd57600080fd5b600060208284031215613d9b57600080fd5b8135612b9381613d73565b60005b83811015613dc1578181015183820152602001613da9565b838111156126e25750506000910152565b60008151808452613dea816020860160208601613da6565b601f01601f19169290920160200192915050565b602081526000612b936020830184613dd2565b600060208284031215613e2357600080fd5b5035919050565b60008060408385031215613e3d57600080fd5b8235613e4881613d2e565b946020939093013593505050565b600081518084526020808501945080840160005b83811015613e8657815187529582019590820190600101613e6a565b509495945050505050565b606081526000613ea46060830186613e56565b602083820381850152613eb78287613e56565b8481036040860152855180825282870193509082019060005b81811015613ef55784516001600160a01b031683529383019391830191600101613ed0565b509098975050505050505050565b600060208284031215613f1557600080fd5b8135612b9381613d2e565b634e487b7160e01b600052604160045260246000fd5b604051601f8201601f191681016001600160401b0381118282101715613f5e57613f5e613f20565b604052919050565b600082601f830112613f7757600080fd5b813560206001600160401b03821115613f9257613f92613f20565b8160051b613fa1828201613f36565b9283528481018201928281019087851115613fbb57600080fd5b83870192505b84831015613fda57823582529183019190830190613fc1565b979650505050505050565b600080600060608486031215613ffa57600080fd5b833561400581613d2e565b925060208401356001600160401b0381111561402057600080fd5b61402c86828701613f66565b925050604084013590509250925092565b60008060006060848603121561405257600080fd5b505081359360208301359350604090920135919050565b6000806040838503121561407c57600080fd5b823561408781613d2e565b91506020830135613d6881613d2e565b6060815260006140aa6060830186613e56565b82810360208401526140bc8186613e56565b905082810360408401526140d08185613e56565b9695505050505050565b6000806000606084860312156140ef57600080fd5b83356140fa81613d2e565b9250602084013561410a81613d2e565b929592945050506040919091013590565b60006020828403121561412d57600080fd5b81356001600160401b0381111561414357600080fd5b61363984828501613f66565b6000806040838503121561416257600080fd5b50508035926020909101359150565b60006001600160401b0383111561418a5761418a613f20565b61419d601f8401601f1916602001613f36565b90508281528383830111156141b157600080fd5b828260208301376000602084830101529392505050565b6000602082840312156141da57600080fd5b81356001600160401b038111156141f057600080fd5b8201601f8101841361420157600080fd5b61363984823560208401614171565b602081526000612b936020830184613e56565b8015158114611fdd57600080fd5b6000806040838503121561424457600080fd5b823561424f81613d2e565b91506020830135613d6881614223565b6000806000806080858703121561427557600080fd5b843561428081613d2e565b9350602085013561429081613d2e565b92506040850135915060608501356001600160401b038111156142b257600080fd5b8501601f810187136142c357600080fd5b6142d287823560208401614171565b91505092959194509250565b600181811c908216806142f257607f821691505b6020821081141561431357634e487b7160e01b600052602260045260246000fd5b50919050565b60208082526018908201527f436f6e747261637420646f6573206e6f74206578697374730000000000000000604082015260600190565b634e487b7160e01b600052603260045260246000fd5b634e487b7160e01b600052601160045260246000fd5b600060001982141561439057614390614366565b5060010190565b6020808252818101527f4f776e61626c653a2063616c6c6572206973206e6f7420746865206f776e6572604082015260600190565b6020808252601f908201527f5265656e7472616e637947756172643a207265656e7472616e742063616c6c00604082015260600190565b6001600160a01b039384168152919092166020820152604081019190915260600190565b60208082526019908201527f596f7520646f206e6f74206f776e2074686973206c616e642100000000000000604082015260600190565b634e487b7160e01b600052601260045260246000fd5b6000826144835761448361445e565b500690565b60008060006060848603121561449d57600080fd5b835192506020840151915060408401516144b681614223565b809150509250925092565b600082198211156144d4576144d4614366565b500190565b600060ff821660ff84168060ff038211156144f6576144f6614366565b019392505050565b600081600019048311821515161561451857614518614366565b500290565b600060ff821660ff81141561453457614534614366565b60010192915050565b60006020828403121561454f57600080fd5b8151612b9381613d2e565b6000835161456c818460208801613da6565b835190830190614580818360208801613da6565b01949350505050565b6000826145985761459861445e565b500490565b6000828210156145af576145af614366565b500390565b634e487b7160e01b600052603160045260246000fd5b6001600160a01b03858116825284166020820152604081018390526080606082018190526000906140d090830184613dd2565b60006020828403121561460f57600080fd5b8151612b9381613d7356fea26469706673582212206a9060a8a9745d958f0fe172c74387d89cd40a1aaecfa78e64280209d81f138764736f6c634300080b00334f776e61626c653a2063616c6c6572206973206e6f7420746865206f776e6572",
  "linkReferences": {},
  "deployedLinkReferences": {}
}