{
  "_format": "hh-sol-artifact-1",
  "contractName": "Oxygen",
  "sourceName": "contracts/Oxygen.sol",
  "abi": [
    {
      "inputs": [],
      "stateMutability": "nonpayable",
      "type": "constructor"
    },
    {
      "anonymous": false,
      "inputs": [
        {
          "indexed": true,
          "internalType": "address",
          "name": "owner",
          "type": "address"
        },
        {
          "indexed": true,
          "internalType": "address",
          "name": "spender",
          "type": "address"
        },
        {
          "indexed": false,
          "internalType": "uint256",
          "name": "value",
          "type": "uint256"
        }
      ],
      "name": "Approval",
      "type": "event"
    },
    {
      "anonymous": false,
      "inputs": [
        {
          "indexed": true,
          "internalType": "address",
          "name": "previousOwner",
          "type": "address"
        },
        {
          "indexed": true,
          "internalType": "address",
          "name": "newOwner",
          "type": "address"
        }
      ],
      "name": "OwnershipTransferred",
      "type": "event"
    },
    {
      "anonymous": false,
      "inputs": [
        {
          "indexed": true,
          "internalType": "address",
          "name": "from",
          "type": "address"
        },
        {
          "indexed": true,
          "internalType": "address",
          "name": "to",
          "type": "address"
        },
        {
          "indexed": false,
          "internalType": "uint256",
          "name": "value",
          "type": "uint256"
        }
      ],
      "name": "Transfer",
      "type": "event"
    },
    {
      "inputs": [],
      "name": "MAX_SUPPLY",
      "outputs": [
        {
          "internalType": "uint256",
          "name": "",
          "type": "uint256"
        }
      ],
      "stateMutability": "view",
      "type": "function"
    },
    {
      "inputs": [
        {
          "internalType": "address",
          "name": "addr",
          "type": "address"
        }
      ],
      "name": "addAdmin",
      "outputs": [],
      "stateMutability": "nonpayable",
      "type": "function"
    },
    {
      "inputs": [
        {
          "internalType": "address",
          "name": "owner",
          "type": "address"
        },
        {
          "internalType": "address",
          "name": "spender",
          "type": "address"
        }
      ],
      "name": "allowance",
      "outputs": [
        {
          "internalType": "uint256",
          "name": "",
          "type": "uint256"
        }
      ],
      "stateMutability": "view",
      "type": "function"
    },
    {
      "inputs": [
        {
          "internalType": "address",
          "name": "spender",
          "type": "address"
        },
        {
          "internalType": "uint256",
          "name": "amount",
          "type": "uint256"
        }
      ],
      "name": "approve",
      "outputs": [
        {
          "internalType": "bool",
          "name": "",
          "type": "bool"
        }
      ],
      "stateMutability": "nonpayable",
      "type": "function"
    },
    {
      "inputs": [
        {
          "internalType": "address",
          "name": "account",
          "type": "address"
        }
      ],
      "name": "balanceOf",
      "outputs": [
        {
          "internalType": "uint256",
          "name": "",
          "type": "uint256"
        }
      ],
      "stateMutability": "view",
      "type": "function"
    },
    {
      "inputs": [
        {
          "internalType": "address",
          "name": "from",
          "type": "address"
        },
        {
          "internalType": "uint256",
          "name": "amount",
          "type": "uint256"
        }
      ],
      "name": "burn",
      "outputs": [],
      "stateMutability": "nonpayable",
      "type": "function"
    },
    {
      "inputs": [
        {
          "internalType": "uint256",
          "name": "amount",
          "type": "uint256"
        }
      ],
      "name": "burnReserve",
      "outputs": [],
      "stateMutability": "nonpayable",
      "type": "function"
    },
    {
      "inputs": [],
      "name": "burnedCount",
      "outputs": [
        {
          "internalType": "uint256",
          "name": "",
          "type": "uint256"
        }
      ],
      "stateMutability": "view",
      "type": "function"
    },
    {
      "inputs": [],
      "name": "decimals",
      "outputs": [
        {
          "internalType": "uint8",
          "name": "",
          "type": "uint8"
        }
      ],
      "stateMutability": "view",
      "type": "function"
    },
    {
      "inputs": [
        {
          "internalType": "address",
          "name": "spender",
          "type": "address"
        },
        {
          "internalType": "uint256",
          "name": "subtractedValue",
          "type": "uint256"
        }
      ],
      "name": "decreaseAllowance",
      "outputs": [
        {
          "internalType": "bool",
          "name": "",
          "type": "bool"
        }
      ],
      "stateMutability": "nonpayable",
      "type": "function"
    },
    {
      "inputs": [
        {
          "internalType": "address",
          "name": "to",
          "type": "address"
        },
        {
          "internalType": "uint256",
          "name": "amount",
          "type": "uint256"
        }
      ],
      "name": "donate",
      "outputs": [],
      "stateMutability": "nonpayable",
      "type": "function"
    },
    {
      "inputs": [],
      "name": "donationCount",
      "outputs": [
        {
          "internalType": "uint256",
          "name": "",
          "type": "uint256"
        }
      ],
      "stateMutability": "view",
      "type": "function"
    },
    {
      "inputs": [
        {
          "internalType": "address",
          "name": "spender",
          "type": "address"
        },
        {
          "internalType": "uint256",
          "name": "addedValue",
          "type": "uint256"
        }
      ],
      "name": "increaseAllowance",
      "outputs": [
        {
          "internalType": "bool",
          "name": "",
          "type": "bool"
        }
      ],
      "stateMutability": "nonpayable",
      "type": "function"
    },
    {
      "inputs": [
        {
          "internalType": "address",
          "name": "to",
          "type": "address"
        },
        {
          "internalType": "uint256",
          "name": "amount",
          "type": "uint256"
        }
      ],
      "name": "mint",
      "outputs": [],
      "stateMutability": "nonpayable",
      "type": "function"
    },
    {
      "inputs": [],
      "name": "mintedCount",
      "outputs": [
        {
          "internalType": "uint256",
          "name": "",
          "type": "uint256"
        }
      ],
      "stateMutability": "view",
      "type": "function"
    },
    {
      "inputs": [],
      "name": "name",
      "outputs": [
        {
          "internalType": "string",
          "name": "",
          "type": "string"
        }
      ],
      "stateMutability": "view",
      "type": "function"
    },
    {
      "inputs": [],
      "name": "owner",
      "outputs": [
        {
          "internalType": "address",
          "name": "",
          "type": "address"
        }
      ],
      "stateMutability": "view",
      "type": "function"
    },
    {
      "inputs": [
        {
          "internalType": "address",
          "name": "addr",
          "type": "address"
        }
      ],
      "name": "removeAdmin",
      "outputs": [],
      "stateMutability": "nonpayable",
      "type": "function"
    },
    {
      "inputs": [],
      "name": "renounceOwnership",
      "outputs": [],
      "stateMutability": "nonpayable",
      "type": "function"
    },
    {
      "inputs": [
        {
          "internalType": "address",
          "name": "to",
          "type": "address"
        },
        {
          "internalType": "uint256",
          "name": "amount",
          "type": "uint256"
        }
      ],
      "name": "reward",
      "outputs": [],
      "stateMutability": "nonpayable",
      "type": "function"
    },
    {
      "inputs": [],
      "name": "rewardCount",
      "outputs": [
        {
          "internalType": "uint256",
          "name": "",
          "type": "uint256"
        }
      ],
      "stateMutability": "view",
      "type": "function"
    },
    {
      "inputs": [
        {
          "internalType": "uint256",
          "name": "amount",
          "type": "uint256"
        }
      ],
      "name": "setMaxSupply",
      "outputs": [],
      "stateMutability": "nonpayable",
      "type": "function"
    },
    {
      "inputs": [],
      "name": "symbol",
      "outputs": [
        {
          "internalType": "string",
          "name": "",
          "type": "string"
        }
      ],
      "stateMutability": "view",
      "type": "function"
    },
    {
      "inputs": [
        {
          "internalType": "address",
          "name": "to",
          "type": "address"
        },
        {
          "internalType": "uint256",
          "name": "amount",
          "type": "uint256"
        }
      ],
      "name": "tax",
      "outputs": [],
      "stateMutability": "nonpayable",
      "type": "function"
    },
    {
      "inputs": [],
      "name": "taxCount",
      "outputs": [
        {
          "internalType": "uint256",
          "name": "",
          "type": "uint256"
        }
      ],
      "stateMutability": "view",
      "type": "function"
    },
    {
      "inputs": [],
      "name": "tokenCapSet",
      "outputs": [
        {
          "internalType": "bool",
          "name": "",
          "type": "bool"
        }
      ],
      "stateMutability": "view",
      "type": "function"
    },
    {
      "inputs": [],
      "name": "totalSupply",
      "outputs": [
        {
          "internalType": "uint256",
          "name": "",
          "type": "uint256"
        }
      ],
      "stateMutability": "view",
      "type": "function"
    },
    {
      "inputs": [
        {
          "internalType": "address",
          "name": "to",
          "type": "address"
        },
        {
          "internalType": "uint256",
          "name": "amount",
          "type": "uint256"
        }
      ],
      "name": "transfer",
      "outputs": [
        {
          "internalType": "bool",
          "name": "",
          "type": "bool"
        }
      ],
      "stateMutability": "nonpayable",
      "type": "function"
    },
    {
      "inputs": [
        {
          "internalType": "address",
          "name": "sender",
          "type": "address"
        },
        {
          "internalType": "address",
          "name": "recipient",
          "type": "address"
        },
        {
          "internalType": "uint256",
          "name": "amount",
          "type": "uint256"
        }
      ],
      "name": "transferFrom",
      "outputs": [
        {
          "internalType": "bool",
          "name": "",
          "type": "bool"
        }
      ],
      "stateMutability": "nonpayable",
      "type": "function"
    },
    {
      "inputs": [
        {
          "internalType": "address",
          "name": "newOwner",
          "type": "address"
        }
      ],
      "name": "transferOwnership",
      "outputs": [],
      "stateMutability": "nonpayable",
      "type": "function"
    },
    {
      "inputs": [
        {
          "internalType": "address",
          "name": "to",
          "type": "address"
        },
        {
          "internalType": "uint256",
          "name": "amount",
          "type": "uint256"
        }
      ],
      "name": "withdrawReserve",
      "outputs": [],
      "stateMutability": "nonpayable",
      "type": "function"
    }
  ],
  "bytecode": "0x60806040523480156200001157600080fd5b50604080518082018252600a8152692c991899199027ac23a760b11b60208083019182528351808501909452600484526327ac23a760e11b9084015281519192916200006091600391620000f4565b50805162000076906004906020840190620000f4565b505050620000936200008d6200009e60201b60201c565b620000a2565b6001600655620001d7565b3390565b600580546001600160a01b038381166001600160a01b0319831681179093556040519116919082907f8be0079c531659141344cd1fd0a4f28419497f9722a3daafe3b4186f6b6457e090600090a35050565b82805462000102906200019a565b90600052602060002090601f01602090048101928262000126576000855562000171565b82601f106200014157805160ff191683800117855562000171565b8280016001018555821562000171579182015b828111156200017157825182559160200191906001019062000154565b506200017f92915062000183565b5090565b5b808211156200017f576000815560010162000184565b600181811c90821680620001af57607f821691505b60208210811415620001d157634e487b7160e01b600052602260045260246000fd5b50919050565b61178380620001e76000396000f3fe608060405234801561001057600080fd5b50600436106101e55760003560e01c8063704802751161010f578063a457c2d7116100a2578063d9b5778911610071578063d9b57789146103c9578063dd62ed3e146103dc578063e69d849d14610415578063f2fde38b1461042857600080fd5b8063a457c2d714610387578063a9059cbb1461039a578063cf70062a146103ad578063cf721b15146103c057600080fd5b80637cefcc52116100de5780637cefcc52146103485780638da5cb5b1461035157806395d89b411461036c5780639dc29fac1461037457600080fd5b806370480275146102fb57806370a082311461030e578063715018a614610337578063790854251461033f57600080fd5b806321670f221161018757806332cb6b0c1161015657806332cb6b0c146102b957806339509351146102c257806340c10f19146102d55780636f8b44b0146102e857600080fd5b806321670f221461027b57806323b872dd1461028e5780632abfab4d146102a1578063313ce567146102aa57600080fd5b806318160ddd116101c357806318160ddd146102405780631c58ce14146102525780631f7c85cc14610265578063200847dd1461026e57600080fd5b806306fdde03146101ea578063095ea7b3146102085780631785f53c1461022b575b600080fd5b6101f261043b565b6040516101ff919061146a565b60405180910390f35b61021b6102163660046114db565b6104cd565b60405190151581526020016101ff565b61023e610239366004611505565b6104e5565b005b6002545b6040519081526020016101ff565b61023e6102603660046114db565b61057f565b610244600c5481565b60095461021b9060ff1681565b61023e6102893660046114db565b610610565b61021b61029c366004611520565b61076c565b610244600b5481565b604051601281526020016101ff565b61024460085481565b61021b6102d03660046114db565b6107ac565b61023e6102e33660046114db565b6107eb565b61023e6102f636600461155c565b610897565b61023e610309366004611505565b610993565b61024461031c366004611505565b6001600160a01b031660009081526020819052604090205490565b61023e610a27565b610244600a5481565b610244600e5481565b6005546040516001600160a01b0390911681526020016101ff565b6101f2610a5d565b61023e6103823660046114db565b610a6c565b61021b6103953660046114db565b610b05565b61021b6103a83660046114db565b610ba2565b61023e6103bb36600461155c565b610bb0565b610244600d5481565b61023e6103d73660046114db565b610c50565b6102446103ea366004611575565b6001600160a01b03918216600090815260016020908152604080832093909416825291909152205490565b61023e6104233660046114db565b610d11565b61023e610436366004611505565b610dc1565b60606003805461044a906115a8565b80601f0160208091040260200160405190810160405280929190818152602001828054610476906115a8565b80156104c35780601f10610498576101008083540402835291602001916104c3565b820191906000526020600020905b8154815290600101906020018083116104a657829003601f168201915b5050505050905090565b6000336104db818585610e59565b5060019392505050565b6005546001600160a01b031633146105185760405162461bcd60e51b815260040161050f906115e3565b60405180910390fd5b6001600160a01b03811661055e5760405162461bcd60e51b815260206004820152600d60248201526c656d707479206164647265737360981b604482015260640161050f565b6001600160a01b03166000908152600760205260409020805460ff19169055565b6005546001600160a01b031633146105a95760405162461bcd60e51b815260040161050f906115e3565b306000908152602081905260409020548111156106015760405162461bcd60e51b8152602060048201526016602482015275616d6f756e7420657863656564732062616c616e636560501b604482015260640161050f565b61060c308383610f7e565b5050565b600260065414156106335760405162461bcd60e51b815260040161050f90611618565b60026006553360009081526007602052604090205460ff166106675760405162461bcd60e51b815260040161050f9061164f565b60095460ff16156107185760085481600d546106839190611693565b11156106a15760405162461bcd60e51b815260040161050f906116ab565b600560085460026106b291906116f5565b6106bc9190611714565b81600a546106ca9190611693565b11156107185760405162461bcd60e51b815260206004820181905260248201527f416d6f756e74206578636565647320343025207265776172647320706f6f6c21604482015260640161050f565b80600a546107269190611693565b600a55600d54610737908290611693565b600d55610744828261114e565b60095460ff1615610763576107633061075e600284611714565b61114e565b50506001600655565b3360009081526007602052604081205460ff16156107975761078f848484610f7e565b5060016107a5565b6107a284848461122d565b90505b9392505050565b3360008181526001602090815260408083206001600160a01b03871684529091528120549091906104db90829086906107e6908790611693565b610e59565b6002600654141561080e5760405162461bcd60e51b815260040161050f90611618565b60026006553360009081526007602052604090205460ff166108425760405162461bcd60e51b815260040161050f9061164f565b60095460ff161561087c5760085481600d5461085e9190611693565b111561087c5760405162461bcd60e51b815260040161050f906116ab565b80600d5461088a9190611693565b600d55610763828261114e565b6005546001600160a01b031633146108c15760405162461bcd60e51b815260040161050f906115e3565b600254811161092e5760405162461bcd60e51b815260206004820152603360248201527f56616c756520697320736d616c6c6572207468616e20746865206e756d626572604482015272206f66206578697374696e6720746f6b656e7360681b606482015260840161050f565b60095460ff16156109815760405162461bcd60e51b815260206004820152601e60248201527f546f6b656e2063617020686173206265656e20616c7265616479207365740000604482015260640161050f565b6008556009805460ff19166001179055565b6005546001600160a01b031633146109bd5760405162461bcd60e51b815260040161050f906115e3565b6001600160a01b038116610a035760405162461bcd60e51b815260206004820152600d60248201526c656d707479206164647265737360981b604482015260640161050f565b6001600160a01b03166000908152600760205260409020805460ff19166001179055565b6005546001600160a01b03163314610a515760405162461bcd60e51b815260040161050f906115e3565b610a5b6000611246565b565b60606004805461044a906115a8565b60026006541415610a8f5760405162461bcd60e51b815260040161050f90611618565b60026006553360009081526007602052604090205460ff16610aea5760405162461bcd60e51b815260206004820152601460248201527327b7363c9030b236b4b7399031b0b710313ab93760611b604482015260640161050f565b80600e54610af89190611693565b600e556107638282611298565b3360008181526001602090815260408083206001600160a01b038716845290915281205490919083811015610b8a5760405162461bcd60e51b815260206004820152602560248201527f45524332303a2064656372656173656420616c6c6f77616e63652062656c6f77604482015264207a65726f60d81b606482015260840161050f565b610b978286868403610e59565b506001949350505050565b6000336104db818585610f7e565b6005546001600160a01b03163314610bda5760405162461bcd60e51b815260040161050f906115e3565b30600090815260208190526040902054811115610c325760405162461bcd60e51b8152602060048201526016602482015275616d6f756e7420657863656564732062616c616e636560501b604482015260640161050f565b80600e54610c409190611693565b600e55610c4d3082611298565b50565b60026006541415610c735760405162461bcd60e51b815260040161050f90611618565b60026006553360009081526007602052604090205460ff16610ca75760405162461bcd60e51b815260040161050f9061164f565b60095460ff1615610ce15760085481600d54610cc39190611693565b1115610ce15760405162461bcd60e51b815260040161050f906116ab565b80600c54610cef9190611693565b600c55600a54610d00908290611693565b600a55600d5461088a908290611693565b60026006541415610d345760405162461bcd60e51b815260040161050f90611618565b60026006553360009081526007602052604090205460ff16610d685760405162461bcd60e51b815260040161050f9061164f565b60095460ff1615610da25760085481600d54610d849190611693565b1115610da25760405162461bcd60e51b815260040161050f906116ab565b80600b54610db09190611693565b600b55600a54610d00908290611693565b6005546001600160a01b03163314610deb5760405162461bcd60e51b815260040161050f906115e3565b6001600160a01b038116610e505760405162461bcd60e51b815260206004820152602660248201527f4f776e61626c653a206e6577206f776e657220697320746865207a65726f206160448201526564647265737360d01b606482015260840161050f565b610c4d81611246565b6001600160a01b038316610ebb5760405162461bcd60e51b8152602060048201526024808201527f45524332303a20617070726f76652066726f6d20746865207a65726f206164646044820152637265737360e01b606482015260840161050f565b6001600160a01b038216610f1c5760405162461bcd60e51b815260206004820152602260248201527f45524332303a20617070726f766520746f20746865207a65726f206164647265604482015261737360f01b606482015260840161050f565b6001600160a01b0383811660008181526001602090815260408083209487168084529482529182902085905590518481527f8c5be1e5ebec7d5bd14f71427d1e84f3dd0314c0f7b2291e5b200ac8c7c3b92591015b60405180910390a3505050565b6001600160a01b038316610fe25760405162461bcd60e51b815260206004820152602560248201527f45524332303a207472616e736665722066726f6d20746865207a65726f206164604482015264647265737360d81b606482015260840161050f565b6001600160a01b0382166110445760405162461bcd60e51b815260206004820152602360248201527f45524332303a207472616e7366657220746f20746865207a65726f206164647260448201526265737360e81b606482015260840161050f565b6001600160a01b038316600090815260208190526040902054818110156110bc5760405162461bcd60e51b815260206004820152602660248201527f45524332303a207472616e7366657220616d6f756e7420657863656564732062604482015265616c616e636560d01b606482015260840161050f565b6001600160a01b038085166000908152602081905260408082208585039055918516815290812080548492906110f3908490611693565b92505081905550826001600160a01b0316846001600160a01b03167fddf252ad1be2c89b69c2b068fc378daa952ba7f163c4a11628f55a4df523b3ef8460405161113f91815260200190565b60405180910390a35b50505050565b6001600160a01b0382166111a45760405162461bcd60e51b815260206004820152601f60248201527f45524332303a206d696e7420746f20746865207a65726f206164647265737300604482015260640161050f565b80600260008282546111b69190611693565b90915550506001600160a01b038216600090815260208190526040812080548392906111e3908490611693565b90915550506040518181526001600160a01b038316906000907fddf252ad1be2c89b69c2b068fc378daa952ba7f163c4a11628f55a4df523b3ef9060200160405180910390a35050565b60003361123b8582856113de565b610b97858585610f7e565b600580546001600160a01b038381166001600160a01b0319831681179093556040519116919082907f8be0079c531659141344cd1fd0a4f28419497f9722a3daafe3b4186f6b6457e090600090a35050565b6001600160a01b0382166112f85760405162461bcd60e51b815260206004820152602160248201527f45524332303a206275726e2066726f6d20746865207a65726f206164647265736044820152607360f81b606482015260840161050f565b6001600160a01b0382166000908152602081905260409020548181101561136c5760405162461bcd60e51b815260206004820152602260248201527f45524332303a206275726e20616d6f756e7420657863656564732062616c616e604482015261636560f01b606482015260840161050f565b6001600160a01b038316600090815260208190526040812083830390556002805484929061139b908490611736565b90915550506040518281526000906001600160a01b038516907fddf252ad1be2c89b69c2b068fc378daa952ba7f163c4a11628f55a4df523b3ef90602001610f71565b6001600160a01b038381166000908152600160209081526040808320938616835292905220546000198114611148578181101561145d5760405162461bcd60e51b815260206004820152601d60248201527f45524332303a20696e73756666696369656e7420616c6c6f77616e6365000000604482015260640161050f565b6111488484848403610e59565b600060208083528351808285015260005b818110156114975785810183015185820160400152820161147b565b818111156114a9576000604083870101525b50601f01601f1916929092016040019392505050565b80356001600160a01b03811681146114d657600080fd5b919050565b600080604083850312156114ee57600080fd5b6114f7836114bf565b946020939093013593505050565b60006020828403121561151757600080fd5b6107a5826114bf565b60008060006060848603121561153557600080fd5b61153e846114bf565b925061154c602085016114bf565b9150604084013590509250925092565b60006020828403121561156e57600080fd5b5035919050565b6000806040838503121561158857600080fd5b611591836114bf565b915061159f602084016114bf565b90509250929050565b600181811c908216806115bc57607f821691505b602082108114156115dd57634e487b7160e01b600052602260045260246000fd5b50919050565b6020808252818101527f4f776e61626c653a2063616c6c6572206973206e6f7420746865206f776e6572604082015260600190565b6020808252601f908201527f5265656e7472616e637947756172643a207265656e7472616e742063616c6c00604082015260600190565b60208082526014908201527313db9b1e4818591b5a5b9cc818d85b881b5a5b9d60621b604082015260600190565b634e487b7160e01b600052601160045260246000fd5b600082198211156116a6576116a661167d565b500190565b6020808252602a908201527f416d6f756e742065786365656473206d617820636170206f72206d61782063616040820152697020726561636865642160b01b606082015260800190565b600081600019048311821515161561170f5761170f61167d565b500290565b60008261173157634e487b7160e01b600052601260045260246000fd5b500490565b6000828210156117485761174861167d565b50039056fea26469706673582212201740c984e871b5fee1650cbb989d5380da1ad73a483b2b3b0b70924f4bb51d1364736f6c634300080b0033",
  "linkReferences": {},
  "deployedLinkReferences": {}
}